:020000040800F2
:1000000000500020AD310008292D00082B2D0008DC
:100010002D2D00082F2D0008312D000800000000B4
:10002000000000000000000000000000332D000868
:10003000352D000800000000372D0008392D00087C
:10004000F5310008F5310008F5310008F5310008F8
:10005000F5310008F5310008F5310008F5310008E8
:10006000F5310008F5310008F5310008F5310008D8
:10007000F5310008F5310008F5310008F5310008C8
:10008000F5310008F5310008F5310008F5310008B8
:10009000F5310008F5310008F5310008F5310008A8
:1000A000F5310008F5310008F5310008F531000898
:1000B000F53100083D2D0008492D0008F5310008F4
:1000C000F5310008F5310008F5310008F531000878
:1000D000F5310008552D0008612D0008F5310008A4
:1000E000F5310008F5310008F53100080000000086
:1000F0000000000000000000000000000000000000
:0C01000000000000000000005FF808F1A3
:1001100010B5054C237833B9044B13B10448AFF341
:1001200000800123237010BDDC01002000000000CE
:100130006459000808B5034B1BB103490348AFF3EA
:10014000008008BD00000000E001002064590008A4
:10015000034613F8012B002AFBD1181A0138704707
:1001600081F0004102E000BF83F0004330B54FEA68
:1001700041044FEA430594EA050F08BF90EA020FD5
:100180001FBF54EA000C55EA020C7FEA645C7FEA68
:10019000655C00F0E2804FEA5454D4EB5555B8BF8B
:1001A0006D420CDD2C4480EA020281EA030382EAFC
:1001B000000083EA010180EA020281EA0303362D8E
:1001C00088BF30BD11F0004F4FEA01314FF4801C61
:1001D0004CEA113102D0404261EB410113F0004F73
:1001E0004FEA03334CEA133302D0524263EB43032A
:1001F00094EA050F00F0A780A4F10104D5F1200EC8
:100200000DDB02FA0EFC22FA05F2801841F1000122
:1002100003FA0EF2801843FA05F359410EE0A5F1F6
:1002200020050EF1200E012A03FA0EFC28BF4CF027
:10023000020C43FA05F3C01851EBE37101F00045DD
:1002400007D54FF0000EDCF1000C7EEB00006EEBEA
:100250000101B1F5801F1BD3B1F5001F0CD3490874
:100260005FEA30004FEA3C0C04F101044FEA4452CB
:1002700012F5800F80F09A80BCF1004F08BF5FEA52
:10028000500C50F1000041EB045141EA050130BD32
:100290005FEA4C0C404141EB010111F4801FA4F1D5
:1002A0000104E9D191F0000F04BF01460020B1FA2A
:1002B00081F308BF2033A3F10B03B3F120020CDA62
:1002C0000C3208DD02F1140CC2F10C0201FA0CF040
:1002D00021FA02F10CE002F11402D8BFC2F1200CA5
:1002E00001FA02F120FA0CFCDCBF41EA0C0190405B
:1002F000E41AA2BF01EB0451294330BD6FEA0404A4
:100300001F3C1CDA0C340EDC04F11404C4F120028E
:1003100020FA04F001FA02F340EA030021FA04F3A0
:1003200045EA030130BDC4F10C04C4F1200220FAF7
:1003300002F001FA04F340EA0300294630BD21FA35
:1003400004F0294630BD94F0000F83F4801306BFFB
:1003500081F480110134013D4EE77FEA645C18BFEF
:100360007FEA655C29D094EA050F08BF90EA020F86
:1003700005D054EA000C04BF1946104630BD91EA7E
:10038000030F1EBF0021002030BD5FEA545C05D181
:100390004000494128BF41F0004130BD14F58004C0
:1003A0003CBF01F5801130BD01F0004545F0FE4134
:1003B00041F470014FF0000030BD7FEA645C1ABF69
:1003C000194610467FEA655C1CBF0B46024650EAA0
:1003D000013406BF52EA033591EA030F41F40021CC
:1003E00030BD00BF90F0000F04BF0021704730B552
:1003F0004FF4806404F132044FF000054FF0000127
:1004000050E700BF90F0000F04BF0021704730B5E7
:100410004FF4806404F1320410F0004548BF4042BC
:100420004FF000013EE700BF42004FEAE2014FEA11
:1004300031014FEA02701FBF12F07F4393F07F4FEC
:1004400081F06051704792F0000F14BF93F07F4F1E
:10045000704730B54FF4607401F0004521F0004161
:1004600020E700BF50EA010208BF704730B54FF0E7
:1004700000050AE050EA010208BF704730B511F0EC
:10048000004502D5404261EB41014FF4806404F124
:1004900032045FEA915C3FF4DCAE4FF003025FEAA6
:1004A000DC0C18BF03325FEADC0C18BF033202EB2E
:1004B000DC02C2F1200300FA03FC20FA02F001FA88
:1004C00003FE40EA0E0021FA02F11444C1E600BF27
:1004D00070B54FF0FF0C4CF4E06C1CEA11541DBFDA
:1004E0001CEA135594EA0C0F95EA0C0F00F0DEF8A5
:1004F0002C4481EA030621EA4C5123EA4C5350EA8A
:10050000013518BF52EA033541F4801143F48013DA
:1005100038D0A0FB02CE4FF00005E1FB02E506F06B
:100520000042E0FB03E54FF00006E1FB03569CF0C0
:10053000000F18BF4EF0010EA4F1FF04B6F5007FC6
:1005400064F5407404D25FEA4E0E6D4146EB060638
:1005500042EAC62141EA55514FEAC52040EA5E50C1
:100560004FEACE2EB4F1FD0C88BFBCF5E06F1ED86B
:10057000BEF1004F08BF5FEA500E50F1000041EBA2
:10058000045170BD06F0004646EA010140EA02004F
:1005900081EA0301B4EB5C04C2BFD4EB0C0541EA71
:1005A000045170BD41F480114FF0000E013C00F386
:1005B000AB8014F1360FDEBF002001F0004170BDAA
:1005C000C4F10004203C35DA0C341BDC04F11404C3
:1005D000C4F1200500FA05F320FA04F001FA05F24F
:1005E00040EA020001F0004221F0004110EBD3701C
:1005F00021FA04F642EB06015EEA430E08BF20EA48
:10060000D37070BDC4F10C04C4F1200500FA04F3EA
:1006100020FA05F001FA04F240EA020001F000417C
:1006200010EBD37041F100015EEA430E08BF20EAEF
:10063000D37070BDC4F1200500FA05F24EEA020E37
:1006400020FA04F301FA05F243EA020321FA04F066
:1006500001F0004121FA04F220EA020000EBD3701D
:100660005EEA430E08BF20EAD37070BD94F0000F1D
:100670000FD101F00046400041EB010111F4801F51
:1006800008BF013CF7D041EA060195F0000F18BF02
:10069000704703F00046520043EB030313F4801F3E
:1006A00008BF013DF7D043EA0603704794EA0C0FF8
:1006B0000CEA135518BF95EA0C0F0CD050EA41060E
:1006C00018BF52EA4306D1D181EA030101F000418B
:1006D0004FF0000070BD50EA410606BF10461946B3
:1006E00052EA430619D094EA0C0F02D150EA0136BF
:1006F00013D195EA0C0F05D152EA03361CBF104600
:1007000019460AD181EA030101F0004141F0FE419E
:1007100041F470014FF0000070BD41F0FE4141F422
:10072000780170BD70B54FF0FF0C4CF4E06C1CEA22
:1007300011541DBF1CEA135594EA0C0F95EA0C0FD7
:1007400000F0A7F8A4EB050481EA030E52EA033592
:100750004FEA013100F088804FEA03334FF08055B3
:1007600045EA131343EA12634FEA022245EA1115E0
:1007700045EA10654FEA00260EF000419D4208BF91
:10078000964244F1FD0404F5407402D25B084FEA3E
:100790003202B61A65EB03055B084FEA32024FF4EA
:1007A00080104FF4002CB6EB020E75EB030E22BF47
:1007B000B61A754640EA0C005B084FEA3202B6EB07
:1007C000020E75EB030E22BFB61A754640EA5C00B6
:1007D0005B084FEA3202B6EB020E75EB030E22BF46
:1007E000B61A754640EA9C005B084FEA3202B6EB47
:1007F000020E75EB030E22BFB61A754640EADC0006
:1008000055EA060E18D04FEA051545EA16754FEA67
:1008100006164FEAC30343EA52734FEAC2025FEA85
:100820001C1CC0D111F4801F0BD141EA00014FF014
:1008300000004FF0004CB6E711F4801F04BF0143E5
:100840000020B4F1FD0C88BFBCF5E06F3FF6AFAE01
:10085000B5EB030C04BFB6EB020C5FEA500C50F191
:10086000000041EB045170BD0EF0004E4EEA113114
:1008700014EB5C04C2BFD4EB0C0541EA045170BD1B
:1008800041F480114FF0000E013C90E645EA060E5F
:100890008DE60CEA135594EA0C0F08BF95EA0C0F8D
:1008A0003FF43BAF94EA0C0F0AD150EA01347FF4D5
:1008B00034AF95EA0C0F7FF425AF104619462CE7AC
:1008C00095EA0C0F06D152EA03353FF4FDAE10460F
:1008D000194622E750EA410618BF52EA43067FF460
:1008E000C5AE50EA41047FF40DAF52EA43057FF4F0
:1008F000EBAE12E74FF0FF3C06E000BF4FF0010CFB
:1009000002E000BF4FF0010C4DF804CD4FEA410C5E
:100910007FEA6C5C4FEA430C18BF7FEA6C5C1BD02B
:1009200001B050EA410C0CBF52EA430C91EA030FAC
:1009300002BF90EA020F0020704710F1000F91EA09
:10094000030F58BF994208BF90422CBFD8176FEAD7
:10095000E37040F0010070474FEA410C7FEA6C5CA5
:1009600002D150EA013C07D14FEA430C7FEA6C5CAC
:10097000D6D152EA033CD3D05DF8040B704700BFD8
:100980008446104662468C461946634600E000BF26
:1009900001B5FFF7B7FF002848BF10F1000F01BDF8
:1009A0004DF808EDFFF7F4FF0CBF012000205DF8C3
:1009B00008FB00BF4DF808EDFFF7EAFF34BF012048
:1009C00000205DF808FB00BF4DF808EDFFF7E0FFE1
:1009D00094BF012000205DF808FB00BF4DF808ED32
:1009E000FFF7CEFF94BF012000205DF808FB00BF99
:1009F0004DF808EDFFF7C4FF34BF012000205DF87B
:100A000008FB00BF4FEA410C7FEA6C5C02D150EA60
:100A1000013C0AD14FEA430C7FEA6C5C02D152EAF6
:100A2000033C02D14FF0000070474FF001007047C7
:100A30004FEA410212F5001215D211D56FF4787306
:100A4000B3EB625212D94FEAC12343F0004343EAA9
:100A5000505311F0004F23FA02F018BF4042704784
:100A60004FF00000704750EA013005D111F000400E
:100A700008BF6FF0004070474FF00000704700BFA4
:100A80004FEA4102B2F1E04324BFB3F5001CDCF1B0
:100A9000FE5C0DD901F0004C4FEAC0024CEA5070E8
:100AA000B2F1004F40EB830008BF20F00100704717
:100AB00011F0804F21D113F13872BCBF01F000401A
:100AC000704741F480114FEA5252C2F11802C2F14C
:100AD000200C10FA0CF320FA02F018BF40F00100CD
:100AE0004FEAC1234FEAD32303FA0CFC40EA0C007F
:100AF00023FA02F34FEA4303CCE77FEA625307D1BC
:100B000050EA01331EBF4FF0FE4040F440007047F2
:100B100001F0004040F0FE4040F40000704700BF8C
:100B200080F0004002E000BF81F0004142001FBFA2
:100B30005FEA410392EA030F7FEA226C7FEA236CAB
:100B40006AD04FEA1262D2EB1363C1BFD2184140A0
:100B500048404140B8BF5B42192B88BF704710F036
:100B6000004F40F4000020F07F4018BF404211F0D9
:100B7000004F41F4000121F07F4118BF494292EA41
:100B8000030F3FD0A2F1010241FA03FC10EB0C006D
:100B9000C3F1200301FA03F100F0004302D54942FA
:100BA00060EB4000B0F5000F13D3B0F1807F06D3A7
:100BB00040084FEA310102F10102FE2A51D2B1F19F
:100BC000004F40EBC25008BF20F0010040EA030094
:100BD0007047490040EB000010F4000FA2F1010241
:100BE000EDD1B0FA80FCACF1080CB2EB0C0200FACB
:100BF0000CF0AABF00EBC25052421843BCBFD04019
:100C00001843704792F0000F81F4000106BF80F492
:100C100000000132013BB5E74FEA41037FEA226C55
:100C200018BF7FEA236C21D092EA030F04D092F020
:100C3000000F08BF0846704790EA010F1CBF002054
:100C4000704712F07F4F04D1400028BF40F00040B1
:100C5000704712F100723CBF00F50000704700F0D1
:100C6000004343F0FE4040F4000070477FEA2262F8
:100C700016BF08467FEA23630146420206BF5FEAC9
:100C8000412390EA010F40F4800070474FF00003C9
:100C900004E000BF10F0004348BF40425FEA000C90
:100CA00008BF704743F0964301464FF000001CE038
:100CB00050EA010208BF70474FF000030AE000BF8E
:100CC00050EA010208BF704711F0004302D54042CC
:100CD00061EB41015FEA010C02BF8446014600203E
:100CE00043F0B64308BFA3F18053A3F50003BCFA59
:100CF0008CF2083AA3EBC25310DB01FA02FC634406
:100D000000FA02FCC2F12002BCF1004F20FA02F20C
:100D100043EB020008BF20F00100704702F12002FF
:100D200001FA02FCC2F1200250EA4C0021FA02F260
:100D300043EB020008BF20EADC7070474FF0FF0C65
:100D40001CEAD0521EBF1CEAD15392EA0C0F93EA60
:100D50000C0F6FD01A4480EA010C400218BF5FEA02
:100D600041211ED04FF0006343EA501043EA511175
:100D7000A0FB01310CF00040B1F5000F3EBF49006F
:100D800041EAD3715B0040EA010062F17F02FD2A73
:100D90001DD8B3F1004F40EBC25008BF20F0010056
:100DA000704790F0000F0CF0004C08BF49024CEA6D
:100DB000502040EA51207F3AC2BFD2F1FF0340EAFF
:100DC000C250704740F400004FF00003013A5DDC70
:100DD00012F1190FDCBF00F000407047C2F10002B1
:100DE000410021FA02F1C2F1200200FA02FC5FEA9E
:100DF000310040F1000053EA4C0308BF20EADC70E8
:100E0000704792F0000F00F0004C02BF400010F459
:100E1000000F013AF9D040EA0C0093F0000F01F006
:100E2000004C02BF490011F4000F013BF9D041EA28
:100E30000C018FE70CEAD15392EA0C0F18BF93EA2A
:100E40000C0F0AD030F0004C18BF31F0004CD8D154
:100E500080EA010000F00040704790F0000F17BFDB
:100E600090F0004F084691F0000F91F0004F14D021
:100E700092EA0C0F01D142020FD193EA0C0F03D179
:100E80004B0218BF084608D180EA010000F000407C
:100E900040F0FE4040F40000704740F0FE4040F457
:100EA000400070474FF0FF0C1CEAD0521EBF1CEAF6
:100EB000D15392EA0C0F93EA0C0F69D0A2EB030214
:100EC00080EA010C49024FEA402037D04FF08053AE
:100ED00043EA111143EA10130CF000408B4238BF73
:100EE0005B0042F17D024FF4000C8B4224BF5B1A81
:100EF00040EA0C00B3EB510F24BFA3EB510340EACF
:100F00005C00B3EB910F24BFA3EB910340EA9C007C
:100F1000B3EBD10F24BFA3EBD10340EADC001B01EC
:100F200018BF5FEA1C1CE0D1FD2A3FF650AF8B4290
:100F300040EBC25008BF20F0010070470CF0004C9D
:100F40004CEA50207F32C2BFD2F1FF0340EAC250C8
:100F5000704740F400004FF00003013A37E792F089
:100F6000000F00F0004C02BF400010F4000F013AE7
:100F7000F9D040EA0C0093F0000F01F0004C02BFE2
:100F8000490011F4000F013BF9D041EA0C0195E74B
:100F90000CEAD15392EA0C0F08D142027FF47DAFE4
:100FA00093EA0C0F7FF470AF084676E793EA0C0FD4
:100FB00004D14B023FF44CAF08466EE730F0004CD2
:100FC00018BF31F0004CCAD130F000427FF45CAF62
:100FD00031F000437FF43CAF5FE700BF4FF0FF3CD0
:100FE00006E000BF4FF0010C02E000BF4FF0010C23
:100FF0004DF804CD4FEA40024FEA41037FEA226CEC
:1010000018BF7FEA236C11D001B052EA530C18BF0D
:1010100090EA010F58BFB2EB030088BFC81738BF72
:101020006FEAE17018BF40F0010070477FEA226C60
:1010300002D15FEA402C05D17FEA236CE4D15FEA5C
:10104000412CE1D05DF8040B704700BF8446084690
:101050006146FFE70FB5FFF7C9FF002848BF10F151
:10106000000F0FBD4DF808EDFFF7F4FF0CBF012096
:1010700000205DF808FB00BF4DF808EDFFF7EAFF20
:1010800034BF012000205DF808FB00BF4DF808EDDB
:10109000FFF7E0FF94BF012000205DF808FB00BFD0
:1010A0004DF808EDFFF7D2FF94BF012000205DF856
:1010B00008FB00BF4DF808EDFFF7C8FF34BF012063
:1010C00000205DF808FB00BF42000ED2B2F1FE4FD7
:1010D0000BD34FF09E03B3EB126209D44FEA002307
:1010E00043F0004323FA02F070474FF000007047CE
:1010F00012F1610F01D1420202D14FF0FF3070476F
:101100004FF00000704700BF38B50E4B0546187809
:101110004FF47A73B3FBF0F30B4A1068B0FBF3F0B3
:1011200000F09EF8044658B90F2D09D8024629460A
:101130004FF0FF3000F054F8044B20461D6038BDDE
:10114000012038BD0000002008000020040000201D
:10115000074A08B51368032043F01003136000F03A
:101160002DF80020FFF7D0FF01F0BCFD002008BDE6
:1011700000200240034A044B11681B780B441360A3
:10118000704700BF0402002000000020014B1868D7
:10119000704700BF0402002038B50446FFF7F6FF91
:1011A0000546631C1EBF044B1B78E418FFF7EEFFD7
:1011B000401B8442FAD838BD00000020074A0002D4
:1011C000D36800F4E06023F4E0631B041B0C43F0DD
:1011D000BF6343F400330343D360704700ED00E086
:1011E000174B30B5DC68C4F30224C4F10703251D96
:1011F000042B28BF0423062D4FF0010598BF0024BF
:1012000005FA03F303F1FF3388BF033C1940A14003
:1012100005FA04F4013C2240002842EA01024FEAA8
:101220000212AFBF00F16040064B00F00F00D2B2D7
:10123000A5BFD2B200F561401A5480F8002330BD3A
:1012400000ED00E014ED00E00123420900F01F0072
:1012500003FA00F0014B43F82200704700E100E080
:101260000138B0F1807F0AD2F021064B064A58605F
:1012700082F823100020072298601A60704701202E
:10128000704700BF10E000E000ED00E090F8213072
:1012900010B5022B03D004238363012010BD036823
:1012A0001A6822F00E021A601A6822F001021A600F
:1012B000184A93421FD0143293421ED014329342E4
:1012C0001DD0143293421DD0143293421DD01432DB
:1012D00093420CBF4FF480134FF080730E4A0024EA
:1012E0005360012380F82130436B80F820407BB1AC
:1012F0009847204610BD0123F0E71023EEE74FF496
:101300008073EBE74FF48053E8E74FF48033E5E771
:10131000184610BD08000240000002402DE9F74FBA
:1013200000221646654BDFF8A4E1DFF8A4C14FF0B8
:1013300001080C6808FA06F808EA0404A0457FD101
:101340004D68122D00F0AF8000F28880022D00F071
:10135000A7807CD8002D00F08E80012D00F09E80AB
:101360004FF00F09FF2C93BF824606F18045083DE0
:10137000D0F800B092BFB500D0F804B0AD0009FAC3
:1013800005F82BEA080802FA05F588BF00F1040AFF
:1013900048EA0505CAF80050D1F804A01AF0805FA9
:1013A0004ED0474D464FAD6926F0030845F0010584
:1013B000BD61BD6908F1804805F00105019508F59A
:1013C000803806F0030B019D4FEA8B0BD8F80850CC
:1013D00009FA0BF925EA09093A4DA84268D005F542
:1013E0008065A84266D005F58065A84264D005F501
:1013F0008065A8420CBF0325042505FA0BF545EAD4
:101400000905C8F808501D681AF4803F14BF254329
:10141000A5431D605D681AF4003F14BF2543A54332
:101420005D609D681AF4801F14BF2543A5439D602D
:10143000DD681AF4001F14BF2C4325EA0404DC60A5
:101440000136102E7FF473AF03B0BDE8F08F032D8B
:1014500022D0112D84D1CA68043281E71A4FBD42CF
:1014600009D012D8DFF86C904D4504D009F58039C9
:101470004D457FF475AF8A68C2B1012A0CBFC0F830
:101480001080C0F8148008226AE77545F3D06545DE
:10149000F1D0DFF84490EBE7002261E7CA685FE72C
:1014A000CA6808325CE7CA680C3259E7042257E779
:1014B0000025A2E70125A0E702259EE700040140E0
:1014C000001002400008014000002110000031100F
:1014D0000000321000001110000022100AB101615A
:1014E00070470904FBE7C3685940C16070470000BA
:1014F00003682DE9F341DB07054610D42B689F07ED
:101500005ED42B68190700F195802B685A0700F10B
:10151000BF80EA69002A40F02D81002014E0904C41
:10152000636803F00C03042B07D0636803F00C031B
:10153000082B0CD16368DE0309D523689C03DDD535
:101540006B68002BDAD1012002B0BDE8F0816B6836
:10155000B3F5803F10D1236843F480332360FFF755
:1015600015FE064623689803C8D4FFF70FFE801BBC
:101570006428F7D90320E7E79BB9236823F4803375
:101580002360236823F480232360FFF7FFFD0646D2
:1015900023689903B2D5FFF7F9FD801B6428F7D9BA
:1015A000E8E7B3F5A02F236803D143F48023236039
:1015B000D1E723F480332360236823F48023CDE72D
:1015C000674C636813F00C0F07D0636803F00C03DB
:1015D000082B10D16368DA030DD423689B0702D56A
:1015E0002B69012BAFD123686A6923F0F80343EA22
:1015F000C203236085E72A695A4B6AB101221A6047
:10160000FFF7C4FD064623689F07ECD4FFF7BEFD35
:10161000801B0228F7D9ADE71A60FFF7B7FD064631
:10162000236898077FF56DAFFFF7B0FD801B022898
:10163000F6D99FE7AA694A4C4B4BDAB101221A60EE
:10164000FFF7A4FD0646636A9B070DD54FF4FA52D7
:10165000464B1B68B3FBF2F3019300BF019B5A1E7C
:101660000192002BF9D150E7FFF790FD801B022873
:10167000E9D97FE71A60FFF789FD0646636A9F078D
:101680007FF543AFFFF782FD801B0228F6D971E793
:10169000334CE369D80024D40127E36943F0805335
:1016A000E361E36903F080530093009B304E33689D
:1016B000D90518D5EB68012B26D1236A43F0010325
:1016C0002362FFF763FD41F288368046236A9B0759
:1016D0003FD5002F3FF41DAFE36923F08053E36152
:1016E00017E70027E2E7336843F480733360FFF7BE
:1016F0004DFD80463368DA05DCD4FFF747FDA0EBEB
:1017000008006428F6D935E7ABB9236A41F2883876
:1017100023F001032362236A23F004032362FFF70B
:1017200035FD0646236A9807D3D5FFF72FFD801BAA
:101730004045F7D91EE7052B236A03D143F0040384
:101740002362BAE723F001032362236A23F0040330
:10175000B6E7FFF71BFDA0EB0800B042B6D909E7DA
:101760000010024000004242800442420800002073
:1017700000700040224C636803F00C03082B3FF418
:10178000E2AE00231F4E022A33602BD1FFF7FEFC8E
:101790000746236899011FD42B6AB3F5803F05D112
:1017A0006268A96822F400320A436260696A62686A
:1017B0000B4322F474121343636001233360FFF779
:1017C000E5FC054623689A013FF5A7AEFFF7DEFC6E
:1017D000401B0228F6D9CDE6FFF7D8FCC01B022833
:1017E000D7D9C7E6FFF7D2FC054623689B017FF5F2
:1017F00094AEFFF7CBFC401B0228F6D9BAE600BF37
:10180000001002406000424230B5194B87B002AC74
:1018100003F11005224618685968083303C2AB4229
:101820001446F7D101238DF80430022311498DF8B5
:1018300005304B6803F00C02082A17D1C3F383422A
:1018400006A80244DB0312F8102C0CD54B680A489A
:10185000C3F34043504306AA134413F8143CB0FBAF
:10186000F3F007B030BD05485043FAE70248F8E707
:10187000805900080010024000127A0000093D0063
:10188000544A2DE9F0411368054603F007038B42E3
:101890000E462AD329688C0734D4CA0747D44D4A48
:1018A000136803F007039E42C0F082802A684A4C06
:1018B00012F0040F40F08780130706D563682A6989
:1018C00023F4605343EAC2036360FFF79DFF63683C
:1018D000424AC3F30313D35CD840414B1860002045
:1018E000FFF712FC0020BDE8F081136823F0070326
:1018F0000B431360136803F007039942CAD0012019
:10190000BDE8F081344B11F0040F1EBF5A6842F459
:10191000E0625A60080742BF5A6842F460525A6057
:101920005A68A86822F0F00202435A60B5E76A6874
:10193000294C012A23681CD113F4003FDFD06368CF
:1019400041F2883823F0030313436360FFF71EFC62
:101950006B680746012B14D1636803F00C03042B5A
:101960009DD0FFF713FCC01B4045F5D90320BDE80F
:10197000F081022A02D113F0007FDFE713F0020F9B
:10198000DCE7022B0FD1636803F00C03082B86D031
:10199000FFF7FCFBC01B4045F5D9E7E7FFF7F6FB77
:1019A000C01B4045E2D8636813F00C0FF6D176E710
:1019B000136823F0070333431360136803F007032E
:1019C0009E429CD172E76368E96823F4E0630B43AD
:1019D000636071E70020024000100240B159000826
:1019E00008000020044B054A5B68C3F30223D35C64
:1019F000034A1068D840704700100240C1590008DF
:101A000008000020044B054A5B68C3F3C223D35C83
:101A1000034A1068D840704700100240C1590008BE
:101A200008000020036A70B523F001030362036A13
:101A3000446882690D6822F073022A438D6823F09E
:101A400002032B430A4DA8420BD1CD6823F00803B3
:101A50002B438E694D6924F44074354323F004030D
:101A60002C43446082614A684263036270BD00BFD8
:101A7000002C0140036A70B523F480730362036A8B
:101A80004468C2690D6822F073022A438D6823F40A
:101A9000007343EA05230B4DA8420DD1CD6823F412
:101AA000006343EA05238E694D6924F440543543AD
:101AB00023F4806344EA05144460C2614A68C26347
:101AC000036270BD002C0140036A30B523F48053DB
:101AD0000362036A4468C2690D6822F4E64242EA7E
:101AE00005228D6823F4005343EA0533064DA842CE
:101AF00002BF4D6924F4804444EA85144460C26105
:101B00004A680264036230BD002C01400368002073
:101B1000DA6842F00102DA601A6842F001021A60E3
:101B200070477047036889B1042907D01A6A22F008
:101B300001021A621A6A42F001021A621A6A22F05B
:101B400010021A621A6A42F0100206E01A6A22F0C3
:101B500001021A621A6A42F001021A621A6800202F
:101B600042F001021A60704790F83C3070B5012BCA
:101B70004FF002031CD0012280F83D30036880F84A
:101B80003C209A6822F47F4222F077029A600A6829
:101B9000402A79D019D8102A00F093800AD8002A58
:101BA00000F08980012380F83D30002380F83C302C
:101BB000184670BD202A00F08A80302AF2D19A6837
:101BC00022F0700242F0370236E0702A36D01BD87D
:101BD000502A42D0602AE5D11C6A4D6824F01004D6
:101BE000CE681C6299691A6A21F4704122F0A00241
:101BF00042EA051241EA063199611A629A6822F0B6
:101C0000700242F0670217E0B2F5805F11D0B2F5C2
:101C1000005FC7D18A684D689C68C9682A4324F46C
:101C20007F4442EA012222439A609A6842F4804249
:101C300002E09A6822F007029A60B3E78A684D686A
:101C40009C68C9682A4324F47F4442EA0122224363
:101C50009A609A6842F07702EEE74C68CE68196A9B
:101C60001D6A21F00A0125F001051D629A692143D0
:101C700022F0F00242EA06129A6119629A6822F092
:101C8000700242F05702D7E74C68CE68196A1D6AA5
:101C900021F00A0125F001051D629A69214322F015
:101CA000F00242EA06129A6119629A6822F0700202
:101CB00042F04702C0E79A6822F0700242F0070241
:101CC000BAE79A6822F0700242F01702B4E79A6805
:101CD00022F0700242F02702AEE77047704770476B
:101CE0007047036810B51A69044691070ED5DA6883
:101CF00092070BD56FF002021A6101229B690277ED
:101D00009B0777D0FFF7EAFF0023237723681A6940
:101D1000500710D5DA6851070DD56FF004021A612B
:101D200002229B69227713F4407F204668D0FFF798
:101D3000D5FF0023237723681A6912070FD5DA68C5
:101D400010070CD56FF008021A610422DB692277B4
:101D5000990720465AD0FFF7C1FF00232377236855
:101D60001A69D20610D5DA68D0060DD56FF01002C8
:101D70001A610822DB69227713F4407F20464BD09A
:101D8000FFF7ACFF0023237723681A69D10708D532
:101D9000DA68D20705D56FF0010220461A6100F01B
:101DA000F3FD23681A69100608D5DA68110605D50F
:101DB0006FF0800220461A6100F0BFF923681A69AB
:101DC000520608D5DA68500605D56FF04002204665
:101DD0001A61FFF785FF23681A69910622D5DA6830
:101DE00092061FD56FF020022046BDE810401A6110
:101DF00000F0A2B9FFF771FF2046FFF770FF83E7FD
:101E0000FFF76BFF2046FFF76AFF92E7FFF765FFDA
:101E10002046FFF764FFA0E7FFF75FFF2046FFF7CC
:101E20005EFFAFE710BD00001A4A036890420AD077
:101E3000B0F1804F07D0A2F59432904203D002F562
:101E40008062904215D14A6823F070031343114A0F
:101E500090420AD0B0F1804F07D0A2F59432904260
:101E600003D002F58062904203D1CA6823F4407324
:101E700013434A6923F08003134303608B68C362F2
:101E80000B688362034B984204BF0B690363012311
:101E900043617047002C014010B50446A0B190F892
:101EA0003D3003F0FF021BB980F83C2001F00EF832
:101EB0000223206884F83D30211DFFF7B5FF012380
:101EC000002084F83D3010BD012010BD10B504463F
:101ED000A0B190F83D3003F0FF021BB980F83C2020
:101EE000FFF71FFE0223206884F83D30211DFFF715
:101EF0009BFF0123002084F83D3010BD012010BD60
:101F0000F8B50C460546002841D090F83D3003F066
:101F1000FF021BB980F83C2000F0AEFF29460223E7
:101F200051F8040B85F83D30836823F00703836084
:101F3000FFF77AFF2868236886688269A1681E43D4
:101F4000A36922F4407222F0030241EA03231343FF
:101F500023F47C422369E1691B0143EA0123E16820
:101F6000076A0B43216A22F0FC0243EA0133134360
:101F7000616927F0AA02676886608361012347EAE6
:101F800001171743076285F83D300020F8BD012096
:101F9000F8BD0000036A70B523F010030362036A02
:101FA000446882690D6822F4E64242EA05228D689F
:101FB00023F0200343EA05130B4DA8420DD1CD6851
:101FC00023F0800343EA05138E694D6924F44064CD
:101FD000354323F0400344EA8504446082614A6843
:101FE0008263036270BD00BF002C014038B590F8D9
:101FF0003C300446012B4FF0020025D0012384F829
:102000003D0084F83C300C2A18D8DFE802F00717AE
:1020100017171E1717172F17171740002068FFF7FD
:1020200001FD236809699A6942F008029A619A6978
:1020300022F004029A619A690A439A6101230020FE
:1020400084F83D3084F83C0038BD2068FFF7A2FFDB
:10205000236809699A6942F400629A619A6922F4D4
:1020600080629A619A6942EA0122E6E72068FFF7F6
:1020700001FD23680969DA6942F00802DA61DA6968
:1020800022F00402DA61DA690A43DA61D6E72068ED
:10209000FFF71AFD23680969DA6942F40062DA6120
:1020A000DA6922F48062DA61DA6942EA0122ECE755
:1020B00010B50124036A8C4023EA04030362036A17
:1020C0008A401A43026210BD10B50446012200681E
:1020D000FFF7EEFF2368064A0020934202BF5A6CC6
:1020E00042F400425A641A6842F001021A6010BDBC
:1020F000002C014090F83C3010B5012B4FF002034A
:1021000018D080F83D3003680C685A68496822F09E
:1021100070025A605A6822435A609A6822F080021C
:102120009A609A680A439A60012380F83D30002340
:1021300080F83C30184610BD704770470368DA6875
:1021400022F49072DA605A6922F001025A61202367
:1021500080F83A30704700002DE9F0470568C26802
:102160002B69016923F4405313432B618368EA68A8
:102170000B43416922F4B05222F00C020B4313438B
:10218000EB606B69826923F4407313436B61404BCE
:1021900081469D424FF0190446D1FFF733FC04FB02
:1021A00000F3D9F804604FF06408B600B3FBF6F30F
:1021B000B3FBF8F31E01FFF725FC6043D9F80430A8
:1021C0009B00B0FBF3F7FFF71DFC6043D9F8043028
:1021D0009B00B0FBF3F3B3FBF8F308FB13731B0195
:1021E0003233B3FBF8F303F0F007FFF70BFC604367
:1021F000D9F804209200B0FBF2FAFFF703FC604329
:10220000D9F804309B00B0FBF3F3B3FBF8F308FB01
:1022100013A31B013233B3FBF8F303F00F033B436B
:102220003344AB60BDE8F087FFF7DCFB04FB00F351
:10223000D9F804604FF06408B600B3FBF6F3B3FBC3
:10224000F8F31E01FFF7CEFB6043D9F804309B0082
:10225000B0FBF3F7FFF7C6FB6043D9F804309B00EF
:10226000B0FBF3F3B3FBF8F308FB13731B0132333A
:10227000B3FBF8F303F0F007FFF7B4FB6043D9F8C2
:1022800004209200B0FBF2FAFFF7ACFBB7E700BF07
:1022900000380140F8B504460E4617461D46216831
:1022A0000B6836EA030301D10020F8BD6B1CF7D0A0
:1022B00095B923680320DA6822F4D072DA605A698B
:1022C00022F001025A61202384F8393084F83A3030
:1022D000002384F83830F8BDFEF758FFC01B854254
:1022E000DDD2E6E710B5044640B390F8393003F08C
:1022F000FF021BB980F8382000F0D8FE24232268A2
:1023000084F83930D368204623F40053D360FFF7B4
:1023100023FF236800201A6922F490421A615A6947
:1023200022F02A025A61DA6842F40052DA6020236D
:10233000E06384F8393084F83A3010BD012010BDD4
:102340002DE9F0411F4690F839300446202B0D4608
:1023500090464ED1002949D0002A47D090F8383015
:10236000012B46D0012380F838300023C36321239A
:1023700080F83930FEF70AFF0646A4F82480A4F856
:102380002680E38C9BB26BB93B4632464021204607
:10239000FFF780FFA8B9202384F8380084F839308B
:1023A000BDE8F081E38C3246013B9BB2E384A36835
:1023B0008021B3F5805F20463B460ED1FFF76AFFD0
:1023C00010B10320BDE8F0812B882268C3F3080315
:1023D0005360236943B90235D3E7FFF75BFF002859
:1023E000EFD123682A785A600135CAE70120BDE899
:1023F000F0810220BDE8F08190F83A30202B20D106
:10240000E9B1E2B190F83830012B1AD0C28582854B
:1024100000232222C36380F83A2002688162D168D7
:1024200080F8383041F48071D1605169184641F02C
:1024300001015161D16841F02001D1607047012054
:10244000704702207047704790F83A3010B5222B41
:1024500036D183680169B3F5805F0268836A23D14E
:102460005268E9B9C2F3080223F8022B8362C48DD3
:10247000013CA4B2C4858CB90368DA6822F020025A
:10248000DA60DA6822F48072DA605A6922F00102B6
:102490005A61202380F83A3000F0CEF9002010BDB8
:1024A000D2B223F8012BE1E721B9591C52688162AD
:1024B0001A70DCE75268591C816202F07F02F7E76C
:1024C000022010BD70470000036870B51A6804460A
:1024D0001607D9685D6907D196065AD58D0658D575
:1024E000BDE87040FFF7B0BF15F0010502D111F44F
:1024F000907F4ED0D30705D5CE0542BFE36B43F0A6
:102500000103E363500704D51DB1E36B43F00203FD
:10251000E363930704D51DB1E36B43F00403E36366
:10252000160704D51DB1E36B43F00803E363E36BC7
:10253000002B66D0950604D5880602D52046FFF705
:1025400083FF236820465D69E26B110702D415F012
:1025500040051AD0FFF7F2FD23685A69520610D5DC
:102560005A69606B22F040025A6150B1254B4363B7
:10257000FEF78CFE002844D0606BBDE87040436BD2
:1025800018472046FFF79EFF70BDFFF79BFFE563EE
:1025900070BD160627D50D0625D594F83920212AB9
:1025A0002FD1A268B2F5805F226A17D11188C1F3DA
:1025B00008015960216979B902322262E28C013A3C
:1025C00092B2E284EAB9DA6822F08002DA60DA686C
:1025D00042F04002DA6070BD0132EEE7511C216228
:1025E00012785A60EAE750060BD54A0609D5DA6830
:1025F000204622F04002DA60202384F83930FFF7C9
:1026000022FF70BD0926000808B50023406AC38573
:10261000C384FFF757FF08BD10222DE9F04188B0B1
:102620000DEB0200002100F00FFE2B4BDFF8B48011
:102630009A692A4D42F010029A619A69404602F066
:1026400010020092009A9A6940F6087142F0200246
:102650009A619A69002402F020020192019A9A6913
:10266000012742F004029A619A69022602F00402EC
:102670000292029A9A6942F008029A619B690022CA
:1026800003F008030393039BFEF728FF002228466C
:102690004FF41C41FEF722FF4FF4604304A9104899
:1026A000049305940694FEF739FE40F6087304A9D6
:1026B00040460493059706940796FEF72FFE4FF4C5
:1026C0001C4304A928460493059706940796FEF731
:1026D00025FE08B0BDE8F08100100240000801406E
:1026E00000100140000C014010B514460A2392B2BC
:1026F0000248FFF725FE204610BD00BF1C09002040
:1027000010B590B02822002106A800F09DFD002100
:10271000142201A800F098FD4FF480330122022416
:1027200007930E934FF4E01306A806920A920F93B4
:102730000D94FEF7DDFE0F234FF48062019300231A
:10274000214601A80294039304920593FFF798F899
:1027500010B010BD2DE9F04F85B0FEF7F9FCFFF782
:10276000CFFFFFF759FF00F069FC00F051FB00F0CC
:1027700081FC00F005FC00F01FFB012223492448E6
:10278000FFF73AFE012223492348FFF735FE23488D
:10279000FFF7BCF92248FFF7B9F908212048FFF7F5
:1027A00093FC0C211E48FFF78FFC00211D48FFF70A
:1027B000B9F900221C4C1D4B20461A8000F0D4F8B9
:1027C00000231B4F114E124D63632069FDF72CFE51
:1027D000D4F818A0D4F834B0804658468946FDF79E
:1027E00023FECDE902015046FDF71EFE4246CDE92B
:1027F00000014B46384601F091F90A20FEF7CCFC67
:10280000012231462846FFF7F7FDDEE722020020CD
:102810001C090020210200205C0900205C08002027
:102820009C080020DC0800204C060020300400201A
:10283000905900080000000002683F4B70B59A42B2
:1028400005460DD13D4C0A23012221463C48FFF7A5
:1028500077FD0023012221463A482370FFF7CCFD83
:102860002A68394B9A4261D1384E394C3378663BED
:10287000112B0FD8DFE803F058540E4B2A3F0E0EF1
:102880000E0E0E0E0E250E360E09606B3149FEF748
:102890004DF96063304D606B2946FEF70BFC00B1CB
:1028A00065632E4D606B2946FEF7E6FB00B165635C
:1028B000002333700122BDE8704024492048FFF70F
:1028C0009BBD606B2349FEF72FF9E2E72069FDF716
:1028D000ABFD17A3D3E90023FDF746FCFEF7D0F8C4
:1028E0002061D7E72069FDF79FFD11A3D3E90023FD
:1028F000FDF73CFCF2E7A069FDF796FD0CA3D3E9D8
:102900000023FDF731FCFEF7BBF8A061C2E7A06928
:10291000FDF78AFD06A3D3E90023FDF727FCF2E7C4
:1029200001220F4B1A80B5E70022FAE770BD00BF05
:102930009A9999999999B93F004400402102002041
:102940001C0900205C090020003801402202002000
:102950004C0600200000C8420080BB440080BBC47D
:1029600030040020704700000023054A03614261E3
:10297000044A8361C0F8FC214363C36083607047ED
:10298000ACC527370040CE452DE9F8430268874B98
:102990009A4240F078814FF480718548FEF7A3FD9C
:1029A0004FF07E53834C844EC4F8F831C6F8F831AA
:1029B0004FF080435B6A00229BB2238023889BB246
:1029C000B3F5806F238886BFC3F5006301335B4294
:1029D0001BB2A3804FF080435A62A08800B2FEF77A
:1029E00059F97649FEF7AAF9A060A068E168FEF7F8
:1029F0009DF8E060E069E168FEF796F82062A08843
:102A000000B2FEF747F96E49FEF798F96062206A56
:102A1000FDF70AFD00F0EFFBA56AFEF73BF929463A
:102A2000FEF734FB68B1E3881BB253B9E36A0021B7
:102A30006363E06AFEF716FB002800F0988001232C
:102A4000E380606B216BFEF735FB002800F091807E
:102A5000D4F8FC01256B5B49FEF770F92946FEF7B7
:102A600065F82063606B216BFEF706FB08B1636BB2
:102A70002363636A54496366D4F8F001FEF712FADF
:102A8000D4F8F45101462846FEF74EF86325C4F801
:102A9000F40105F1170304EB83035A6805F11803E9
:102AA00004EB8303013D5A60F3D1606ED4F8F471F6
:102AB0004549FEF7F7F93946FEF738F8C4F8F4014E
:102AC000B4F80680414F0FFA88F3012B68D1606A91
:102AD0000021FEF7C7FA002862D03B8801339BB281
:102AE0003B803B889BB2032B03D9394BA3F8008072
:102AF0003D80616CA06CFEF717F8A064236C6364E2
:102B0000E36B2364A36BE363206B616AFEF70CF84D
:102B1000A063A06BA16CFEF709F8A0642069A16B0B
:102B2000FEF70CF9E064A569A06B616CFDF7FCFF92
:102B3000D4F83C80D4F84090074649464046FDF71B
:102B4000F3FF01463846FDF7F1FF2946FEF7F6F898
:102B500020656069A16CFEF7F1F81E4D6065606D3F
:102B60002946FEF7A7FA002836D065653BE0022328
:102B700066E7606B216BFEF77FFA00283FF479AFC0
:102B8000D4F8FC010F49FEF7D9F8256B0146284619
:102B9000FDF7CAFF2063606B216BFEF78BFA65E7D8
:102BA00000230B4A3B801380A3E700BF00080040CE
:102BB000000C01404C06002048040020836A033CBE
:102BC00048F582416F12033A0000C8422E040020EB
:102BD000320400200000A040394D606D2946FEF708
:102BE0004BFA0028C1D1E06C216D676DA56DFDF732
:102BF0009DFF3946FDF79AFF2946FDF797FF314BB8
:102C0000A0651B88304D9BB2012B55D1A06D0021D2
:102C1000FEF746FA002838D02C4FA06D3946FEF753
:102C200049FA00B1A76501224FF480612848FEF7F8
:102C300055FC00224FF400612548FEF74FFCA36DC0
:102C4000E365E06DFEF740FAFEF720F84FF07A51A9
:102C5000FEF774F8FEF738FA2D68E8631D4A13880A
:102C600001339BB2138063881B4A01339BB263809C
:102C7000738801339BB27380136801331360174A62
:102C8000136801331360BDE8F883154FA06D394612
:102C9000FEF7F2F900B1A76500224FF480610C48FD
:102CA000FEF71CFC01224FF400610948FEF716FCF8
:102CB000A36D03F10043C3E700222B685A63CDE7FD
:102CC0000000A0C0300400209C080020008C0C46AE
:102CD000000C01402C040020380400204C08002087
:102CE000008C0CC60E4B82B09A6942F001029A61C8
:102CF0009A6902F001020092009ADA6942F0805269
:102D0000DA61DB69074A03F080530193019B536842
:102D100023F0E06343F00073536002B0704700BFDC
:102D200000100240000001407047FEE7FEE7FEE7AA
:102D3000FEE7704770477047FEF71CBA0148FEF780
:102D4000D0BF00BF9C0800200148FEF7CABF00BFEB
:102D50005C0800200148FFF7B7BB00BF1C0900203A
:102D60000148FFF7B1BB00BF5C0900200F4B1A6898
:102D700042F001021A6059680D4A0A405A601A6806
:102D800022F0847222F480321A601A6822F48022BF
:102D90001A605A6822F4FE025A604FF41F029A60C9
:102DA0004FF00062034B9A60704700BF0010024072
:102DB0000000FFF800ED00E010B58CB000212422E7
:102DC00003A800F041FA00244FF080430F4803A904
:102DD00080E8180040F2FF73C3600123019402945D
:102DE000846004618461039305930993FFF788F875
:102DF00008B1FFF7B7FD01A9044801940294FFF759
:102E000079F908B1FFF7AEFD0CB010BDDC08002069
:102E10007FB51022002102A800F016FA0023144802
:102E2000144A009380E80C0048F69F4201938360A7
:102E3000C26003618361FFF72FF808B1FFF792FDCD
:102E40004FF4805302A90A480293FEF78DFE08B1A1
:102E5000FFF788FD00236946054800930193FFF7BB
:102E600049F908B1FFF77EFD07B05DF804FB00BF2C
:102E70005C0800200008004010B5044686B010220F
:102E8000002102A800F0E0F92368B3F1804F19D1C6
:102E900003F50433DA6902A942F00102DA61DA6962
:102EA000094802F001020092009A9A6942F0040275
:102EB0009A619B6903F004030193019B032302932E
:102EC000FEF72CFA06B010BD0008014007B50368F4
:102ED000154A934214D1154B1D20DA6942F00202C3
:102EE000DA610022DB69114603F002030093009BC4
:102EF000FEF776F91D20FEF7A7F903B05DF804FB95
:102F00000B4A9342F9D1094B1E20DA6942F00402C0
:102F1000DA610022DB69114603F004030193019B8F
:102F2000FEF75EF91E20E6E70004004000100240B4
:102F30000008004010B5044686B01022002102A807
:102F400000F082F922680C4B9A4213D103F5033347
:102F50009A6902A942F008029A619B69074803F046
:102F600008030193019B0323029302230393059318
:102F7000FEF7D4F906B010BD00040040000C01407B
:102F800010B58EB01022002103A800F05DF90024D6
:102F90001C2221460DEB02000194029400F054F92A
:102FA0002448254B846080E8180040F6C313046170
:102FB000C3608461FEF770FF08B1FFF7D3FC4FF4E4
:102FC000805303A91B480393FEF7CEFD08B1FFF71A
:102FD000C9FC1848FEF77AFF08B1FFF7C3FC0023CD
:102FE00001A9144801930293FFF784F808B1FFF791
:102FF000B9FC602307934FF434730893002308222D
:1030000007A90C4809930B93FEF7F0FF08B1FFF7EF
:10301000A9FC4FF4B4730C2207A906480893FEF7E5
:10302000E5FF08B1FFF79EFC0248FFF783FF0EB0F3
:1030300010BD00BF9C0800200004004008B54FF4FC
:10304000E13E0A480A4B0C2280E808400023426116
:103050008360C36003618361C361FFF743F918B103
:10306000BDE80840FFF77EBC08BD00BF1C0900207A
:103070000038014008B54FF4E13E0A480A4B0C22E3
:1030800080E80840002342618360C360036183617C
:10309000C361FFF727F918B1BDE80840FFF762BC2C
:1030A00008BD00BF5C09002000440040102210B59C
:1030B000044688B00DEB0200002100F0C5F823683B
:1030C000344A934236D1344B04A99A69334842F4C6
:1030D00080429A619A69002402F480420092009A28
:1030E0009A6942F008029A619B6903F00803019310
:1030F000019B402304930223059303230793FEF7C8
:103100000DF9802304A92548049305940694FEF73D
:1031100005F9234A25205368214643F0E06343F034
:10312000040353602246FEF75BF82520FEF78CF877
:1031300008B010BD1B4A9342FAD1174B04A9DA69B3
:10314000194842F40032DA61DA69002402F40032EC
:103150000292029A9A6942F004029A619B6903F012
:1031600004030393039B0423049302230593032383
:103170000793FEF7D3F8082304A90B48049305949A
:103180000694FEF7CBF8262022462146FEF728F8C3
:103190002620CBE70038014000100240000C01401F
:1031A000000001400044004000080140002103E00D
:1031B0000B4B5B58435004310A480B4B42189A4260
:1031C000F6D30A4A02E0002342F8043B084B9A4235
:1031D000F9D3FFF7CBFD00F013F8FFF7BBFA704708
:1031E000905C000800000020DC010020DC010020D1
:1031F000A0090020FEE70028B8BF40427047000049
:1032000070B500250C4E0D4CA41BA410A54209D18D
:1032100002F0A8FB00250A4E0A4CA41BA410A542EC
:1032200005D170BD56F8253098470135EEE756F8C0
:10323000253098470135F2E7885C0008885C000873
:10324000885C00088C5C000803460244934200D16D
:10325000704703F8011BF9E7002B2DE9F0471E46E4
:10326000BBBF03F100431E4600232D2388B0149FEB
:10327000129927F02007462F1446109DDDF84CA028
:103280000B7004D0452F00D10135022300E0032349
:1032900007AA049206AA03928DE828042246334620
:1032A00000F0E2FC472F804602D1119BDB0726D5B8
:1032B000462F08EB050911D198F80030302B0AD1C0
:1032C0000022002320463146FDF76AFB18B9C5F1FC
:1032D0000105CAF80050DAF80030994400220023B2
:1032E00020463146FDF75CFB38B93022079B9945F3
:1032F00005D9591C07911A70F8E7CDF81C90404683
:10330000079B159AA3EB0803136008B0BDE8F0878C
:103310000346F7B5002903F8022BB6BF2D222B2256
:1033200049420929427021DD0DF1070217460A269C
:1033300091FBF6F506FB1511092D01F1300102F89C
:10334000011C02F1FF34294609DC3031023A04F84D
:10335000011CBA421C4604D3201A03B0F0BD224619
:10336000E6E712F8011B03F8011BF2E730221C46C6
:10337000114404F8022B5970EEE700002DE9F04FDC
:1033800091B00C461A9F93461E46054601F00AFB73
:10339000036818460993FCF7DBFE00230E933B6895
:1033A0000A90073323F0070303F1080294F818800A
:1033B000D4F800A03A60D3E90023C4E91223D4F87A
:1033C0004C90A76C29F000430B934FF0FF32A64BB3
:1033D00038460B99FDF716FB002840F0F7814FF0B7
:1033E000FF32A14B38460B99FDF7EEFA002840F06A
:1033F000ED810022002338464946FDF7DBFA10B183
:103400002D2384F84330994B994FB8F1470F98BF5B
:103410001F4603234FF0000923612AF004032360B1
:1034200000965B460FAA2146284600F0DFF90130DE
:1034300040F09A804FF0FF3011B0BDE8F08F626825
:103440000EA8531C0DF1340E4AF4806341D10622BC
:10345000626000212360019363680DF133020590DF
:10346000029200933A464B460691CDF81080CDF873
:103470000CE02846FFF7F0FE08F0DF03472B074675
:1034800009D10D9BD81C02DB6268934259DDA8F17B
:1034900002085FFA88F8B8F1650F0D9936D801393E
:1034A000424604F150000D91FFF732FF0E9A81461B
:1034B0008318012A236102DC2268D10701D5013378
:1034C00023619DF83330002BAAD02D2384F843309C
:1034D000A6E7B8F1670F02D0B8F1470FB9D19AB19A
:1034E000002106910DF133018DE80C002360059059
:1034F0003A46CDF81080CDF80CE002914B462846B4
:10350000FFF7AAFE0746BCE70122A1E7B8F1660F64
:1035100019D1002963680CDD216113B92268D20733
:1035200002D501330B4423610D9B4FF00009A365C5
:10353000C7E713B92268D00701D50233F3E70123A7
:10354000F1E74FF067080D9B0E9A934205DB226866
:103550002361D107E8D50133E5E7002BCCBF012378
:10356000C3F102031344DEE723685A0507D4236935
:103570003A4659462846B04701302AD15AE7B8F1B1
:10358000650F40F2DC80D4E9120100220023FDF730
:1035900007FA002839D00123364A59462846B04751
:1035A00001303FF447AF0E9B0D9A9A4202DB23682D
:1035B000D8070ED50A9B099A59462846B0470130CC
:1035C0003FF438AF002704F11A080E9B013B9F42DD
:1035D00011DB23689F0708D5002704F11908E36869
:1035E0000F9A9B1A9F42C0F2E780E0680F9B9842B7
:1035F000B8BF184620E70123424659462846B0473F
:1036000001303FF417AF0137DFE70D9B002B33DCB0
:103610000123184A59462846B04701303FF40AAF03
:103620000D9B23B90E9B13B92368D907D1D50A9BEB
:10363000099A59462846B04701303FF4FBAE4FF097
:10364000000804F11A090D9B5B42984501DB0E9BB3
:103650008EE701234A4659462846B04701303FF4D9
:10366000E9AE08F10108EEE7FFFFEF7FC959000856
:10367000CD590008D95900080E9AA36D9A42A8BFE7
:103680001A46002A904636DC4FF0000A04F11A036D
:1036900028EAE8780B93D4F85890A9EB08039A45E8
:1036A00031DB0E9B0D9A9A4238DB2368DA0735D45A
:1036B0000E9B0D99A3EB0902A3EB01089045A8BF4F
:1036C0009046B8F1000F31DC002728EAE87804F1D1
:1036D0001A090D9A0E9B9B1AA3EB08039F42BFF693
:1036E00078AF01234A4659462846B04701303FF497
:1036F000A1AE0137EDE7134659463A462846B04792
:103700000130C1D196E601230B9A59462846B047AD
:1037100001303FF48FAE0AF1010ABCE70A9B099A17
:1037200059462846B0470130C2D183E6434607EBED
:10373000090259462846B0470130C5D17AE60E9AAB
:10374000012A01DCDB0734D501233A4659462846D5
:10375000B04701303FF46EAE0A9B099A594628469D
:10376000B04701303FF466AED4E9120100220023D5
:10377000FDF716F950B1002704F11A080E9B013B22
:103780009F420CDB4B4604F15002F2E60E9B7A1C82
:10379000013B59462846B0470130F3D14AE60123A0
:1037A000424659462846B04701303FF443AE013700
:1037B000E4E701233A46ECE701234246594628460E
:1037C000B04701303FF436AE013708E73A464B4682
:1037D00038464946FDF716F900283FF430AE014B54
:1037E000014F12E6D1590008D55900082DE9F047DC
:1037F00091461F468A680B6906469342B8BF134636
:10380000C9F8003091F843200C46DDF8208012B151
:103810000133C9F800302368990642BFD9F8003057
:103820000233C9F80030256815F0060507D104F108
:10383000190AE368D9F800209B1A9D422ADB94F804
:1038400043302268003318BF012392062FD404F1BD
:10385000430239463046C047013022D02368E5682C
:1038600003F00603042B18BF0025D9F800204FF001
:10387000000908BFAD1AA368226908BF25EAE575EB
:103880009342C4BF9B1AED181A344D451BD100203A
:10389000BDE8F0870123524639463046C047013023
:1038A00003D14FF0FF30BDE8F0870135C1E730208C
:1038B000E11881F843005A1C94F845102244023361
:1038C00082F84310C3E70123224639463046C047F9
:1038D0000130E6D009F10109D7E700002DE9F043F6
:1038E00017460A7E85B06E2A984606460C460C9B03
:1038F00001F1430E00F0BC801AD8632A2ED00AD8FA
:10390000002A00F0C880582A00F08A8004F142059D
:1039100084F842202AE0642A01D0692AF6D121687D
:103920001A6811F0800F23D0111D1960136827E069
:10393000732A00F0B48008D86F2A2AD0702AE5D103
:103940000A6842F020020A6003E0752A21D0782A32
:10395000DCD178226F4984F8452064E01A6801F1CF
:103960004205111D1960136884F842300123A3E059
:1039700011F0400F02F104011960D7D0B2F9003004
:10398000002B03DA2D225B4284F8432062490A228D
:1039900017E02068196810F0800F03D0081D186028
:1039A0000B6806E010F0400F01F104001860F7D03A
:1039B0000B886F2A14BF0A2208225749002084F876
:1039C00043006568002DA560C0F29C80206820F04F
:1039D00004002060002B3FD1002D40F095807546FB
:1039E000082A0BD12368DA0708D5236962689A424E
:1039F000DEBF302305F8013C05F1FF35AEEB0503D2
:103A00002361CDF800803B4603AA21463046FFF7EC
:103A1000EDFE013055D14FF0FF3005B0BDE8F08329
:103A200081F845203C492268186812F0800F00F1A7
:103A300004051D6001D0036802E05506FBD503882C
:103A4000D00744BF42F0200222601BB9226822F056
:103A5000200222601022B1E77546B3FBF2F002FBB0
:103A60001033CB5C05F8013D03460028F5D1B7E7DC
:103A700008681A6810F0800F496904D0101D18609A
:103A80001368196007E010F0400F02F1040018609D
:103A90001368F6D01980002375462361B1E71A68D0
:103AA000111D1960156800216268284600F090FF1A
:103AB00008B1401B606063682361002384F84330D1
:103AC0009FE723692A4639463046C0470130A2D0D5
:103AD00023689B0707D5002504F11909E368039AB9
:103AE0009B1A9D4205DBE068039B9842B8BF1846CD
:103AF00093E701234A4639463046C04701308AD011
:103B00000135EBE7002BA7D10B7804F1420584F8CF
:103B1000423065E7EC590008DB5900080FB40A4B46
:103B200013B51C6824B1A36913B9204600F0B0FE98
:103B300005AB049AA1682046019301F013FB02B083
:103B4000BDE8104004B070470C0000202DE9F74F8D
:103B500003690C6980469C4200F38280013C01F1BC
:103B6000140700F1140657F8245056F824000135C4
:103B7000B0FBF5F54FEA840E06EB0E0307EB0E09DA
:103B800001938DB34FF0000A3846B446D34650F83F
:103B9000042B93B205FB03A3120C4FEA134A05FB57
:103BA00002A29BB2ABEB0303BCF800B04FEA124A8F
:103BB0005B441FFA82FBDCF800208145CBEB12420C
:103BC00002EB23429BB243EA02434FEA224B4CF8FA
:103BD000043BDCD256F80E3033B9019B043B9E42C5
:103BE0001A4631D3C8F81040404601F012F90028B7
:103BF00026DB30464FF0000E013557F8041BD0F895
:103C000000C08BB2AEEB03031FFA8CF213440A0C14
:103C1000C2EB1C4202EB23429BB243EA0243B9458A
:103C20004FEA224E40F8043BE7D256F8242006EB38
:103C300084032AB9043B9E421A460BD3C8F81040AD
:103C4000284603B0BDE8F08F1268043B002AC9D1B2
:103C5000013CC4E71268043B002AEFD1013CEAE7CB
:103C60000020EEE7000000002DE9F04F466A95B015
:103C70000446219DCDE902233EB9102000F0A0FEAC
:103C80006062466086600660C660636A196851B10A
:103C90005A68012393404A608B60204600F0E5FE9D
:103CA0000022636A1A60039B002BB7BF0123002325
:103CB0002B60039BAEBF2B6023F000430393DDF822
:103CC0000C90AB4B33EA09031BD142F20F73209ADD
:103CD0001360029B23B9C9F31300002800F0838509
:103CE000229B53B9A34B21E0A34B06930833229A9E
:103CF0001360069815B0BDE8F08F9E4B0693033312
:103D0000F5E7DDE902670022002330463946FCF77B
:103D100047FE804660B10123209A1360229B002B4E
:103D200000F05E85954B229A1360013B0693E0E715
:103D300012AB019313AB009332463B46204601F091
:103D4000E1F8C9F30A558246002D7DD03046C7F30D
:103D5000130343F07F5141F44011A5F2FF35CDF834
:103D600040800022864BFCF7FFF97BA3D3E90023B8
:103D7000FCF7AEFB7AA3D3E90023FCF7F7F906467C
:103D800028460F46FCF73EFB77A3D3E90023FCF758
:103D90009FFB02460B4630463946FCF7E7F90646DC
:103DA0000F46FCF745FE0022834600233046394685
:103DB000FCF700FE58B15846FCF724FB02460B46C0
:103DC00030463946FCF7ECFD08B90BF1FF3BBBF17F
:103DD000160F58D8DDE902236A4901EBCB01D1E97E
:103DE0000001FCF705FE00284FD000230BF1FF3B3C
:103DF0000D93129B5D1B6B1E079343BF0023C5F100
:103E0000010807934FF00008BBF1000F3FDB079B51
:103E1000CDF830B05B440793002308931E9B092B19
:103E200000F2B480052BC4BF043B1E931E9BC8BF89
:103E30000026A3F10203D8BF0126032B00F2B280B3
:103E4000DFE803F084862D78139B129D1D4405F254
:103E50003243202B11DD029A05F21240C3F14003D8
:103E600022FA00F009FA03F31843FCF7BBFA012326
:103E7000A1F1F871013D109373E7C3F12000029B9B
:103E800003FA00F0F1E70123B2E70D90B1E7CBF1BF
:103E9000000308930023A8EB0B080C93BEE7012353
:103EA00009931F9B002B40F38080994604930022C6
:103EB0000421656A6A6001F114029A427AD969683C
:103EC000204600F09EFD636A28601B68B9F10E0F62
:103ED000069300F2F080002E00F0ED80DDE9022371
:103EE000BBF1000FCDE90E2379DD264A0BF00F035D
:103EF0004FEA2B1602EBC303F006D3E90023CDE90A
:103F00000A235CD5DDE90E011F4B0325D3E9082305
:103F1000FCF708FCCDE9020106F00F061A4F002E4F
:103F20004FD1DDE90A23DDE90201FCF7FBFBCDE916
:103F300002016EE0012309931F9B5B4403F1010919
:103F400004934B46012BB8BF0123B0E70023A7E73A
:103F50000023F0E7AFF3008061436F63A787D23F90
:103F6000B3C8608B288AC63FFB799F501344D33F68
:103F70000000F07F065A0008FD590008DA590008D1
:103F80000000F83F985A0008705A000801260023E4
:103F900009961E934FF0FF33002204939946122393
:103FA0001F9284E701230993F4E7012304939946C0
:103FB0001A46F5E76A68490001326A607BE7022524
:103FC000ACE7F10708D5DDE90A01D7E90023FCF7E2
:103FD0007FFACDE90A010135761008379FE700F036
:103FE000A580DDE90E01CBF10006A24B06F00F0221
:103FF00003EBC203D3E90023FCF76AFA022500238E
:10400000CDE902019C4F3611002E40F08480002B38
:104010008DD10D9B002B00F08B80DDE90223CDE9D3
:104020000A23DDE90A010022944BFCF7C3FC0028B7
:104030007ED0B9F1000F7BD0049B002B37DDDDE98A
:104040000A0100228E4BFCF743FACDE90201049EDF
:104050000BF1FF3701352846FCF7D4F9DDE90223DF
:10406000FCF736FA874B0022FCF780F8CDE90A010D
:104070000B9BA3F150750B95002E5CD1DDE902017D
:104080000022814BFCF770F80A9A2B46CDE9020119
:10409000FCF7AEFC002840F0F782DDE902010A9A45
:1040A00005F10043FCF786FC002840F0EB82DDE9D7
:1040B0000E23CDE90223139B002BC0F25081BBF1EC
:1040C0000E0F00F34C816B4B03EBCB03D3E90023C2
:1040D000CDE904231F9B002B80F2DA80B9F1000F99
:1040E00000F3D68040F0CD82DDE904010022664B6A
:1040F000FCF7EEF9DDE90223FCF770FC4E464F4673
:10410000002840F0A482069B069A5D1C31230BF127
:10411000010B13709FE2F20705D5D7E90023FCF7E6
:10412000D7F901230135761008376DE7022570E7CE
:104130005F464E468FE7069A4E4B32441192099ADB
:10414000711E002A48D003EBC103D3E900230020ED
:104150004E49FCF7E7FADDE90A23FCF705F8CDE95B
:104160000A01069DDDE90201FCF762FC0646FCF748
:1041700049F902460B46DDE90201FBF7F5FFDDE9EF
:104180000A23303605F8016BCDE90201FCF712FC79
:10419000002864D1DDE9022300203849FBF7E4FF61
:1041A000DDE90A23FCF706FC002840F0B980119BEA
:1041B0009D423FF47CAFDDE90A010022304BFCF761
:1041C00087F90022CDE90A01DDE902012C4BFCF759
:1041D0007FF9CDE90201C5E703EBC101D1E9000197
:1041E000DDE90A23FCF774F9CDE90A01069DDDE952
:1041F0000201FCF71DFC0646FCF704F902460B46DB
:10420000DDE90201FBF7B0FF3036119B05F8016BC9
:10421000AB42CDE902014FF0000224D11B4BDDE996
:104220000A01FBF7A3FF02460B46DDE90201FCF79A
:10423000DFFB002874D1DDE90A2300201349FBF7D6
:1042400093FF02460B46DDE90201FCF7B3FB0028B1
:104250003FF42DAF15F8013C6A1E302B01D0BB4650
:104260004DE01546F6E7064BFCF732F9CDE90201C1
:10427000BDE700BF985A0008705A00080000F03FE0
:104280000000244000001C40000014400000E03FFB
:10429000069DDDE90267DDE9042330463946FCF777
:1042A00041FAFCF7C5FB8046FCF7ACF8DDE90423D6
:1042B000FCF70EF902460B4630463946FBF754FF31
:1042C00008F1300605F8016B069E0246AE1BB145AB
:1042D0000B4637D1FBF74AFF06460F4602460B4610
:1042E000DDE90401FCF766FBC8B9DDE904013246EB
:1042F0003B46FCF755FB10B118F0010F0FD15146AA
:10430000204600F0B2FB0023209A2B700BF1010332
:104310001360229B002B3FF4ECAC1D60E9E45F4688
:1043200015F8012C6B1E392A06D1069A9A4207D13C
:1043300030231370134601371A7801321A708EE752
:104340001D46EDE70022B54BFCF7C2F80022002322
:1043500006460F46FCF724FB00289CD0CFE7099ABD
:10436000002A00F029811E9A012A00F30E81109A7A
:10437000002A00F0068103F233434546089E079A5F
:1043800001211A4420469844079200F00EFC07468B
:10439000002D0BDD079B002B08DDAB42A8BF2B4691
:1043A000079AA8EB0308ED1AD31A0793089BFBB1F1
:1043B000099B002B00F00481002E11DD39463246A6
:1043C000204600F087FC524601460746204600F092
:1043D000F5FB51460A90204600F047FB0A9B9A469F
:1043E000089B9A1B04D05146204600F073FC82467D
:1043F0000121204600F0D9FB0C9B0646002B40F320
:10440000E1801A460146204600F064FC1E9B0646E9
:10441000012B40F3DA8000230893336906EB830312
:10442000186900F074FBC0F12000079B184410F0DD
:104430001F0000F0F080C0F12003042B40F3E28065
:10444000079BC0F11C008044054403440793B8F166
:10445000000F05DD51464246204600F089FC8246A9
:10446000079B002B05DD31461A46204600F080FCF4
:1044700006460D9B002B00F0D3803146504600F0DD
:10448000C8FC002880F2CC80002351460A22204636
:1044900000F002FB099B0BF1FF3B8246002B00F072
:1044A000A981002339460A22204600F0F5FA049B30
:1044B0000746002B03DC1E9B022B00F3B980002D66
:1044C00005DD39462A46204600F052FC0746089B87
:1044D000002B00F010817968204600F092FA054622
:1044E0003A6907F10C01023292000C3000F07EFABA
:1044F00001222946204600F03BFC07970746029B15
:10450000DDF8188003F00103089331465046FFF7A9
:104510001DFB0799054600F13009504600F079FC73
:104520003A4602903146204600F08DFCC3680246B0
:10453000002B40F0E28001460990504600F069FCF3
:104540000346099A11462046099300F08EFA099B0A
:10455000002B40F0D4801E9A002A40F0D080089AA8
:10456000002A40F0CC80B9F1390F00F0E880029BBE
:10457000002B01DD05F1310908F1010588F80090F3
:104580006BE0129BC3F13603F7E6089B09F1FF3697
:10459000B342B7BF089B9E1BF21A0C9BBFBF089685
:1045A0009B180C930026B9F1000FB9BFA8EB0905C1
:1045B000002345464B46E2E6089E4546099FE7E64E
:1045C000089A10E71E9B012B18DC029BB3B9039BD2
:1045D000C3F31303A3B9039B23F000431B0D1B0577
:1045E0002BB1079B08F101080133079301230893BE
:1045F0000C9B002B7FF411AF012016E70023F6E798
:10460000029BF4E73FF423AF079A1C331A44984403
:104610001D4413461AE70346F6E700BF0000244096
:10462000B9F1000F33DC1E9B022B30DDCDF810906A
:10463000049B63B931460522204600F02DFA01465D
:104640000646504600F0E5FB00283FF75CAD1F9B97
:10465000069D6FEA030B002307933146204600F0C6
:1046600004FA002F3FF44BAE079B2BB1BB4203D0A3
:104670001946204600F0F9F93946204600F0F5F9D0
:104680003DE600263746E2E7BB4637463BE5099B59
:10469000CDF81090002B7FF412AF069D31465046A6
:1046A000FFF754FA069B00F1300905F8019B049AC4
:1046B000EB1A9A4200F38180069B012AACBF9B183B
:1046C000013398460023079351460122204600F00B
:1046D0004FFB3146824600F09CFB002834DC02D1BF
:1046E00019F0010F30D1454615F8013C6A1E302BF8
:1046F000B3D11546F8E73846FFE6012322E7029AD0
:10470000002A04DB28D11E9A32BB089A22BB002B58
:104710007FF732AF51460122204600F029FB314697
:10472000824600F076FB002805DC7FF425AF19F007
:10473000010F3FF421AFB9F1390F7FF41BAF3923DB
:1047400008F1010808F8013C454615F8013C6A1ECD
:10475000392B3AD001333FE0002B08F1010505DD8C
:10476000B9F1390FEBD009F1010907E7069B049A6B
:10477000EB1A9342A84605F8019CA5D051460023A8
:104780000A22204600F088F9079B8246BB424FF080
:104790000A024FF000030799204604D100F07CF98B
:1047A00007900746B1E600F077F9002307900A2248
:1047B0003946204600F070F9F3E7514600230A22FB
:1047C000204600F069F9824668E7069B934205D1CE
:1047D0003123069A0BF1010B13703EE71546B4E73F
:1047E000094BFFF7A3BA229B002B7FF47DAA074B4E
:1047F000FFF79CBA049B002B3FF74FAF1E9B022B89
:104800007FF74BAF14E700BFD9590008FD590008E6
:10481000014900F0A9B800BF0D570008002310B5EA
:10482000044603604360836081814366C281036103
:1048300043618361194608225C30FEF705FD054B94
:1048400024626362044BA362044BE362044B236360
:1048500010BD00BFB1530008D35300080B5400082B
:104860002F54000870B568254A1E55430E4605F1C1
:10487000740100F0F1FB044640B1002180E84200E1
:104880000C30A06005F16802FEF7DEFC204670BD2A
:10489000836910B5044633BB8364C3640365124B5C
:1048A000124A1B688262984204BF0123836100F0B0
:1048B0001FF86060204600F01BF8A060204600F062
:1048C00017F80022E06004216068FFF7A7FF0122CB
:1048D0000921A068FFF7A2FF02221221E068FFF77A
:1048E0009DFF0123A36110BD6C5A00081148000808
:1048F000F8B51C4B07461E68B36913B93046FFF77D
:10490000C7FF4836B4687368013B03D5336833B1D9
:104910003668F7E7B4F90C506DB16834F4E7042158
:104920003846FFF79FFF30600028F1D10C23044682
:104930003B602046F8BD4FF6FF73E38101236566B7
:10494000A3812560A560656025616561A561082278
:10495000294604F15C00FEF777FC6563A563A56456
:10496000E564E6E76C5A00082DE9F843804689467D
:10497000002600F1480414B93046BDE8F883A56864
:104980006768013F01D52468F5E7AB89012B07D99A
:10499000B5F90E30013303D029464046C8470643D7
:1049A0006835EEE7044B1B68186A044B002808BF03
:1049B0001846F030704700BF0C0000207000002047
:1049C000024B0146186800F047BB00BF0C000020F6
:1049D00010B5C9B202449042034601D1002010BD77
:1049E0001C7801308C42F6D1184610BD10B5431E1C
:1049F0000A44914200D110BD11F8014B03F8014F58
:104A0000F7E770B5456A04460E463DB91020FFF73A
:104A1000D7FF6062456085600560C560656AEB68C8
:104A200083B1636ADB6853F82600B8B9012101FA43
:104A300006F56A1D9200204600F0B3FA60B14660A8
:104A400085600EE021220421204600F0AAFA636A64
:104A5000E860DB68002BE4D1002070BD026843F8F9
:104A6000262000230361C36070BD70B5446A06460A
:104A70000D463CB91020FFF7A3FF706244608460CC
:104A80000460C4603DB1736A6A68DB6853F8221041
:104A9000296043F8225070BD2DE9F0411F460646BB
:104AA0000C4600230D6901F1140EDEF800000133FD
:104AB00081B202FB0171000C0F0C02FB007089B285
:104AC00001EB00419D424FEA10474EF8041BECDC1D
:104AD000D7B1A3689D4212DB616830460131FFF710
:104AE00090FF8046226904F10C01023292000C30E2
:104AF000FFF77CFF21463046FFF7B7FF444604EB43
:104B0000850301355F6125612046BDE8F081020C17
:104B100012040346B2B90304102013F07F4F04BF00
:104B20001B02083013F0704F04BF1B01043013F058
:104B3000404F04BF9B000230002B06DB5B0003D517
:104B4000013070470020E8E72020704703680146E5
:104B500013F007020BD0DA0723D4980749BF5B088C
:104B60009B0801200B605CBF0B600220704798B26D
:104B7000A8B910201B0C13F0FF0F04BF1B0A08304C
:104B80001A0704BF1B0904309A0704BF9B080230B0
:104B9000DA0702D45B0806D001300B60704710467C
:104BA000E9E7002070472020704710B50C4601212E
:104BB000FFF727FF01224461026110BD2DE9F74F85
:104BC00014460A69236989469A42BEBF0B46A1462C
:104BD0001C46D9F81070D4F810A0D9F80830D9F8CC
:104BE000041007EB0A069E42C8BF0131FFF709FF18
:104BF00000F114052B46002205EB8608434516D329
:104C000004F1140209F1140102EB8A0301EB870796
:104C10000193019C134694420CD8002E03DD58F8F2
:104C2000043D002B54D0066103B0BDE8F08F43F87B
:104C3000042BE3E7B3F800A00432BAF1000F20D050
:104C4000AE4689464FF0000C59F8044BBEF800B050
:104C5000A3B20AFB03B34FEA144BDEF800406344EF
:104C60004FEA144C0AFB0BC404EB13449BB243EA17
:104C700004434F454FEA144C4EF8043BE4D8CEF8B9
:104C800000C032F8029CB9F1000F1FD0AE468C462E
:104C90004FF0000A2B68BCF80040BEF802B09BB28F
:104CA00009FB04B4A24443EA0A434EF8043B5CF80F
:104CB000043BBEF800401B0C09FB0343674503EBB4
:104CC0001A434FEA134AE6D8CEF800300435A0E77D
:104CD000013EA2E72DE9F843154612F0030206460D
:104CE0000F4607D0214C013A002354F82220FFF749
:104CF000D3FE0746AD1035D0746A3CB91020FFF7DB
:104D00005FFE7062446084600460C460D6F82480F2
:104D1000D8F808404CB940F271213046FFF745FF02
:104D200000230446C8F8080003604FF00008EB07B2
:104D30000AD5394622463046FFF740FF81463946BC
:104D40003046FFF792FE4F466D100BD0206838B901
:104D5000224621463046FFF731FF2060C0F8008030
:104D60000446E4E73846BDE8F88300BF605B00080E
:104D70002DE9F0470C460746164623694FEA621AAA
:104D80000AEB03094968A36809F10105AB4231DB6D
:104D90003846FFF736FE00228046114600F1140324
:104DA00052452ADB20692AEAEA7A04F1140116F056
:104DB0001F0203EB8A0301EB800E22D00020C2F118
:104DC000200C0E689640304343F8040B51F8040B56
:104DD0008E4520FA0CF0F4D8186008B109F10205EC
:104DE000013D3846C8F810502146FFF73EFE4046C8
:104DF000BDE8F08701315B00C8E743F822100132BB
:104E0000CEE7043B51F8042B8E4543F8042FF9D824
:104E1000E6E703690A6930B59B1A0CD19200143099
:104E200014318418114454F8045D51F8042D95424E
:104E300003D005D30123184630BDA042F3D3FAE7CF
:104E40004FF0FF33F7E72DE9F0470D4607461146CF
:104E500028461446FFF7DDFF061E08D131463846C6
:104E6000FFF7CFFD012346610361BDE8F087A4BFD2
:104E700023462C4638466168A6BF1D4600260126FB
:104E8000FFF7BFFD4FF0000CC6602B69266904F1E7
:104E9000140205F1140902EB860709EB830800F1FF
:104EA000140152F804AB59F8045B1FFA8AF3634407
:104EB000ACB21B1B2C0CC4EB1A4404EB23449BB276
:104EC0004FEA244CC84543EA0444964641F8044B53
:104ED000E7D8BE4505D351F8043D8BB10661BDE866
:104EE000F0875EF8044BA2B26244131403EB144340
:104EF00092B242EA03424FEA234C41F8042BE8E71E
:104F0000013EE8E72DE9F3411C4601219046089E49
:104F1000099DFFF776FDC4F31302C4F30A54074654
:104F200034BB0192B8F1000F27D002A840F8088DD9
:104F3000FFF70CFE0099F0B1019AC0F1200302FACC
:104F400003F30B43C2407B610192019B002B14BF12
:104F500002210121BB613961C4B1A4F2334404448C
:104F60003460C0F135002860384602B0BDE8F081F9
:104F700042F48012D5E77961E7E701A8FFF7E6FD83
:104F80000121019B39617B612030E5E7A0F23240CD
:104F900007EB810330601869FFF7B9FDC0EB4110E2
:104FA000E1E738B502FB01F4214600F055F805466B
:104FB00018B122460021FEF747F9284638BD000007
:104FC00038B50546002943D051F8043C0C1F002B8E
:104FD000B8BFE41800F04CFC1E4A1368104633B901
:104FE000636014602846BDE8384000F042BCA3422C
:104FF0000BD921686218934201BF1A685B68521886
:10500000226063600460EDE713465A680AB1A24269
:10501000FAD919685818A0420BD1206801445818D1
:1050200082421960DED110685268014419605A60EA
:10503000D8E702D90C232B60D4E7206821188A42D4
:1050400001BF116852680918216062605C60C9E79D
:1050500038BD00BFF801002070B5CD1C25F0030558
:1050600008350C2D38BF0C25002D064601DBA94262
:1050700003D90C233360002070BD00F0F9FB234AF4
:105080001468214691B9224C23681BB9304600F0C0
:105090007FF920602946304600F07AF9431C26D17A
:1050A0000C233046336000F0E4FBE4E70B685B1B45
:1050B0001AD40B2B0FD90B60CC18CD50304600F012
:1050C000D8FB04F10B00231D20F00700C31A1BD0EE
:1050D0005A42E25070BD8C420BBF63684B6813604C
:1050E000636018BF0C46E9E70C464968CAE7C41C70
:1050F00024F00304A04205D0211A304600F048F9FC
:105100000130CDD02560D9E770BD00BFF801002087
:10511000FC010020936810B4013B002B936008DA77
:105120009469A34202DBCBB20A2B02D110BC00F07F
:1051300083B91368581C10601970C8B210BC70474E
:10514000F8B506460F461446D518AC4201D10020EA
:1051500007E03A4614F8011B3046FFF7DBFF431C1B
:10516000F3D1F8BD2DE9F04F9DB00C4617460393DF
:10517000064618B183690BB9FFF78AFB7C4B9C424A
:1051800057D17468A38918075DD52369002B5AD0BD
:105190000023099320238DF8293030234FF0010B91
:1051A0008DF82A30B846454615F8013B002B55D1FD
:1051B000B8EB070A0BD053463A4621463046FFF774
:1051C000BFFF013000F0C480099B5344099398F855
:1051D0000030002B00F0BC8000234FF0FF3204931E
:1051E0000793059206938DF853301A930522297878
:1051F0006048FFF7EDFB05F10108049B002831D161
:10520000D90644BF20228DF853201A0744BF2B2211
:105210008DF853202A782A2A2CD000210A20079AB8
:10522000A84698F800300135303B092B6DD971B391
:1052300026E0514B9C4201D1B468A3E74F4B9C42FE
:1052400008BFF4689EE72146304600F059F900286F
:105250009ED04FF0FF301DB0BDE8F08F252BA7D0BA
:10526000A846A0E7434A4546801A0BFA00F01843C7
:105270000490BBE7039A111D12680391002A01DB19
:10528000079204E0524243F002030792049398F815
:1052900000302E2B10D198F8013008F101012A2B93
:1052A00037D1039B08F102081A1D1B680392002BDB
:1052B000B8BF4FF0FF330593314D032298F800102B
:1052C0002846FFF785FB40B14023401B03FA00F05E
:1052D000049B08F101080343049398F80010062288
:1052E000284808F101078DF82810FFF771FB002806
:1052F00034D0254B03BB039B073323F0070308334C
:105300000393099B4B4409934CE700FB02320121B4
:1053100086E700230A2518460593884698F800205A
:105320000131303A092A03D9002BC5D00590C3E7D3
:1053300005FB00200123F0E703AB00932246134B4B
:1053400004A93046FEF71AF8B0F1FF3F8146D8D1E4
:10535000A3895B063FF57DAF09987CE703AB00931B
:1053600022460A4B04A93046FEF7B8FAECE700BF24
:105370002C5A00086C5B00084C5A00080C5A0008B4
:10538000725B0008765B00087D330008415100081D
:1053900038B50023054C05460846236000F0D4FAD2
:1053A000431C02D1236803B12B6038BD9C09002047
:1053B00010B50C46B1F90E1000F05CFA0028ABBF36
:1053C000636DA3891B1823F48053ACBF6365A3816D
:1053D00010BD2DE9F0411F468B890546DB050C46C3
:1053E000164605D502230022B1F90E1000F0B8F9D7
:1053F000A389324623F48053A381B4F90E103B46AF
:105400002846BDE8F04100F069B810B50C46B1F986
:105410000E1000F0A5F9431CA38915BF606523F4A5
:10542000805343F48053A38118BFA38110BDB1F909
:105430000E1000F0D3B80000F8B50E46144605462D
:1054400018B183690BB9FFF723FA214B9C422AD18B
:105450006C68A369A360A3891A072ED5236963B377
:1054600023692068F6B2C01A63693746984204DBA4
:105470002146284600F04AF928BBA3680130013BC9
:10548000A36023685A1C22601E706369984204D08E
:10549000A389DB0719D50A2E17D12146284600F02B
:1054A00035F990B10FE00B4B9C4201D1AC68D0E7CD
:1054B000094B9C4208BFEC68CBE72146284600F028
:1054C0001FF80028CCD04FF0FF373846F8BD00BF9A
:1054D0002C5A00084C5A00080C5A000838B50546EA
:1054E000084611460022054C22601A46FDF7FCF8DA
:1054F000431C02D1236803B12B6038BD9C090020F6
:10550000324B70B51D6806460C4625B1AB6913B920
:105510002846FFF7BDF92E4B9C420FD16C68B4F9B9
:105520000C309AB215072CD4D00611D4092232605F
:1055300043F04003A3814FF0FF3070BD254B9C42E8
:1055400001D1AC68EBE7244B9C4208BFEC68E6E76E
:10555000510712D5616B41B104F14403994202D065
:105560003046FFF72DFD00236363A38923F0240356
:10557000A3810023636023692360A38943F00803A8
:10558000A38123694BB9A38903F42073B3F5007F8A
:1055900003D02146304600F019F9A28912F0010328
:1055A0000CD00023A36063695B42A361236953B9F4
:1055B000B4F90C3013F08000BAD170BD920758BF17
:1055C0006369A360F2E70020F7E700BF0C0000204A
:1055D0002C5A00084C5A00080C5A000838B5002311
:1055E000054C05460846236000F086F9431C02D1AD
:1055F000236803B12B6038BD9C0900208A892DE9FE
:10560000F041054610070C465AD44B68002B05DCC8
:105610000B6C002B02DC0020BDE8F081E66A002E56
:10562000F9D0002312F480522F682B6033D0606DC4
:10563000A3895A0705D56368C01A636B0BB1236C45
:10564000C01A00230246E66A216A2846B047431C76
:10565000A38906D129681D294BD82B4ACA40D607F1
:1056600047D5002262602269D904226004D5421C19
:1056700001D12B6803B96065616B2F600029CAD026
:1056800004F14403994202D02846FFF799FC002018
:105690006063BDE8F081216A01232846B047411CC0
:1056A000C6D12B68002BC3D01D2B01D0162B01D1E6
:1056B0002F60B0E7A38943F04003A381BDE8F081E8
:1056C0000F69002FA7D0930718BF00230E6808BFEB
:1056D0004B69A6EB07080F608B60B8F1000F9ADDED
:1056E00043463A46216A2846A66AB047002807DCA6
:1056F000A38943F04003A3814FF0FF30BDE8F08160
:105700000744A8EB0008E8E70100402038B50B6922
:1057100005460C46DBB118B183690BB9FFF7B8F841
:105720000C4B9C4209D16C68B4F90C307BB121461A
:105730002846BDE83840FFF761BF074B9C4201D1C6
:10574000AC68F1E7054B9C4208BFEC68ECE7002031
:1057500038BD00BF2C5A00084C5A00080C5A0008EB
:1057600038B50546084611460022054C22601A4607
:1057700000F0DAF8431C02D1236803B12B6038BD76
:105780009C09002070B50E46B1F90E1090B00029AA
:1057900014461D4607DA00232B60B3891A0610D47D
:1057A0004FF480630EE001AA00F084F80028F2DBD9
:1057B000029A02F47042A2F500535A425A412A60FA
:1057C000EEE740230020236010B070BD8B8973B5D5
:1057D0009D0706460C4607D504F147032360236165
:1057E0000123636102B070BD01AB6A46FFF7CAFFD7
:1057F000009905463046FFF72FFC48B9B4F90C3044
:105800009A05EFD423F0030343F00203A381E3E7F7
:105810000D4BB362A389206043F08003A381009BFA
:1058200020616361019B5BB1B4F90E10304600F05A
:1058300053F828B1A38923F0030343F00103A381A4
:10584000A3891D43A581CDE71148000882B001B9A5
:1058500001A942B14BB113780B601278101C18BF2C
:10586000012002B070471046FBE76FF00100F8E737
:105870007047704738B50546084611460022054C6A
:1058800022601A4600F058F8431C02D1236803B185
:105890002B6038BD9C09002049B1FF2A8BBF8A23A9
:1058A0000A700360012088BF4FF0FF307047084640
:1058B0007047000038B50023064C054608461146DF
:1058C000236000F021F8431C02D1236803B12B6050
:1058D00038BD00BF9C09002038B50023054C0546A3
:1058E0000846236000F018F8431C02D1236803B176
:1058F0002B6038BD9C0900205822024B4FF0FF302E
:105900001A6070479C0900205822024B4FF0FF306C
:105910001A6070479C0900205822024B00201A6030
:10592000704700BF9C0900205822024B4FF0FF3007
:105930001A6070479C0900205822024B4FF0FF303C
:105940001A6070479C090020044B0246196809B987
:1059500003491960186802441A6070470002002069
:10596000A0090020F8B500BFF8BC08BC9E467047EF
:0C597000F8B500BFF8BC08BC9E467047AC
:1059800002030405060708090A0B0C0D0E0F101080
:105990006B703A25342E32662C20206B643A253405
:1059A0002E32662C2076656C3A25342E32660A0D2E
:1059B00000000000000000000001020304060708C8
:1059C000090000000001020304494E4600696E66AA
:1059D000004E414E006E616E003000303132333483
:1059E0003536373839414243444546003031323349
:1059F00034353637383961626364656600496E66EE
:105A0000696E697479004E614E000000000000006C
:105A10000000000000000000000000000000000086
:105A20000000000000000000000000000000000076
:105A30000000000000000000000000000000000066
:105A40000000000000000000000000000000000056
:105A50000000000000000000000000000000000046
:105A60000000000000000000000000001000002006
:105A70000080E03779C34143176E05B5B5B893464A
:105A8000F5F93FE9034F384D321D30F94877825A16
:105A90003CBF737FDD4F1575000000000000F03F34
:105AA00000000000000024400000000000005940F9
:105AB0000000000000408F40000000000088C3404C
:105AC00000000000006AF8400000000080842E41C1
:105AD00000000000D01263410000000084D797410D
