:020000040800F2
:100000000000022091210008C11C0008C31C000848
:10001000C51C0008C71C0008C91C0008000000001F
:10002000000000000000000000000000CB1C0008E1
:10003000CD1C000800000000CF1C0008D11C0008E7
:10004000E1210008E1210008E1210008E121000888
:10005000E1210008E1210008E1210008E121000878
:10006000E1210008E1210008E1210008E121000868
:10007000E1210008E1210008E1210008E121000858
:10008000E1210008E1210008E1210008E121000848
:10009000E1210008E1210008E1210008E121000838
:1000A000E1210008E1210008E1210008E121000828
:1000B000E1210008E1210008E1210008E121000818
:1000C000E1210008E1210008E1210008E121000808
:1000D000E1210008E1210008E1210008E1210008F8
:1000E000E1210008E1210008E1210008E1210008E8
:1000F000E1210008E1210008E1210008E1210008D8
:10010000E1210008E1210008E1210008E1210008C7
:10011000E1210008E1210008E1210008E1210008B7
:10012000E1210008E1210008E1210008E1210008A7
:10013000E1210008E1210008E1210008E121000897
:10014000E1210008E1210008E1210008E121000887
:10015000E1210008E1210008E1210008E121000877
:10016000E1210008E1210008E1210008E121000867
:10017000E1210008E1210008E12100080000000061
:08018000E1210008E121000863
:1001880010B5054C237833B9044B13B10448AFF3C9
:1001980000800123237010BD0C0000200000000027
:1001A8003C22000808B5034B1BB103490348AFF3D1
:1001B800008008BD00000000100000203C2200085C
:1001C80053B94AB9002908BF00281CBF4FF0FF31B6
:1001D8004FF0FF3000F07AB9ADF1080C6DE904CEAC
:1001E80000F006F8DDF804E0DDE9022304B070470A
:1001F8002DE9F0478C460D460446089E002B51D148
:100208008A4217466DD9B2FA82FEBEF1000F0BD0B2
:10021800CEF1200C01FA0EF520FA0CFC02FA0EF7CA
:100228004CEA050C00FA0EF44FEA174A250CBCFB01
:10023800FAF81FFA87F90AFB18CC45EA0C4508FBBF
:1002480009F3AB420AD9ED1908F1FF3280F0238196
:10025800AB4240F22081A8F102083D44ED1AA4B255
:10026800B5FBFAF00AFB105544EA054400FB09F90E
:10027800A14509D9E41900F1FF3380F00A81A145AD
:1002880040F2078102383C44A4EB090440EA0840E4
:100298000021002E61D024FA0EF40023346073602C
:1002A800BDE8F0878B4207D9002E54D0002186E89C
:1002B80021000846BDE8F087B3FA83F1002940F031
:1002C8008E80AB4202D3824200F2FA80841A65EB38
:1002D80003050120AC46002E3FD086E81010BDE88B
:1002E800F08712B90127B7FBF2F7B7FA87FEBEF11C
:1002F800000F34D1EB1B3A0C1FFA87FC0121B3FB2A
:10030800F2F8250C02FB183345EA03450CFB08F309
:10031800AB4207D9ED1908F1FF3002D2AB4200F227
:10032800D1808046ED1AA3B2B5FBF2F002FB10555E
:1003380043EA05440CFB00FCA44507D9E41900F185
:10034800FF3302D2A44500F2B8801846A4EB0C048F
:1003580040EA08409DE731463046BDE8F087CEF1D7
:10036800200405FA0EF307FA0EF720FA04F83A0CFF
:1003780025FA04F448EA0308B4FBF2F14FEA1845F9
:1003880002FB11441FFA87FC45EA044501FB0CF304
:10039800AB4200FA0EF409D9ED1901F1FF3080F0F3
:1003A8008A80AB4240F2878002393D44EB1A1FFA3B
:1003B80088F5B3FBF2F002FB103345EA034500FB76
:1003C8000CF3AB4207D9ED1900F1FF386FD2AB42FD
:1003D8006DD902383D44EB1A40EA01418FE7C1F17B
:1003E800200722FA07F88B4005FA01F448EA0303CC
:1003F80020FA07FE4FEA134CFD404EEA040EB5FB07
:10040800FCF94FEA1E440CFB19551FFA83F844EA1D
:10041800054509FB08F4AC4202FA01F200FA01FAB8
:1004280008D9ED1809F1FF3043D2AC4241D9A9F1FE
:1004380002091D442D1B1FFA8EFEB5FBFCF00CFBB8
:1004480010554EEA054400FB08F8A04507D9E41802
:1004580000F1FF3529D2A04527D902381C4440EACB
:100468000940A4EB0804A0FB02894C45C6464D464A
:1004780015D312D056B1BAEB0E0364EB050404FA97
:1004880007F7CB401F43CC40376074600021BDE8BC
:10049800F0871846F8E69046E0E6C245EAD2B8EB9F
:1004A800020E69EB03050138E4E72846D7E7404622
:1004B80091E78146BEE7014678E702383C4445E7C4
:1004C800084608E7A8F102083D442BE7704700BF3B
:1004D80038B50E4A0E4B054618784FF47A73B3FBBD
:1004E800F0F31068B0FBF3F000F0D6F9044658B901
:1004F8000F2D09D8024629464FF0FF3000F098F931
:10050800044B20461D6038BD012038BD080000207E
:10051800000000200400002008B50B4B1A6842F4C4
:1005280000721A601A6842F480621A601A6842F40B
:1005380080721A60032000F069F90020FFF7C8FFF5
:1005480001F09EFB002008BD003C0240034A044B1A
:1005580011681B780B441360704700BF2800002007
:1005680000000020014B1868704700BF28000020D9
:1005780038B50446FFF7F6FF631C1CBF054B1B7814
:10058800054618BFE418FFF7EDFF401B8442FAD870
:1005980038BD00BF0000002010B50446002800F058
:1005A8009980036C23B9436480F83C3001F018F952
:1005B800236CDB0600F18C80236C23F4885323F032
:1005C800020343F002032364434B5A6822F4403287
:1005D8005A605A6861680A435A60236821695A68F0
:1005E80022F480725A605A6842EA01225A605A68B4
:1005F800A16822F040725A605A680A435A609A68A1
:10060800E16822F400629A609A680A439A60334962
:10061800A26A8A4250D0996821F0706199609968FD
:100628000A439A609A68E16A22F040529A609A688E
:100638000A439A609A68A16922F002029A609A684D
:1006480042EA41029A60226A002A3DD05A68616AE9
:1006580042F400625A605A6822F460425A605A684A
:10066800013942EA41325A60DA6AE16922F47002D9
:10067800DA62DA6A013942EA0152DA629A68216B6F
:1006880022F400729A609A6842EA41229A609A6853
:10069800616922F480629A609A68002042EA8122A5
:1006A8009A606064236C23F0030343F0010323641E
:1006B800002384F83C3010BD9A6822F070629A607A
:1006C8009A6822F04052B4E75A6822F40062CAE7F6
:1006D8000120EDE7012010BD002301400100000FBB
:1006E800F7B50023019390F83C30012B00F083808C
:1006F8000D6804688A680123092D80F83C30AEB281
:100708002AD906EB4603E7681E3B4FF0070E0EFAA0
:1007180003FE27EA0E07E760E76802FA03F33B43A4
:10072800E3604A68062A4FEA820325D81344676BB8
:10073800591F1F238B4027EA03036363626B06FA82
:1007480001F1114361632D4B9C4234D0002380F8A2
:100758003C30184603B0F0BD276905EB45034FF060
:10076800070E0EFA03FE27EA0E072761276902FA29
:1007780003F33B432361D4E70C2A0ED81344216BBF
:10078800A3F123021F23934021EA03032363236B6E
:1007980006FA02F21A432263D5E71344E16A413BA1
:1007A8001F229A4021EA0202E262E26A06FA03F193
:1007B8001143E162C7E7122D04D1114A536843F48B
:1007C80080035360A5F11003012BBFD80C4A53686E
:1007D800102D43F400035360B8D10A4B0A4A1B6832
:1007E800B3FBF2F20A2353430193019B002BADD0D4
:1007F800019B013BF8E70220ACE700BF0020014065
:10080800002301400800002040420F00074AD36837
:1008180023F4E0631B041B0C43F0BF63000243F4A2
:10082800003300F4E0600343D360704700ED00E05C
:10083800174B30B5DC68C4F30224C4F10703251D47
:10084800042B28BF0423062D4FF0010505FA03F3F6
:1008580003F1FF338CBF033C00241940A14005FA83
:1008680004F4013C2240002842EA01024FEA021245
:10087800AFBF00F1604000F00F00064BD2B2A5BF39
:1008880000F56140D2B21A5480F8002330BD00BF91
:1008980000ED00E014ED00E00138B0F1807F0AD2ED
:1008A800064B074A5860F02182F8231000200722DF
:1008B80098601A6070470120704700BF10E000E0A0
:1008C80000ED00E02DE9F04F85B00B68DFF8AC8152
:1008D800684ADFF8AC91019300234FF0010E019CA8
:1008E8000EFA03FE0EEA0406B64540F0AE804C68E8
:1008F80024F01007022F16D14FEAD30A00EB8A0A18
:1009080003F0070BDAF820504FEA8B0B4FF00F0C6F
:100918000CFA0BFC25EA0C0C0D6905FA0BF545EAF7
:100928000C05CAF820504FEA430A0325D0F800B056
:1009380005FA0AF5ED4304F0030C0BEA050B0CFA73
:100948000AFC013F4CEA0B0C012FC0F800C011D87B
:10095800876807EA050BCF6807FA0AFC4CEA0B0719
:100968008760476827EA0E0EC4F300179F4047EADE
:100978000E074760C7683D408F6807FA0AF73D438E
:10098800C560E50061D54FF0000BCDF80CB0D8F884
:100998004470394D47F48047C8F84470D8F844701B
:1009A80007F480470397039F23F0030707F1804765
:1009B80007F59C3703F0030CD7F808A04FEA8C0C16
:1009C8004FF00F0E0EFA0CFEA8422AEA0E0E43D084
:1009D80005F58065A84241D005F58065A8423FD05D
:1009E80005F58065A8423DD005F58065A8423BD055
:1009F80048453BD005F50065A84239D005F5806526
:100A0800A84214BF0825072505FA0CF545EA0E0586
:100A1800BD601568F74314F4803F0CBF3D40354373
:100A28001560556814F4003F0CBF3D4035435560D0
:100A3800956814F4801F0CBF3D4035439560D56818
:100A4800A40254BF3D403543D5600133102B7FF4D9
:100A580044AF05B0BDE8F08F5D46D5E70125D3E783
:100A68000225D1E70325CFE70425CDE70525CBE708
:100A78000625C9E7003C014000000240003802405A
:100A8800001402400AB1816170470904FBE70000C5
:100A980070B50446002862D090F83D3003F0FF029C
:100AA8001BB980F83C2000F0B1FF22682D4E2E4D76
:100AB800242384F83D30136823F00103136000F009
:100AC8009FFA63682268B0FBF5F5B34284BF4FF420
:100AD80096716943556091BF691C4FF47A75B1FBF3
:100AE800F5F10131B342116221D85B00B0FBF3F09C
:100AF800C0F30B03032B98BF0420216AE369D0617C
:100B08000B431360E16823690B439360A169636930
:100B18000B43D360136843F00103136000202023C4
:100B2800206484F83D30206384F83E0070BDA168DD
:100B380049B903EB4303B0FBF3F0C0F30B0363B114
:100B480040F40040D9E719214B43B0FBF3F0C0F360
:100B58000B0313B140F44040CFE70120CDE701205B
:100B680070BD00BFA086010040420F002DE9F3418F
:100B7800044618B9012002B0BDE8F0810368DD071A
:100B880010D42368980758D423681A0700F19A806C
:100B980023685B0700F1B880A269002A40F0198138
:100BA8000020E8E7A64B9A6802F00C02042A07D056
:100BB8009A6802F00C02082A0AD15B68590207D524
:100BC8009F4B1B689A03DCD56368002BD9D1D1E70A
:100BD80063689B4DB3F5803F11D12B6843F4803394
:100BE8002B60FFF7BFFC964D06462B689B03C8D4C5
:100BF800FFF7B8FC801B6428F7D90320BBE7B3F5DF
:100C0800A02F04D12B6843F480232B60E5E72A68E2
:100C180022F480322A602A6822F480222A60002B7B
:100C2800DFD1FFF79FFC06462B689F03A9D5FFF786
:100C380099FC801B6428F7D9DFE7814B9A6812F08A
:100C48000C0F07D09A6802F00C02082A11D15B68D1
:100C58005E020ED47A4B1A68950702D5E268012A1B
:100C680088D11A68216922F0F80242EAC1021A60A2
:100C78008AE7E268734BB2B101221A60FFF772FC8F
:100C88006F4D06462B68980707D52B68226923F015
:100C9800F80343EAC2032B6076E7FFF763FC801B87
:100CA8000228EFD9A9E71A60FFF75CFC644D0646F5
:100CB8002B6899077FF568AFFFF754FC801B022863
:100CC800F6D99AE76269604B7AB101221A60FFF798
:100CD80049FC5B4D06466B6F9F073FF559AFFFF721
:100CE80041FC801B0228F6D987E71A60FFF73AFC17
:100CF800534D06466B6F98077FF54AAFFFF732FCF6
:100D0800801B0228F6D978E74D4B1A6C12F08052F6
:100D180028D101921A6C42F080521A641B6C03F0BD
:100D280080530193019B0126484D2B68D9051BD59B
:100D3800A368434D012B27D12B6F43F001032B6789
:100D4800FFF710FC3E4D074641F288382B6F9B0792
:100D580039D5002E3FF420AF394A136C23F0805365
:100D6800136419E70026DFE72B6843F480732B60D0
:100D7800FFF7F8FB07462B68DA05D9D4FFF7F2FB33
:100D8800C01B0228F7D938E7052B04D12B6F43F095
:100D980004032B67D0E72A6F22F001022A672A6F23
:100DA80022F004022A67002BCAD1FFF7DBFB41F2CD
:100DB800883807462B6F9807CBD5FFF7D3FBC01BA6
:100DC8004045F7D919E7FFF7CDFBC01B4045BDD912
:100DD80013E71B4DAB6803F00C03082B3FF4CAAEB6
:100DE8001B4E0023022A336034D1FFF7BBFB0746B2
:100DF8002B6899011ED4226AE3691343626A43EAA5
:100E08008213E26A43EA0263A26A0D4C5208013A6D
:100E180043EA02436B6001233360FFF7A3FB0546F7
:100E280023689A013FF5BCAEFFF79CFB401B0228E4
:100E3800F6D9E2E6FFF796FBC01B0228D8D9DCE614
:100E48000038024000004742800E474200700040D0
:100E580060004742FFF786FB04462B689B017FF53D
:100E68009FAEFFF77FFB001B0228F6D9C5E600BF3F
:100E7800134908B58B6803F00C03042B03D0082B27
:100E880003D0104808BD104808BD4A684B68496837
:100E980013F4800314BF0C480A48C1F3881118BF23
:100EA800002302F03F02A1FB0001FFF789F9044B80
:100EB8005B68C3F3014301335B00B0FBF3F008BD8B
:100EC800003802400024F40000127A002DE9F041B5
:100ED8000D46044610B90120BDE8F081444B1A685C
:100EE80002F00F028A4228D321688F072DD4C80741
:100EF80040D43F4B1A6802F00F02954266D322682D
:100F080051076CD4130707D53A4A2169936823F42B
:100F1800604343EAC1039360FFF7AAFF354B364AA3
:100F28009B68C3F30313D35CD840344B186000208C
:100F3800FFF7CEFA0020BDE8F081CAB21A701B682C
:100F480003F00F039942C6D1CEE72A4B11F0040FE4
:100F58001EBF9A6842F4E0529A600E0742BF9A6830
:100F680042F460429A609A68A06822F0F002024354
:100F78009A60BCE762681F4B012A1DD11B6813F4F5
:100F8800003FA8D01B4EB36823F003031343B3609C
:100F9800FFF7E8FA41F288380746B368626803F059
:100FA8000C03B3EB820FA4D0FFF7DCFAC01B40455B
:100FB800F3D90320BDE8F081911E01291B6802D8EE
:100FC80013F0007FDDE713F0020FDAE7EAB21A70D8
:100FD8001B6803F00F039D427FF47DAF8FE705493F
:100FE800E0688B6823F4E05303438B608AE700BF13
:100FF800003C02400038024054220008080000204B
:10100800044B054A9B68C3F38223D35C034A1068E8
:10101800D8407047003802406422000808000020C9
:10102800044B054A9B68C3F34233D35C034A1068F8
:10103800D8407047003802406422000808000020A9
:1010480010B50446002836D00023836290F851304A
:1010580003F0FF021BB980F8502000F0DBFD216887
:10106800A068A269022384F851300B6823F040037A
:101078000B6063680343E0680343206903436069C6
:101088000343E0690343206A0343A06A034302F46D
:10109800007003430B60120C636A02F004021A43E7
:1010A8004A60CB6923F40063CB61002001236065AB
:1010B80084F8513010BD012010BD0000036A23F0F0
:1010C80001030362036A426870B584690D6824F0FD
:1010D800730425438C6823F0020323430C4CA0427D
:1010E80009D004F58064A04205D042604A68856151
:1010F8004263036270BDCC688E6923F00803234302
:101108004C6922F44072344323F004032243ECE791
:1011180000000140036A23F480730362036A426893
:1011280070B5C4690D6824F0730425438C6823F4F2
:10113800007343EA04230E4CA04209D004F58064EE
:10114800A04205D042604A68C561C263036270BDAF
:10115800CC688E6923F4006343EA04234C6922F4C3
:101168004052344323F4806342EA0412EAE700BFA2
:1011780000000140036A23F48053036230B5046A17
:101188004368C2690D6822F4E64242EA05228D6886
:1011980024F4005444EA0534094DA84209D005F561
:1011A8008065A84205D043604B68C261036404624D
:1011B80030BD4D6923F4804343EA8513F3E700BF4C
:1011C800000001402E4A0368904212D0B0F1804FCF
:1011D8000FD0A2F57C4290420BD002F5806290427B
:1011E80007D002F58062904203D002F5784290421F
:1011F8001DD14A6823F070031343214A904204D159
:10120800CA6823F44073134328E0B0F1804FF7D045
:101218001C4A9042F4D002F580629042F0D002F568
:1012280080629042ECD002F578429042E8D0164AAB
:101238009042E5D002F580629042E1D002F58062EA
:101248009042DDD0A2F598329042D9D002F5806262
:101258009042D5D002F580629042D1D003608B686D
:10126800C3620B688362064B984206D003F580631D
:10127800984202D00123436170470B690363F9E781
:1012880000000140000400400040014010B5044641
:10129800A0B190F8393003F0FF021BB980F838206C
:1012A80000F042FE022384F839302068211DFFF740
:1012B80089FF012384F83930002010BD012010BDBA
:1012C80010B50446A0B190F8393003F0FF021BB9FD
:1012D80080F8382000F010FE022384F839302068A6
:1012E800211DFFF76FFF012384F83930002010BD5E
:1012F800012010BDF8B50C460546002841D090F8ED
:10130800393003F0FF021BB980F8382000F098FD4F
:101318002946022351F8040B85F83930836823F0F5
:1013280007038360FFF74EFF286823688668826991
:10133800A168076A1E43A36922F4407222F00302DF
:1013480041EA0323134323F47C422369E1691B0127
:1013580043EA0123E1680B43216A22F0FC0243EAD5
:1013680001331343616927F0AA026768866047EA78
:101378000117836117430123076285F8393000207C
:10138800F8BD0120F8BD0000036A23F010030362D2
:10139800036A426870B584690D6824F4E64444EA37
:1013A80005258C6823F0200343EA04130D4CA04262
:1013B80009D004F58064A04205D042604A6885617E
:1013C8008263036270BDCC688E6923F0800343EAB0
:1013D80004134C6922F44062344323F0400342EA88
:1013E8008402EAE70000014038B590F83830012B54
:1013F80004464FF0020025D0012384F8383084F8E1
:1014080039000C2A18D8DFE802F0071717171E173B
:1014180017172F17171740002068FFF74FFE23688C
:1014280009699A6942F008029A619A6922F00402ED
:101438009A619A690A439A610123002084F8393035
:1014480084F8380038BD2068FFF79EFF23680969D3
:101458009A6942F400629A619A6922F480629A61F8
:101468009A6942EA0122E6E72068FFF753FE2368FB
:101478000969DA6942F00802DA61DA6922F00402DD
:10148800DA61DA690A43DA61D6E72068FFF772FEA3
:1014980023680969DA6942F40062DA61DA6922F4D8
:1014A8008062DA61DA6942EA0122ECE790F83830C2
:1014B800012B10B54FF0020318D080F839300368BB
:1014C8000C685A68496822F070025A605A682243C8
:1014D8005A609A6822F080029A609A680A439A6071
:1014E800012380F83930002380F83830184610BDC1
:1014F8002DE9F0470668C2683369C16923F440538F
:1015080013433361044683680069F26803436069E2
:1015180022F41642034322F00C020B431343F360F8
:101528007369A26923F440731343B1F5004F7361E3
:101538007A4B7CD19E4203D003F580639E4244D10E
:10154800FFF76EFD192505FB00F360684FF064098D
:101558004000B3FBF0F3B3FBF9F34FEA0318FFF7CE
:101568005FFD636868435B00B0FBF3F7FFF758FD66
:10157800636868435B00B0FBF3F3B3FBF9F309FB63
:101588001373DB003233B3FBF9F35B0003F4F87732
:10159800FFF746FD626868435200B0FBF2FAFFF7B6
:1015A8003FFD636868435B00B0FBF3F3B3FBF9F3FB
:1015B80009FB13A3DB003233B3FBF9F303F0070392
:1015C80043443B44B360BDE8F087FFF719FD192594
:1015D80005FB00F360684FF064094000B3FBF0F3CB
:1015E800B3FBF9F34FEA0318FFF70AFD6368684392
:1015F8005B00B0FBF3F7FFF703FD636868435B002C
:10160800B0FBF3F3B3FBF9F309FB1373DB003233DD
:10161800B3FBF9F35B0003F4F877FFF7F1FC6268BA
:1016280068435200B0FBF2FAFFF7EAFCB9E79E42C2
:1016380002D03B4B9E4240D1FFF7F2FC6768192568
:101648004FF0640905FB00F3BF00B3FBF7F3B3FBEE
:10165800F9F31F01FFF7E4FC636868439B00B0FBE4
:10166800F3F8FFF7DDFC636868439B00B0FBF3F316
:10167800B3FBF9F309FB13831B013233B3FBF9F313
:1016880003F0F008FFF7CCFC626868439200B0FBF7
:10169800F2FAFFF7C5FC636868439B00B0FBF3F3FD
:1016A800B3FBF9F309FB13A31B013233B3FBF9F3C3
:1016B80003F00F0343EA080383E7FFF7A1FC676819
:1016C80019254FF0640905FB00F3BF00B3FBF7F3DE
:1016D800B3FBF9F31F01FFF793FC636868439B00B2
:1016E800B0FBF3F8FFF78CFC636868439B00B0FB22
:1016F800F3F3B3FBF9F309FB13831B013233B3FB99
:10170800F9F303F0F008FFF77BFC62686843920086
:10171800B0FBF2FAFFF774FCBDE700BF0010014010
:101728000014014010B5044640B390F8393003F076
:10173800FF021BB980F8382000F0C0FC226824237F
:1017480084F83930D36823F40053D3602046FFF778
:10175800CFFE23681A6922F490421A615A6922F06E
:101768002A025A61DA6842F40052DA600020202323
:10177800E06384F8393084F83A3010BD012010BD98
:1017880030B585B010220021684600F04BFD1148A5
:10179800114A00244FF48033012580E81C000F4BC8
:1017A800046184610462C4628362C460C5610463C5
:1017B8004561FEF7F1FE08B100F00AFA69460548EE
:1017C80002948DE83000FEF78BFF08B100F000FAB4
:1017D80005B030BD2C000020002001400100000FA2
:1017E80030B514228BB0044600210DEB020000F046
:1017F80019FD2268234B9A4241D103F58C3300240A
:1018080001945A6C204842F480725A645A6C02F46B
:1018180080720192019A02941A6B42F004021A63D0
:101828001A6B02F004020292029A03941A6B42F0B5
:1018380001021A631A6B02F001020392039A0494DC
:101848001A6B42F002021A631B6B03F00203049343
:101858000325049B06953F2305A90593FFF732F856
:10186800FF2305A90948059306950794FFF72AF869
:1018780005A90748059506950794FFF723F80BB0C7
:1018880030BD00BF002001400008024000000240B7
:1018980000040240F0B58DB01422002107A800F022
:1018A800C1FC0024354B01941A6B354F354D42F07D
:1018B80080021A631A6B02F080020192019A029464
:1018C8001A6B42F004021A631A6B02F004020292C5
:1018D800029A03941A6B42F001021A631A6B02F01F
:1018E80001020392039A04941A6B42F002021A63EB
:1018F8001A6B02F002020492049A05941A6B42F0E1
:1019080010021A631A6B02F010020592059A0694E7
:101918001A6B42F008021A631B6B03F00803069364
:10192800224638464FF6FF71069BFFF7ABF8224672
:1019380028464FF4C051FFF7A5F84FF4704307A9A4
:1019480011480793012608940994FEF7BBFF4FF648
:10195800FF7307A938460793089609940A94FEF777
:10196800B1FF4FF4C05307A9284607930896099476
:101978000A94FEF7A7FF0DB0F0BD00BF0038024083
:10198800000C0240000002400010024008B50C485C
:101998000C4BDFF834E04FF4804280E80840002325
:1019A8008360C360026143618361C3610362FFF7BF
:1019B8006FF818B1BDE8084000F00AB908BD00BFCB
:1019C8007400002000540040A086010008B50C48AF
:1019D8000C4BDFF834E04FF4804280E808400023E5
:1019E8008360C360026143618361C3610362FFF77F
:1019F8004FF818B1BDE8084000F0EAB808BD00BFCC
:101A0800C800002000580040A086010030B514220C
:101A18008BB0044600210DEB020000F003FC2368A4
:101A2800284A934225D1284C284800250195236B44
:101A380043F002032363236B03F002030193019B2A
:101A4800C0230593122306930123079303230893C6
:101A580005A904230993FEF735FF0295236C43F487
:101A680000132364236C03F400130293029B0BB04E
:101A780030BD174A9342FAD1134C144800250395F8
:101A8800236B43F002032363236B03F002030393E6
:101A9800039B4FF440630593122306930123079396
:101AA8000323089305A904230993FEF70BFF049564
:101AB800236C43F480032364236C03F480030493AE
:101AC800049BD4E700540040003802400004024060
:101AD8000058004030B595B03022002108A800F029
:101AE800A1FB0021142203A800F09CFB00241C4B3E
:101AF80001941A6C42F080521A641B6C03F08053F4
:101B08000193019B174B02941A6842F480421A60B1
:101B18001B6803F480430293029B012308934FF44C
:101B2800803309934FF480030225A8220F9308A855
:101B380004231093119213930E951295FFF716F83C
:101B48000F2303934FF4A053069305214FF48053BA
:101B580003A8049505940793FFF7B8F915B030BDAD
:101B6800003802400070004008B5FEF7D5FCFFF7CA
:101B7800B1FFFFF78FFEFFF703FE00F017F900F043
:101B8800F7F800F025FA00F061FA00F02DF900F0FE
:101B9800C3F800F01FF8FFF719FFFFF7F7FE00F092
:101BA80071FA0A4C4FF4FA70FEF7E2FC0122114672
:101BB8002046FEF767FF4FF4FA70FEF7D9FC0022C3
:101BC80001212046FEF75EFFECE700BF000C024053
:101BD8007047000008B50D480D4B4FF4827E80E831
:101BE800084000238360C360036143618361C3616C
:101BF8000362436283620A23C362FFF721FA18B1C2
:101C0800BDE80840FFF7E4BF08BD00BF1C01002085
:101C18000038004010B5044688B01422002103A8FB
:101C280000F000FB2268144B9A4223D103F50033DD
:101C3800002101911A6C114842F480421A641A6C0E
:101C480002F480420192019A02911A6B42F0020258
:101C58001A631B6B03F002030293029B4FF4704359
:101C68000393022304930323069303A905230793ED
:101C7800FEF728FE08B010BD0038004000040240FE
:101C880082B00C4B002100915A6C42F480425A6495
:101C98005A6C02F480420092009A01911A6C42F048
:101CA80080521A641B6C03F080530193019B02B0AD
:101CB800704700BF003802407047FEE7FEE7FEE7C6
:101CC800FEE7704770477047FEF740BC0F49D1F8F0
:101CD800883043F47003C1F888300D4B1A6800202F
:101CE80042F001021A6098601A6822F0847222F4A5
:101CF80080321A60074A5A601A6822F480221A60F1
:101D0800D8604FF000638B60704700BF00ED00E0C3
:101D1800003802401030002410B58CB00021242275
:101D280003A800F07FFA1048104B002480E8180040
:101D380003A90123019402948460C460046144618E
:101D4800039305930993FFF7D5FA08B1FFF740FF0E
:101D580001A9054801940294FFF7A8FB08B1FFF711
:101D680037FF0CB010BD00BF280200200000014062
:101D780013B50C4B0C4800240094019480E818001B
:101D88008460C460FFF782FA08B1FFF721FF694653
:101D9800054800940194FFF789FB08B1FFF718FF85
:101DA80002B010BD00100040EC01002013B50C4B30
:101DB8000C4800240094019480E818008460C460F2
:101DC800FFF764FA08B1FFF703FF69460548009476
:101DD8000194FFF76BFB08B1FFF7FAFE02B010BDE4
:101DE800001400406402002010B58CB000212422A9
:101DF80003A800F017FA1048104B002480E81800D8
:101E080003A90123019402948460C46004614461BD
:101E1800039305930993FFF76DFA08B1FFF7D8FE0E
:101E280001A9054801940294FFF740FB08B1FFF7A8
:101E3800CFFE0CB010BD00BF7401002000040140AB
:101E480010B514228AB0044600210DEB020000F000
:101E5800E9F92368234A934222D1234B23480021DE
:101E680001915A6C42F001025A645A6C02F0010264
:101E78000192019A02911A6B42F010021A631B6BCD
:101E880003F010030293029B4FF42063059302238F
:101E980006930123099305A9FEF714FD0AB010BDA6
:101EA800134A9342FAD1104B1248002103915A6CFD
:101EB80042F002025A645A6C02F002020392039A38
:101EC80004911A6B42F004021A631B6B03F00403BB
:101ED8000493049BC02305930223069303230993C9
:101EE80005A9D9E70000014000380240001002406F
:101EF80000040140000802400268094B9A4282B07F
:101F08000BD100230193074B1A6C42F002021A64AA
:101F18001B6C03F002030193019B02B0704700BFE2
:101F280000040040003802400368114A934282B01E
:101F38000DD1002300930F4B1A6C42F010021A6463
:101F48001B6C03F010030093009B02B070470A4A11
:101F58009342FAD100230193064B1A6C42F02002F7
:101F68001A641B6C03F020030193019BEDE700BF8B
:101F780000100040003802400014004010B504462C
:101F880086B01422002101A800F04CF922680D4BFC
:101F98009A4214D1002300930B4B0C481A6B42F061
:101FA80002021A631B6B03F002030093009B3023A9
:101FB800019301A9022302930593FEF783FC06B05F
:101FC80010BD00BF00040040003802400004024079
:101FD80010B500248AB01C22214603A8019402945B
:101FE80000F020F91748184B846080E81800C46096
:101FF8000461FFF765F908B1FFF7EAFD01A9114887
:1020080001940294FFF752FA08B1FFF7E1FD0022AC
:10201800602303A90B480393049205920792FFF7E4
:10202800E3F908B1FFF7D4FD042203A90548FFF737
:10203800DBF908B1FFF7CCFD0248FFF79FFF0AB0B4
:1020480010BD00BFB00100200004004008B50B48D7
:102058000B4B4FF4E13E80E808400C2200238360DC
:10206800C360036142618361C361FFF75BFB18B121
:10207800BDE80840FFF7ACBD08BD00BFE002002086
:10208800004C004008B50B480B4B4FF4E13E80E88C
:1020980008400C2200238360C360036142618361AE
:1020A800C361FFF73FFB18B1BDE80840FFF790BDDB
:1020B80008BD00BFA00200200010014010B5142286
:1020C8008AB0044600210DEB020000F0ABF823684B
:1020D800284A934226D1284B2848002101911A6C9E
:1020E80042F400221A641A6C02F400220192019A46
:1020F80002911A6B42F004021A631B6B03F004038B
:102108000293029B4FF44063059302230693012335
:102118000793032308930823099305A9FEF7D2FB25
:102128000AB010BD164A9342FAD1134B1548002144
:1021380003915A6C42F010025A645A6C02F0100271
:102148000392039A04911A6B42F001021A631B6B03
:1021580003F001030493049B4FF4C0630593022327
:10216800069301230793032308930723099305A9DB
:10217800D4E700BF004C004000380240000802408D
:102188000010014000000240DFF834D0002103E0D5
:102198000C4B5B58435004310B480C4B42189A4285
:1021A800F6D30B4A02E0002342F8043B094B9A425B
:1021B800F9D3FFF78BFD00F011F8FFF7D5FC704756
:1021C800000002207C220008000000200C000020F3
:1021D8000C00002020030020FEE7000070B50D4E23
:1021E8000D4CA41BA4100025A54209D10B4E0C4C84
:1021F80000F020F8A41BA4100025A54205D170BD4D
:1022080056F8253098470135EEE756F825309847B7
:102218000135F2E7742200087422000874220008CD
:102228007822000802440346934200D1704703F81D
:10223800011BF9E7F8B500BFF8BC08BC9E4670471B
:0C224800F8B500BFF8BC08BC9E4670470B
:102254000000000000000000010203040607080952
:08226400000000000102030468
:08226C008CDFFF7F0100000080
:04227400AD010008B0
:0422780089010008D0
:0C227C0001000000100000000024F4002D
:04000005080021913D
:00000001FF
