:020000040800F2
:1000000000500020091A0008B9150008BB150008A7
:10001000BD150008BF150008C1150008000000004C
:10002000000000000000000000000000C3150008F0
:10003000C515000800000000C7150008C915000814
:10004000511A0008511A0008511A0008511A0008E4
:10005000511A0008511A0008511A0008511A0008D4
:10006000511A0008511A0008511A0008511A0008C4
:10007000511A0008511A0008511A0008511A0008B4
:10008000511A0008511A0008511A0008511A0008A4
:10009000511A0008511A0008511A0008511A000894
:1000A000511A0008511A0008511A0008511A000884
:1000B000511A0008511A0008511A0008511A000874
:1000C000511A0008511A0008511A0008511A000864
:1000D000511A0008CD150008D9150008511A00085A
:1000E000511A0008511A0008511A000800000000B7
:1000F0000000000000000000000000000000000000
:0C01000000000000000000005FF808F1A3
:10010C0010B5054C237833B9044B13B10448AFF345
:10011C0000800123237010BD0C00002000000000A3
:10012C00AC1A000808B5034B1BB103490348AFF3E5
:10013C00008008BD0000000010000020AC1A000870
:10014C0038B50E4B054618784FF47A73B3FBF0F3C1
:10015C000B4A1068B0FBF3F000F08CF8044658B969
:10016C000F2D09D8024629464FF0FF3000F042F817
:10017C00044B20461D6038BD012038BD0000002016
:10018C000800002004000020074A08B5136803206B
:10019C0043F01003136000F01BF80020FFF7D0FFB2
:1001AC0001F0E2F9002008BD00200240034A044B94
:1001BC0011681B780B441360704700BF28000020A7
:1001CC0000000020014B1868704700BF2800002079
:1001DC00074A0002D36800F4E06023F4E0631B04D8
:1001EC001B0C43F0BF6343F400330343D3607047ED
:1001FC0000ED00E0174B30B5DC68C4F30224C4F109
:10020C000703251D042B28BF0423062D4FF00105E1
:10021C0098BF002405FA03F303F1FF3388BF033CB6
:10022C001940A14005FA04F4013C2240002842EA9E
:10023C0001024FEA0212AFBF00F16040064B00F022
:10024C000F00D2B2A5BFD2B200F561401A5480F8AB
:10025C00002330BD00ED00E014ED00E00123420965
:10026C0000F01F0003FA00F0014B43F82200704726
:10027C0000E100E00138B0F1807F0AD2F021064B9A
:10028C00064A586082F823100020072298601A60F2
:10029C0070470120704700BF10E000E000ED00E067
:1002AC0090F8213010B5022B03D004238363012076
:1002BC0010BD03681A6822F00E021A601A6822F048
:1002CC0001021A60184A93421FD0143293421ED076
:1002DC00143293421DD0143293421DD014329342E7
:1002EC001DD0143293420CBF4FF480134FF0807327
:1002FC000E4A00245360012380F82130436B80F8B0
:10030C0020407BB19847204610BD0123F0E7102315
:10031C00EEE74FF48073EBE74FF48053E8E74FF4CC
:10032C008033E5E7184610BD08000240000002408B
:10033C002DE9F74F00221646654BDFF8A4E1DFF8F4
:10034C00A4C14FF001080C6808FA06F808EA040486
:10035C00A0457FD14D68122D00F0AF8000F288804F
:10036C00022D00F0A7807CD8002D00F08E80012D8E
:10037C0000F09E804FF00F09FF2C93BF824606F1D0
:10038C008045083DD0F800B092BFB500D0F804B05D
:10039C00AD0009FA05F82BEA080802FA05F588BF42
:1003AC0000F1040A48EA0505CAF80050D1F804A087
:1003BC001AF0805F4ED0474D464FAD6926F00308CA
:1003CC0045F00105BD61BD6908F1804805F00105E6
:1003DC00019508F5803806F0030B019D4FEA8B0B55
:1003EC00D8F8085009FA0BF925EA09093A4DA84240
:1003FC0068D005F58065A84266D005F58065A842F1
:10040C0064D005F58065A8420CBF0325042505FAC8
:10041C000BF545EA0905C8F808501D681AF4803F29
:10042C0014BF2543A5431D605D681AF4003F14BF3B
:10043C002543A5435D609D681AF4801F14BF2543B6
:10044C00A5439D60DD681AF4001F14BF2C4325EAF8
:10045C000404DC600136102E7FF473AF03B0BDE8EA
:10046C00F08F032D22D0112D84D1CA68043281E77C
:10047C001A4FBD4209D012D8DFF86C904D4504D00C
:10048C0009F580394D457FF475AF8A68C2B1012AF0
:10049C000CBFC0F81080C0F8148008226AE77545BC
:1004AC00F3D06545F1D0DFF84490EBE7002261E72B
:1004BC00CA685FE7CA6808325CE7CA680C3259E759
:1004CC00042257E70025A2E70125A0E702259EE7B5
:1004DC0000040140001002400008014000002110FF
:1004EC00000031100000321000001110000022102A
:1004FC000AB1016170470904FBE7000003682DE9AC
:10050C00F341DB07054610D42B689F075ED42B689C
:10051C00190700F195802B685A0700F1BF80EA6932
:10052C00002A40F02D81002014E0904C636803F009
:10053C000C03042B07D0636803F00C03082B0CD1BD
:10054C006368DE0309D523689C03DDD56B68002B3B
:10055C00DAD1012002B0BDE8F0816B68B3F5803FC1
:10056C0010D1236843F480332360FFF72BFE06463B
:10057C0023689803C8D4FFF725FE801B6428F7D99D
:10058C000320E7E79BB9236823F4803323602368B7
:10059C0023F480232360FFF715FE06462368990396
:1005AC00B2D5FFF70FFE801B6428F7D9E8E7B3F547
:1005BC00A02F236803D143F480232360D1E723F4D5
:1005CC0080332360236823F48023CDE7674C636872
:1005DC0013F00C0F07D0636803F00C03082B10D139
:1005EC006368DA030DD423689B0702D52B69012BB2
:1005FC00AFD123686A6923F0F80343EAC20323608E
:10060C0085E72A695A4B6AB101221A60FFF7DAFDB5
:10061C00064623689F07ECD4FFF7D4FD801B022805
:10062C00F7D9ADE71A60FFF7CDFD064623689807AA
:10063C007FF56DAFFFF7C6FD801B0228F6D99FE74B
:10064C00AA694A4C4B4BDAB101221A60FFF7BAFD8A
:10065C000646636A9B070DD54FF4FA52464B1B684E
:10066C00B3FBF2F3019300BF019B5A1E0192002BC6
:10067C00F9D150E7FFF7A6FD801B0228E9D97FE7E7
:10068C001A60FFF79FFD0646636A9F077FF543AF2D
:10069C00FFF798FD801B0228F6D971E7334CE3690C
:1006AC00D80024D40127E36943F08053E361E36964
:1006BC0003F080530093009B304E3368D90518D556
:1006CC00EB68012B26D1236A43F001032362FFF769
:1006DC0079FD41F288368046236A9B073FD5002F6F
:1006EC003FF41DAFE36923F08053E36117E7002764
:1006FC00E2E7336843F480733360FFF763FD8046B1
:10070C003368DA05DCD4FFF75DFDA0EB0800642844
:10071C00F6D935E7ABB9236A41F2883823F00103E7
:10072C002362236A23F004032362FFF74BFD064682
:10073C00236A9807D3D5FFF745FD801B4045F7D9B1
:10074C001EE7052B236A03D143F004032362BAE7A7
:10075C0023F001032362236A23F00403B6E7FFF7B7
:10076C0031FDA0EB0800B042B6D909E700100240F9
:10077C000000424280044242080000200070004009
:10078C00224C636803F00C03082B3FF4E2AE002309
:10079C001F4E022A33602BD1FFF714FD0746236846
:1007AC0099011FD42B6AB3F5803F05D16268A96803
:1007BC0022F400320A436260696A62680B4322F4D5
:1007CC0074121343636001233360FFF7FBFC05468F
:1007DC0023689A013FF5A7AEFFF7F4FC401B0228F3
:1007EC00F6D9CDE6FFF7EEFCC01B0228D7D9C7E639
:1007FC00FFF7E8FC054623689B017FF594AEFFF7F5
:10080C00E1FC401B0228F6D9BAE600BF00100240FA
:10081C006000424230B5194B87B002AC03F11005B1
:10082C00224618685968083303C2AB421446F7D104
:10083C0001238DF80430022311498DF805304B68E3
:10084C0003F00C02082A17D1C3F3834206A8024412
:10085C00DB0312F8102C0CD54B680A48C3F3404349
:10086C00504306AA134413F8143CB0FBF3F007B042
:10087C0030BD05485043FAE70248F8E7C41A0008AF
:10088C000010024000127A0000093D00544A2DE984
:10089C00F0411368054603F007038B420E462AD33A
:1008AC0029688C0734D4CA0747D44D4A136803F01F
:1008BC0007039E42C0F082802A684A4C12F0040F53
:1008CC0040F08780130706D563682A6923F46053C8
:1008DC0043EAC2036360FFF79DFF6368424AC3F3B8
:1008EC000313D35CD840414B18600020FFF728FC61
:1008FC000020BDE8F081136823F007030B4313605D
:10090C00136803F007039942CAD00120BDE8F081B7
:10091C00344B11F0040F1EBF5A6842F4E0625A6067
:10092C00080742BF5A6842F460525A605A68A86875
:10093C0022F0F00202435A60B5E76A68294C012A9A
:10094C0023681CD113F4003FDFD0636841F2883870
:10095C0023F0030313436360FFF734FC6B68074613
:10096C00012B14D1636803F00C03042B9DD0FFF70B
:10097C0029FCC01B4045F5D90320BDE8F081022AB3
:10098C0002D113F0007FDFE713F0020FDCE7022B3C
:10099C000FD1636803F00C03082B86D0FFF712FC11
:1009AC00C01B4045F5D9E7E7FFF70CFCC01B4045E1
:1009BC00E2D8636813F00C0FF6D176E7136823F0D6
:1009CC00070333431360136803F007039E429CD163
:1009DC0072E76368E96823F4E0630B43636071E7D3
:1009EC000020024000100240D41A00080800002029
:1009FC00044B054A5B68C3F30223D35C034A1068BB
:100A0C00D840704700100240E41A0008080000208B
:100A1C00044B054A5B68C3F3C223D35C034A1068DA
:100A2C00D840704700100240E41A0008080000206B
:100A3C00036A70B523F001030362036A4468826998
:100A4C000D6822F073022A438D6823F002032B43B6
:100A5C000A4DA8420BD1CD6823F008032B438E69B5
:100A6C004D6924F44074354323F004032C43446053
:100A7C0082614A684263036270BD00BF002C014072
:100A8C00036A70B523F480730362036A4468C26915
:100A9C000D6822F073022A438D6823F4007343EA35
:100AAC0005230B4DA8420DD1CD6823F4006343EA16
:100ABC0005238E694D6924F44054354323F4806337
:100ACC0044EA05144460C2614A68C263036270BDA3
:100ADC00002C0140036A30B523F480530362036A8F
:100AEC004468C2690D6822F4E64242EA05228D6828
:100AFC0023F4005343EA0533064DA84202BF4D6967
:100B0C0024F4804444EA85144460C2614A68026457
:100B1C00036230BD002C014003680020DA6842F00B
:100B2C000102DA601A6842F001021A6070477047DD
:100B3C00036889B1042907D01A6A22F001021A62EB
:100B4C001A6A42F001021A621A6A22F010021A6240
:100B5C001A6A42F0100206E01A6A22F001021A62C6
:100B6C001A6A42F001021A621A68002042F001026D
:100B7C001A60704790F83C3070B5012B4FF00203AF
:100B8C001CD0012280F83D30036880F83C209A6824
:100B9C0022F47F4222F077029A600A68402A79D0C8
:100BAC0019D8102A00F093800AD8002A00F0898006
:100BBC00012380F83D30002380F83C30184670BD8E
:100BCC00202A00F08A80302AF2D19A6822F0700232
:100BDC0042F0370236E0702A36D01BD8502A42D069
:100BEC00602AE5D11C6A4D6824F01004CE681C62A2
:100BFC0099691A6A21F4704122F0A00242EA0512A6
:100C0C0041EA063199611A629A6822F0700242F048
:100C1C00670217E0B2F5805F11D0B2F5005FC7D163
:100C2C008A684D689C68C9682A4324F47F4442EA68
:100C3C00012222439A609A6842F4804202E09A6848
:100C4C0022F007029A60B3E78A684D689C68C9680D
:100C5C002A4324F47F4442EA012222439A609A6890
:100C6C0042F07702EEE74C68CE68196A1D6A21F0F3
:100C7C000A0125F001051D629A69214322F0F00258
:100C8C0042EA06129A6119629A6822F0700242F0E6
:100C9C005702D7E74C68CE68196A1D6A21F00A0121
:100CAC0025F001051D629A69214322F0F00242EA07
:100CBC0006129A6119629A6822F0700242F0470299
:100CCC00C0E79A6822F0700242F00702BAE79A680D
:100CDC0022F0700242F01702B4E79A6822F0700218
:100CEC0042F02702AEE700001A4A036890420AD08D
:100CFC00B0F1804F07D0A2F59432904203D002F5A8
:100D0C008062904215D14A6823F070031343114A54
:100D1C0090420AD0B0F1804F07D0A2F594329042A5
:100D2C0003D002F58062904203D1CA6823F4407369
:100D3C0013434A6923F08003134303608B68C36237
:100D4C000B688362034B984204BF0B690363012356
:100D5C0043617047002C014010B50446A0B190F8D7
:100D6C003D3003F0FF021BB980F83C2000F0E4FC9E
:100D7C000223206884F83D30211DFFF7B5FF0123C5
:100D8C00002084F83D3010BD012010BD10B5044684
:100D9C00A0B190F83D3003F0FF021BB980F83C2065
:100DAC00FFF7C5FE0223206884F83D30211DFFF7B4
:100DBC009BFF0123002084F83D3010BD012010BDA5
:100DCC00F8B50C460546002841D090F83D3003F0AC
:100DDC00FF021BB980F83C2000F084FC294602235A
:100DEC0051F8040B85F83D30836823F007038360CA
:100DFC00FFF77AFF2868236886688269A1681E431A
:100E0C00A36922F4407222F0030241EA0323134344
:100E1C0023F47C422369E1691B0143EA0123E16865
:100E2C00076A0B43216A22F0FC0243EA01331343A5
:100E3C00616927F0AA02676886608361012347EA2B
:100E4C0001171743076285F83D300020F8BD0120DB
:100E5C00F8BD0000036A70B523F010030362036A47
:100E6C00446882690D6822F4E64242EA05228D68E4
:100E7C0023F0200343EA05130B4DA8420DD1CD6896
:100E8C0023F0800343EA05138E694D6924F4406412
:100E9C00354323F0400344EA8504446082614A6888
:100EAC008263036270BD00BF002C014038B590F81E
:100EBC003C300446012B4FF0020025D0012384F86E
:100ECC003D0084F83C300C2A18D8DFE802F00717F4
:100EDC0017171E1717172F17171740002068FFF743
:100EEC00A7FD236809699A6942F008029A619A6918
:100EFC0022F004029A619A690A439A610123002044
:100F0C0084F83D3084F83C0038BD2068FFF7A2FF20
:100F1C00236809699A6942F400629A619A6922F419
:100F2C0080629A619A6942EA0122E6E72068FFF73B
:100F3C00A7FD23680969DA6942F00802DA61DA6907
:100F4C0022F00402DA61DA690A43DA61D6E7206832
:100F5C00FFF7C0FD23680969DA6942F40062DA61BF
:100F6C00DA6922F48062DA61DA6942EA0122ECE79A
:100F7C0010B50124036A8C4023EA04030362036A5C
:100F8C008A401A43026210BD10B504460122006863
:100F9C00FFF7EEFF2368064A0020934202BF5A6C0B
:100FAC0042F400425A641A6842F001021A6010BD01
:100FBC00002C014090F83C3010B5012B4FF002038F
:100FCC0018D080F83D3003680C685A68496822F0E4
:100FDC0070025A605A6822435A609A6822F0800262
:100FEC009A609A680A439A60012380F83D30002386
:100FFC0080F83C30184610BD0368DA6822F4907211
:10100C00DA605A6922F001025A61202380F83A30E2
:10101C00704700002DE9F0470568C2682B6901692B
:10102C0023F4405313432B618368EA680B434169F3
:10103C0022F4B05222F00C020B431343EB606B69A9
:10104C00826923F4407313436B61404B81469D428C
:10105C004FF0190446D1FFF7DBFC04FB00F3D9F881
:10106C0004604FF06408B600B3FBF6F3B3FBF8F37F
:10107C001E01FFF7CDFC6043D9F804309B00B0FB98
:10108C00F3F7FFF7C5FC6043D9F804309B00B0FBC5
:10109C00F3F3B3FBF8F308FB13731B013233B3FB0D
:1010AC00F8F303F0F007FFF7B3FC6043D9F8042022
:1010BC009200B0FBF2FAFFF7ABFC6043D9F80430B6
:1010CC009B00B0FBF3F3B3FBF8F308FB13A31B017A
:1010DC003233B3FBF8F303F00F033B433344AB6001
:1010EC00BDE8F087FFF784FC04FB00F3D9F804603B
:1010FC004FF06408B600B3FBF6F3B3FBF8F31E0134
:10110C00FFF776FC6043D9F804309B00B0FBF3F793
:10111C00FFF76EFC6043D9F804309B00B0FBF3F38F
:10112C00B3FBF8F308FB13731B013233B3FBF8F377
:10113C0003F0F007FFF75CFC6043D9F80420920041
:10114C00B0FBF2FAFFF754FCB7E700BF00380140E0
:10115C0010B5044640B390F8393003F0FF021BB9C8
:10116C0080F8382000F0CAFB2423226884F8393038
:10117C00D368204623F40053D360FFF74BFF23685A
:10118C0000201A6922F490421A615A6922F02A024C
:10119C005A61DA6842F40052DA602023E06384F882
:1011AC00393084F83A3010BD012010BD90F83A3037
:1011BC00202B20D1E9B1E2B190F83830012B1AD0B4
:1011CC00C285828500232222C36380F83A200268FC
:1011DC008162D16880F8383041F48071D1605169F6
:1011EC00184641F001015161D16841F02001D160F4
:1011FC00704701207047022070477047704790F885
:10120C003A3010B5222B36D183680169B3F5805F73
:10121C000268836A23D15268E9B9C2F3080223F841
:10122C00022B8362C48D013CA4B2C4858CB90368C3
:10123C00DA6822F02002DA60DA6822F48072DA606E
:10124C005A6922F001025A61202380F83A30FFF7E4
:10125C00D5FF002010BDD2B223F8012BE1E721B954
:10126C00591C526881621A70DCE75268591C816201
:10127C0002F07F02F7E7022010BD7047036870B5DB
:10128C001A6804461607D9685D6907D196065AD5BF
:10129C008D0658D5BDE87040FFF7B1BF15F00105BC
:1012AC0002D111F4907F4ED0D30705D5CE0542BFA5
:1012BC00E36B43F00103E363500704D51DB1E36B0B
:1012CC0043F00203E363930704D51DB1E36B43F0D2
:1012DC000403E363160704D51DB1E36B43F0080365
:1012EC00E363E36B002B66D0950604D5880602D524
:1012FC002046FFF784FF236820465D69E26B1107E7
:10130C0002D415F040051AD0FFF776FE23685A690F
:10131C00520610D55A69606B22F040025A6150B1E6
:10132C00254B4363FEF7BCFF002844D0606BBDE83F
:10133C007040436B18472046FFF79FFF70BDFFF7C7
:10134C009CFFE56370BD160627D50D0625D594F8D0
:10135C003920212A2FD1A268B2F5805F226A17D1D9
:10136C001188C1F308015960216979B902322262EE
:10137C00E28C013A92B2E284EAB9DA6822F0800295
:10138C00DA60DA6842F04002DA6070BD0132EEE7F2
:10139C00511C216212785A60EAE750060BD54A06B6
:1013AC0009D5DA68204622F04002DA60202384F85E
:1013BC003930FFF722FF70BDC913000808B50023B0
:1013CC00406AC385C384FFF758FF08BD10222DE97E
:1013DC00F04188B00DEB0200002100F059FB2B4BC3
:1013EC00DFF8B4809A692A4D42F010029A619A692A
:1013FC00404602F010020092009A9A6940F6087179
:10140C0042F020029A619A69002402F020020192B3
:10141C00019A9A69012742F004029A619A6902269C
:10142C0002F004020292029A9A6942F008029A614E
:10143C009B69002203F008030393039BFFF758F802
:10144C00002228464FF41C41FFF752F84FF460433A
:10145C0004A91048049305940694FEF769FF40F61E
:10146C00087304A940460493059706940796FEF763
:10147C005FFF4FF41C4304A9284604930597069478
:10148C000796FEF755FF08B0BDE8F081001002404A
:10149C000008014000100140000C014010B590B054
:1014AC002822002106A800F0F3FA0021142201A83A
:1014BC0000F0EEFA4FF480330122022407930E93CE
:1014CC004FF4E01306A806920A920F930D94FFF7BF
:1014DC0015F80F234FF4806201930023214601A8D5
:1014EC000294039304920593FFF7D0F910B010BD4A
:1014FC0008B5FEF749FEFFF7D1FFFFF767FF00F0D5
:10150C00C5F900F0BBF800F0DDF900F061F900F06E
:10151C0089F801220C490D48FFF748FE01220C49BD
:10152C000C48FFF743FE0C48FFF7F6FA08210B486E
:10153C00FFF72AFD0C210948FFF726FD002108487A
:10154C00FFF7F6FAFEE700BF460000200801002076
:10155C0045000020480100204800002088000020A1
:10156C00C8000020704700000E4B82B09A6942F010
:10157C0001029A619A6902F001020092009ADA69FA
:10158C0042F08052DA61DB69074A03F08053019321
:10159C00019B536823F0E06343F00073536002B087
:1015AC00704700BF00100240000001407047FEE78A
:1015BC00FEE7FEE7FEE7704770477047FEF7F6BDA3
:1015CC000148FFF75BBE00BF080100200148FFF790
:1015DC0055BE00BF480100200F4B1A6842F00102B3
:1015EC001A6059680D4A0A405A601A6822F08472CF
:1015FC0022F480321A601A6822F480221A605A6827
:10160C0022F4FE025A604FF41F029A604FF00062FF
:10161C00034B9A60704700BF001002400000FFF8B7
:10162C0000ED00E010B58CB00021242203A800F0DE
:10163C002FFA00244FF080430F4803A980E81800CC
:10164C0040F2FF33C360012301940294846004616F
:10165C008461039305930993FFF7B2FB08B1FFF77D
:10166C0081FF01A9044801940294FFF7A3FC08B17F
:10167C00FFF778FF0CB010BDC80000207FB510221A
:10168C00002102A800F004FA00231448144A009325
:10169C0080E80C0048F69F4201938360C2600361AE
:1016AC008361FFF759FB08B1FFF75CFF4FF48053E0
:1016BC0002A90A480293FFF75DFA08B1FFF752FF3F
:1016CC0000236946054800930193FFF773FC08B1AA
:1016DC00FFF748FF07B05DF804FB00BF480000208F
:1016EC000008004010B5044686B01022002102A864
:1016FC0000F0CEF92368B3F1804F19D103F5043310
:10170C00DA6902A942F00102DA61DA69094802F0E9
:10171C0001020092009A9A6942F004029A619B6954
:10172C0003F004030193019B03230293FEF700FED5
:10173C0006B010BD0008014003680F4A82B0934206
:10174C000BD10E4BDA6942F00202DA61DB6903F06D
:10175C0002030093009B02B07047094A9342FAD1EE
:10176C00064BDA6942F00402DA61DB6903F0040328
:10177C000193019BEFE700BF000400400010024002
:10178C000008004010B5044686B01022002102A8C3
:10179C0000F07EF922680C4B9A4213D103F5033307
:1017AC009A6902A942F008029A619B69074803F002
:1017BC0008030193019B03230293022303930593D4
:1017CC00FEF7B6FD06B010BD00040040000C014051
:1017DC0010B58EB01022002103A800F059F9002496
:1017EC001C2221460DEB02000194029400F050F9EA
:1017FC002448254B846080E8180040F29F53046114
:10180C00C3608461FFF7A8FA08B1FFF7ABFE4FF491
:10181C00805303A91B480393FFF7ACF908B1FFF7FA
:10182C00A1FE1848FFF7B2FA08B1FFF79BFE0023A0
:10183C0001A9144801930293FFF7BCFB08B1FFF711
:10184C0091FE602307934FF434730893002308220E
:10185C0007A90C4809930B93FFF728FB08B1FFF776
:10186C0081FE4FF4B4730C2207A906480893FFF7C6
:10187C001DFB08B1FFF776FE0248FFF783FF0EB0A1
:10188C0010BD00BF880000200004004008B54FF4D4
:10189C00E13E0A480A4B0C2280E8084000234261D2
:1018AC008360C36003618361C361FFF751FC18B1AE
:1018BC00BDE80840FFF756BE08BD00BF0801002078
:1018CC000038014008B54FF4E13E0A480A4B0C229F
:1018DC0080E80840002342618360C3600361836138
:1018EC00C361FFF735FC18B1BDE80840FFF73ABEFD
:1018FC0008BD00BF4801002000440040102210B574
:10190C00044688B00DEB0200002100F0C1F82368FA
:10191C00344A934236D1344B04A99A69334842F481
:10192C0080429A619A69002402F480420092009AE3
:10193C009A6942F008029A619B6903F008030193CB
:10194C00019B402304930223059303230793FEF783
:10195C00EFFC802304A92548049305940694FEF714
:10196C00E7FC234A25205368214643F0E06343F00B
:10197C00040353602246FEF73DFC2520FEF76EFC67
:10198C0008B010BD1B4A9342FAD1174B04A9DA696F
:10199C00194842F40032DA61DA69002402F40032A8
:1019AC000292029A9A6942F004029A619B6903F0CE
:1019BC0004030393039B042304930223059303233F
:1019CC000793FEF7B5FC082304A90B480493059470
:1019DC000694FEF7ADFC262022462146FEF70AFCB3
:1019EC002620CBE70038014000100240000C0140DB
:1019FC00000001400044004000080140002103E0C9
:101A0C000B4B5B58435004310A480B4B42189A421B
:101A1C00F6D30A4A02E0002342F8043B084B9A42F0
:101A2C00F9D3FFF7D9FD00F00FF8FFF761FD704710
:101A3C00F41A0008000000200C0000200C0000200C
:101A4C0088010020FEE7000070B500250C4E0D4CFF
:101A5C00A41BA410A54209D100F022F800250A4EBF
:101A6C000A4CA41BA410A54205D170BD56F8253014
:101A7C0098470135EEE756F8253098470135F2E7DF
:101A8C00EC1A0008EC1A0008EC1A0008F01A00080E
:101A9C0003460244934200D1704703F8011BF9E757
:101AAC00F8B500BFF8BC08BC9E467047F8B500BF3F
:081ABC00F8BC08BC9E4670470F
:101AC40002030405060708090A0B0C0D0E0F10107B
:101AD40000000000000000000102030406070809DA
:081AE4000000000001020304F0
:041AEC0031010008BC
:041AF0000D010008DC
:0C1AF400010000001000000000A24A04E5
:0400000508001A09CC
:00000001FF
