:020000040800F2
:1000000000000220BD2C00087D2700087F27000883
:1000100081270008832700088527000800000000CA
:10002000000000000000000000000000872700081A
:1000300089270008000000008B2700088D27000892
:100040000D2D00080D2D00080D2D00080D2D0008A8
:100050000D2D00080D2D00080D2D00080D2D000898
:100060000D2D00080D2D00080D2D00080D2D000888
:100070000D2D00080D2D00080D2D00080D2D000878
:100080000D2D00080D2D00080D2D00080D2D000868
:100090000D2D00080D2D00080D2D00080D2D000858
:1000A0000D2D00080D2D00080D2D00080D2D000848
:1000B0000D2D00080D2D00080D2D00080D2D000838
:1000C0000D2D00080D2D00080D2D00080D2D000828
:1000D0000D2D00080D2D00080D2D00080D2D000818
:1000E0000D2D00080D2D00080D2D00080D2D000808
:1000F0000D2D00080D2D00080D2D00080D2D0008F8
:100100000D2D00080D2D00080D2D00080D2D0008E7
:100110000D2D00080D2D0008912700089D270008CF
:100120000D2D00080D2D00080D2D00080D2D0008C7
:100130000D2D00080D2D00080D2D00080D2D0008B7
:100140000D2D00080D2D00080D2D00080D2D0008A7
:100150000D2D00080D2D00080D2D00080D2D000897
:100160000D2D00080D2D00080D2D00080D2D000887
:100170000D2D00080D2D00080D2D000800000000B9
:080180000D2D00080D2D0008F3
:1001900010B5054C237833B9044B13B10448AFF3C1
:1001A00000800123237010BD90000020000000009B
:1001B000C43B000808B5034B1BB103490348AFF328
:1001C000008008BD0000000094000020C43B00082F
:1001D00001F0FF01102A2BDB10F0070F08D010F8F8
:1001E000013B013A8B422DD010F0070F42B3F6D1FC
:1001F000F0B441EA012141EA014122F007047FF015
:1002000000070023F0E80256083C85EA010586EA6B
:10021000010685FA47F5A3FA87F586FA47F6A5FAA7
:1002200087F68EB9EED1F0BC01F0FF0102F00702B3
:1002300032B110F8013B013A83EA010313B1F8D15E
:100240000020704701387047002D06BF354603383F
:10025000073815F0010F07D1013015F4807F02BF78
:10026000013015F4C03F0130F0BC0138704700BFC9
:1002700053B94AB9002908BF00281CBF4FF0FF310D
:100280004FF0FF3000F07AB9ADF1080C6DE904CE03
:1002900000F006F8DDF804E0DDE9022304B0704761
:1002A0002DE9F0478C460D460446089E002B51D19F
:1002B0008A4217466DD9B2FA82FEBEF1000F0BD00A
:1002C000CEF1200C01FA0EF520FA0CFC02FA0EF722
:1002D0004CEA050C00FA0EF44FEA174A250CBCFB59
:1002E000FAF81FFA87F90AFB18CC45EA0C4508FB17
:1002F00009F3AB420AD9ED1908F1FF3280F02381EE
:10030000AB4240F22081A8F102083D44ED1AA4B2AC
:10031000B5FBFAF00AFB105544EA054400FB09F965
:10032000A14509D9E41900F1FF3380F00A81A14504
:1003300040F2078102383C44A4EB090440EA08403B
:100340000021002E61D024FA0EF400233460736083
:10035000BDE8F0878B4207D9002E54D0002186E8F3
:1003600021000846BDE8F087B3FA83F1002940F088
:100370008E80AB4202D3824200F2FA80841A65EB8F
:1003800003050120AC46002E3FD086E81010BDE8E2
:10039000F08712B90127B7FBF2F7B7FA87FEBEF173
:1003A000000F34D1EB1B3A0C1FFA87FC0121B3FB81
:1003B000F2F8250C02FB183345EA03450CFB08F361
:1003C000AB4207D9ED1908F1FF3002D2AB4200F27F
:1003D000D1808046ED1AA3B2B5FBF2F002FB1055B6
:1003E00043EA05440CFB00FCA44507D9E41900F1DD
:1003F000FF3302D2A44500F2B8801846A4EB0C04E7
:1004000040EA08409DE731463046BDE8F087CEF12E
:10041000200405FA0EF307FA0EF720FA04F83A0C56
:1004200025FA04F448EA0308B4FBF2F14FEA184550
:1004300002FB11441FFA87FC45EA044501FB0CF35B
:10044000AB4200FA0EF409D9ED1901F1FF3080F04A
:100450008A80AB4240F2878002393D44EB1A1FFA92
:1004600088F5B3FBF2F002FB103345EA034500FBCD
:100470000CF3AB4207D9ED1900F1FF386FD2AB4254
:100480006DD902383D44EB1A40EA01418FE7C1F1D2
:10049000200722FA07F88B4005FA01F448EA030323
:1004A00020FA07FE4FEA134CFD404EEA040EB5FB5E
:1004B000FCF94FEA1E440CFB19551FFA83F844EA75
:1004C000054509FB08F4AC4202FA01F200FA01FA10
:1004D00008D9ED1809F1FF3043D2AC4241D9A9F156
:1004E00002091D442D1B1FFA8EFEB5FBFCF00CFB10
:1004F00010554EEA054400FB08F8A04507D9E4185A
:1005000000F1FF3529D2A04527D902381C4440EA22
:100510000940A4EB0804A0FB02894C45C6464D46A1
:1005200015D312D056B1BAEB0E0364EB050404FAEE
:1005300007F7CB401F43CC40376074600021BDE813
:10054000F0871846F8E69046E0E6C245EAD2B8EBF6
:10055000020E69EB03050138E4E72846D7E7404679
:1005600091E78146BEE7014678E702383C4445E71B
:10057000084608E7A8F102083D442BE7704700BF92
:1005800038B50E4A0E4B054618784FF47A73B3FB14
:10059000F0F31068B0FBF3F000F0FCF9044658B932
:1005A0000F2D09D8024629464FF0FF3000F0B2F96E
:1005B000044B20461D6038BD012038BD28000020B6
:1005C000000000200400002008B50B4B1A6842F41C
:1005D00000721A601A6842F480621A601A6842F463
:1005E00080721A60032000F083F90020FFF7C8FF33
:1005F00002F0A8F8002008BD003C0240034A044B6A
:1006000011681B780B441360704700BFB8000020CE
:1006100000000020014B1868704700BFB8000020A0
:1006200010B50446002800F09980036C23B9436498
:1006300080F83C3001F0F8FB236CDB0600F18C8085
:10064000236C23F4885323F0020343F00203236452
:10065000434B5A6822F440325A605A6861680A4330
:100660005A60236821695A6822F480725A605A6875
:1006700042EA01225A605A68A16822F040725A6028
:100680005A680A435A609A68E16822F400629A60E4
:100690009A680A439A603349A26A8A4250D099689C
:1006A00021F07061996099680A439A609A68E16ADA
:1006B00022F040529A609A680A439A609A68A16947
:1006C00022F002029A609A6842EA41029A60226A23
:1006D000002A3DD05A68616A42F400625A605A6842
:1006E00022F460425A605A68013942EA41325A6043
:1006F000DA6AE16922F47002DA62DA6A013942EAFE
:100700000152DA629A68216B22F400729A609A6848
:1007100042EA41229A609A68616922F480629A6092
:100720009A68002042EA81229A606064236C23F078
:10073000030343F001032364002384F83C3010BD1D
:100740009A6822F070629A609A6822F04052B4E788
:100750005A6822F40062CAE70120EDE7012010BDCB
:10076000002301400100000F90F83C30012B10B530
:10077000044624D0012380F83C3003689A6822F0B4
:1007800001029A609A68D20717D49A68806B22F4A3
:1007900080729A6000F014F92268536823F0806335
:1007A0005360236C23F4885323F0010343F00103C7
:1007B0002364002384F83C3010BD0020F9E70220B8
:1007C00010BD0000F7B50023019390F83C30012BD9
:1007D00000F083800D6804688A680123092D80F881
:1007E0003C30AEB22AD906EB4603E7681E3B4FF019
:1007F000070E0EFA03FE27EA0E07E760E76802FA23
:1008000003F33B43E3604A68062A4FEA820325D894
:100810001344676B591F1F238B4027EA030363634D
:10082000626B06FA01F1114361632D4B9C4234D097
:10083000002380F83C30184603B0F0BD276905EB73
:1008400045034FF0070E0EFA03FE27EA0E07276155
:10085000276902FA03F33B432361D4E70C2A0ED83D
:100860001344216BA3F123021F23934021EA0303C6
:100870002363236B06FA02F21A432263D5E713447B
:10088000E16A413B1F229A4021EA0202E262E26AE7
:1008900006FA03F11143E162C7E7122D04D1114AB0
:1008A000536843F480035360A5F11003012BBFD8B4
:1008B0000C4A5368102D43F400035360B8D10A4B1F
:1008C0000A4A1B68B3FBF2F20A2353430193019BCC
:1008D000002BADD0019B013BF8E70220ACE700BF45
:1008E00000200140002301402800002040420F006A
:1008F000074AD36823F4E0631B041B0C43F0BF6377
:10090000000243F4003300F4E0600343D360704717
:1009100000ED00E0174B30B5DC68C4F30224C4F1ED
:100920000703251D042B28BF0423062D4FF00105C6
:1009300005FA03F303F1FF338CBF033C0024194095
:10094000A14005FA04F4013C2240002842EA0102D9
:100950004FEA0212AFBF00F1604000F00F00064BFB
:10096000D2B2A5BF00F56140D2B21A5480F800237C
:1009700030BD00BF00ED00E014ED00E042090123AE
:1009800000F01F0003FA00F0014B43F8220070470B
:1009900000E100E00138B0F1807F0AD2064B074A3F
:1009A0005860F02182F823100020072298601A6016
:1009B00070470120704700BF10E000E000ED00E04C
:1009C00070B50446856DFFF725FE94F83530022B8F
:1009D000064606D080236365002384F83430012066
:1009E00070BD23681A6822F016021A605A6922F054
:1009F00080025A61226C0AB9A26C1AB11A6822F0FC
:100A000008021A601A6822F001021A602368186846
:100A100010F0010009D1E26D3F239340AB60012348
:100A200084F8340084F8353070BDFFF7F3FD801B87
:100A30000528EBD9202363650320002384F8343094
:100A400084F8350070BD00002DE9F04F85B00B68CB
:100A5000DFF8AC81684ADFF8AC91019300234FF0D6
:100A6000010E019C0EFA03FE0EEA0406B64540F0A4
:100A7000AE804C6824F01007022F16D14FEAD30A3B
:100A800000EB8A0A03F0070BDAF820504FEA8B0BD1
:100A90004FF00F0C0CFA0BFC25EA0C0C0D6905FA53
:100AA0000BF545EA0C05CAF820504FEA430A032526
:100AB000D0F800B005FA0AF5ED4304F0030C0BEA98
:100AC000050B0CFA0AFC013F4CEA0B0C012FC0F895
:100AD00000C011D8876807EA050BCF6807FA0AFC3F
:100AE0004CEA0B078760476827EA0E0EC4F300172D
:100AF0009F4047EA0E074760C7683D408F6807FA86
:100B00000AF73D43C560E50061D54FF0000BCDF815
:100B10000CB0D8F84470394D47F48047C8F8447099
:100B2000D8F8447007F480470397039F23F0030726
:100B300007F1804707F59C3703F0030CD7F808A0AE
:100B40004FEA8C0C4FF00F0E0EFA0CFEA8422AEA68
:100B50000E0E43D005F58065A84241D005F58065AD
:100B6000A8423FD005F58065A8423DD005F58065D7
:100B7000A8423BD048453BD005F50065A84239D096
:100B800005F58065A84214BF0825072505FA0CF570
:100B900045EA0E05BD601568F74314F4803F0CBFAD
:100BA0003D4035431560556814F4003F0CBF3D408F
:100BB00035435560956814F4801F0CBF3D403543A4
:100BC0009560D568A40254BF3D403543D5600133DC
:100BD000102B7FF444AF05B0BDE8F08F5D46D5E73C
:100BE0000125D3E70225D1E70325CFE70425CDE78B
:100BF0000525CBE70625C9E7003C0140000002407F
:100C000000380240001402400AB1816170470904B3
:100C1000FBE74369594041617047000070B50446E5
:100C2000002862D090F83D3003F0FF021BB980F835
:100C30003C2001F041FA22682D4E2E4D242384F8E9
:100C40003D30136823F00103136000F09FFA6368DE
:100C50002268B0FBF5F5B34284BF4FF49671694347
:100C6000556091BF691C4FF47A75B1FBF5F1013104
:100C7000B342116221D85B00B0FBF3F0C0F30B0369
:100C8000032B98BF0420216AE369D0610B431360F2
:100C9000E16823690B439360A16963690B43D360E7
:100CA000136843F00103136000202023206484F8BC
:100CB0003D30206384F83E0070BDA16849B903EB64
:100CC0004303B0FBF3F0C0F30B0363B140F4004007
:100CD000D9E719214B43B0FBF3F0C0F30B0313B179
:100CE00040F44040CFE70120CDE7012070BD00BFB8
:100CF000A086010040420F002DE9F341044618B9D7
:100D0000012002B0BDE8F0810368DD0710D423683C
:100D1000980758D423681A0700F19A8023685B0764
:100D200000F1B880A269002A40F019810020E8E7AC
:100D3000A64B9A6802F00C02042A07D09A6802F0C7
:100D40000C02082A0AD15B68590207D59F4B1B6821
:100D50009A03DCD56368002BD9D1D1E763689B4D3A
:100D6000B3F5803F11D12B6843F480332B60FFF73C
:100D700051FC964D06462B689B03C8D4FFF74AFCEE
:100D8000801B6428F7D90320BBE7B3F5A02F04D15B
:100D90002B6843F480232B60E5E72A6822F4803235
:100DA0002A602A6822F480222A60002BDFD1FFF714
:100DB00031FC06462B689F03A9D5FFF72BFC801B4F
:100DC0006428F7D9DFE7814B9A6812F00C0F07D03F
:100DD0009A6802F00C02082A11D15B685E020ED4F8
:100DE0007A4B1A68950702D5E268012A88D11A68F9
:100DF000216922F0F80242EAC1021A608AE7E26839
:100E0000734BB2B101221A60FFF704FC6F4D064626
:100E10002B68980707D52B68226923F0F80343EA6B
:100E2000C2032B6076E7FFF7F5FB801B0228EFD9A2
:100E3000A9E71A60FFF7EEFB644D06462B68990799
:100E40007FF568AFFFF7E6FB801B0228F6D99AE72B
:100E50006269604B7AB101221A60FFF7DBFB5B4DE0
:100E600006466B6F9F073FF559AFFFF7D3FB801B1B
:100E70000228F6D987E71A60FFF7CCFB534D0646E8
:100E80006B6F98077FF54AAFFFF7C4FB801B022802
:100E9000F6D978E74D4B1A6C12F0805228D10192A6
:100EA0001A6C42F080521A641B6C03F08053019359
:100EB000019B0126484D2B68D9051BD5A368434DDE
:100EC000012B27D12B6F43F001032B67FFF7A2FB08
:100ED0003E4D074641F288382B6F9B0739D5002ECF
:100EE0003FF420AF394A136C23F08053136419E7A1
:100EF0000026DFE72B6843F480732B60FFF78AFB43
:100F000007462B68DA05D9D4FFF784FBC01B0228FB
:100F1000F7D938E7052B04D12B6F43F004032B6777
:100F2000D0E72A6F22F001022A672A6F22F004021A
:100F30002A67002BCAD1FFF76DFB41F288380746BC
:100F40002B6F9807CBD5FFF765FBC01B4045F7D942
:100F500019E7FFF75FFBC01B4045BDD913E71B4DE9
:100F6000AB6803F00C03082B3FF4CAAE1B4E002302
:100F7000022A336034D1FFF74DFB07462B689901F5
:100F80001ED4226AE3691343626A43EA8213E26A67
:100F900043EA0263A26A0D4C5208013A43EA024353
:100FA0006B6001233360FFF735FB054623689A0128
:100FB0003FF5BCAEFFF72EFB401B0228F6D9E2E658
:100FC000FFF728FBC01B0228D8D9DCE60038024016
:100FD00000004742800E47420070004060004742D8
:100FE000FFF718FB04462B689B017FF59FAEFFF7C8
:100FF00011FB001B0228F6D9C5E600BF134908B54E
:101000008B6803F00C03042B03D0082B03D010488B
:1010100008BD104808BD4A684B68496813F480034E
:1010200014BF0C480A48C1F3881118BF002302F00E
:101030003F02A1FB0001FFF71BF9044B5B68C3F300
:10104000014301335B00B0FBF3F008BD0038024000
:101050000024F40000127A002DE9F0410D46044608
:1010600010B90120BDE8F081444B1A6802F00F026C
:101070008A4228D321688F072DD4C80740D43F4B1C
:101080001A6802F00F02954266D3226851076CD4A9
:10109000130707D53A4A2169936823F4604343EA6A
:1010A000C1039360FFF7AAFF354B364A9B68C3F331
:1010B0000313D35CD840344B18600020FFF760FA6C
:1010C0000020BDE8F081CAB21A701B6803F00F035C
:1010D0009942C6D1CEE72A4B11F0040F1EBF9A6881
:1010E00042F4E0529A600E0742BF9A6842F46042AE
:1010F0009A609A68A06822F0F00202439A60BCE706
:1011000062681F4B012A1DD11B6813F4003FA8D051
:101110001B4EB36823F003031343B360FFF77AFA5F
:1011200041F288380746B368626803F00C03B3EBFA
:10113000820FA4D0FFF76EFAC01B4045F3D90320FD
:10114000BDE8F081911E01291B6802D813F0007FD1
:10115000DDE713F0020FDAE7EAB21A701B6803F05A
:101160000F039D427FF47DAF8FE70549E0688B68F0
:1011700023F4E05303438B608AE700BF003C024046
:1011800000380240E83B000828000020044B054AD4
:101190009B68C3F38223D35C034A1068D84070472E
:1011A00000380240F83B000828000020044B054AA4
:1011B0009B68C3F34233D35C034A1068D84070473E
:1011C00000380240F83B00082800002010B5044613
:1011D000002836D00023836290F8513003F0FF02DC
:1011E0001BB980F8502001F077FA2168A068A26945
:1011F000022384F851300B6823F040030B606368CE
:101200000343E06803432069034360690343E069E3
:101210000343206A0343A06A034302F400700343BC
:101220000B60120C636A02F004021A434A60CB6935
:1012300023F40063CB6100200123606584F8513002
:1012400010BD012010BD0000036A23F001030362FA
:10125000036A426870B584690D6824F073042543FD
:101260008C6823F0020323430C4CA04209D004F500
:101270008064A04205D042604A688561426303628F
:1012800070BDCC688E6923F0080323434C6922F4B7
:101290004072344323F004032243ECE70000014092
:1012A000036A23F480730362036A426870B5C469F9
:1012B0000D6824F0730425438C6823F4007343EA1B
:1012C00004230E4CA04209D004F58064A04205D04E
:1012D00042604A68C561C263036270BDCC688E69B2
:1012E00023F4006343EA04234C6922F4405234435C
:1012F00023F4806342EA0412EAE700BF00000140E1
:10130000036A23F48053036230B5046A4368C269F8
:101310000D6822F4E64242EA05228D6824F4005466
:1013200044EA0534094DA84209D005F58065A84274
:1013300005D043604B68C2610364046230BD4D69EF
:1013400023F4804343EA8513F3E700BF0000014024
:101350000368DA6842F00102DA601A6842F00102BA
:101360001A60002070477047036889B1042907D0CC
:101370001A6A22F001021A621A6A42F001021A6223
:101380001A6A22F010021A621A6A42F0100206E08B
:101390001A6A22F001021A621A6A42F001021A6203
:1013A0001A6842F001021A600020704790F8383045
:1013B000012B70B54FF002031CD080F83930036860
:1013C000012280F838209A6822F47F4222F07702C6
:1013D0009A600A68402A79D019D8102A00F09380C0
:1013E0000AD8002A00F08980012380F839300023D0
:1013F00080F83830184670BD202A00F08A80302AE4
:10140000F2D19A6822F0700242F0370236E0702A78
:1014100036D01BD8502A42D0602AE5D11C6A4D68CC
:10142000CE6824F010041C6299691A6A21F4704194
:1014300022F0A00242EA051241EA063199611A62DD
:101440009A6822F0700242F0670217E0B2F5805FFE
:1014500011D0B2F5005FC7D18A684D689C68C96831
:101460002A4324F47F4442EA012222439A609A6884
:1014700042F4804202E09A6822F007029A60B3E7E1
:101480008A684D689C68C9682A4324F47F4442EA0C
:10149000012222439A609A6842F07702EEE74C6894
:1014A000CE68196A1D6A25F001051D629A6921F04E
:1014B0000A0122F0F00242EA061221439A611962FF
:1014C0009A6822F0700242F05702D7E74C68CE6863
:1014D000196A1D6A25F001051D629A6921F00A0149
:1014E00022F0F00242EA061221439A6119629A68D8
:1014F00022F0700242F04702C0E79A6822F07002C0
:1015000042F00702BAE79A6822F0700242F017022E
:10151000B4E79A6822F0700242F02702AEE7704703
:1015200070477047704703681A69910710B5044601
:101530000ED5DA6892070BD56FF002021A619B692B
:1015400001229B07027677D0FFF7EAFF002323767C
:1015500023681A69500710D5DA6851070DD56FF066
:1015600004021A619B69022213F4407F227620460E
:1015700068D0FFF7D5FF0023237623681A69120786
:101580000FD5DA6810070CD56FF008021A61DB6915
:1015900004229907227620465AD0FFF7C1FF002384
:1015A000237623681A69D20610D5DA68D0060DD5DD
:1015B0006FF010021A61DB69082213F4407F227673
:1015C00020464BD0FFF7ACFF0023237623681A692F
:1015D000D10708D5DA68D20705D56FF001021A6184
:1015E000204600F077FE23681A69100608D5DA68ED
:1015F000110605D56FF080021A61204600F0F3F95C
:1016000023681A69520608D5DA68500605D56FF0C6
:1016100040021A612046FFF785FF23681A69910688
:1016200022D5DA6892061FD56FF0200220461A6193
:10163000BDE8104000F0D6B9FFF771FF2046FFF774
:1016400070FF83E7FFF76BFF2046FFF76AFF92E723
:10165000FFF765FF2046FFF764FFA0E7FFF75FFF96
:101660002046FFF75EFFAFE710BD00002E4A03687B
:10167000904212D0B0F1804F0FD0A2F57C42904240
:101680000BD002F58062904207D002F58062904252
:1016900003D002F5784290421DD14A6823F07003CE
:1016A0001343214A904204D1CA6823F44073134380
:1016B00028E0B0F1804FF7D01C4A9042F4D002F5F8
:1016C00080629042F0D002F580629042ECD002F548
:1016D00078429042E8D0164A9042E5D002F5806206
:1016E0009042E1D002F580629042DDD0A2F59832BE
:1016F0009042D9D002F580629042D5D002F5806246
:101700009042D1D003608B68C3620B688362064B42
:10171000984206D003F58063984202D001234361CA
:1017200070470B690363F9E70000014000040040C3
:101730000040014010B50446A0B190F8393003F0E4
:10174000FF021BB980F8382001F04CF9022384F81D
:1017500039302068211DFFF789FF012384F83930D3
:10176000002010BD012010BD10B50446A0B190F8B6
:10177000393003F0FF021BB980F83820FFF7F3FD82
:10178000022384F839302068211DFFF76FFF012301
:1017900084F83930002010BD012010BDF8B50C468A
:1017A0000546002841D090F8393003F0FF021BB9FC
:1017B00080F8382001F0BAF82946022351F8040BCA
:1017C00085F83930836823F007038360FFF74EFF05
:1017D0002868236886688269A168076A1E43A3692E
:1017E00022F4407222F0030241EA0323134323F45C
:1017F0007C422369E1691B0143EA0123E1680B4351
:10180000216A22F0FC0243EA01331343616927F0A5
:10181000AA026768866047EA0117836117430123BC
:10182000076285F839300020F8BD0120F8BD0000BE
:10183000036A23F010030362036A426870B5846987
:101840000D6824F4E64444EA05258C6823F020035F
:1018500043EA04130D4CA04209D004F58064A04271
:1018600005D042604A6885618263036270BDCC68BE
:101870008E6923F0800343EA04134C6922F440622A
:10188000344323F0400342EA8402EAE700000140C7
:1018900038B590F83830012B04464FF0020025D0BF
:1018A000012384F8383084F839000C2A18D8DFE88E
:1018B00002F0071717171E1717172F1717174000D3
:1018C0002068FFF7C1FC236809699A6942F00802A1
:1018D0009A619A6922F004029A619A690A439A61AC
:1018E0000123002084F8393084F8380038BD20689E
:1018F000FFF79EFF236809699A6942F400629A61C2
:101900009A6922F480629A619A6942EA0122E6E7C2
:101910002068FFF7C5FC23680969DA6942F008020C
:10192000DA61DA6922F00402DA61DA690A43DA611B
:10193000D6E72068FFF7E4FC23680969DA6942F416
:101940000062DA61DA6922F48062DA61DA6942EA15
:101950000122ECE7036A10B501248C4023EA04035A
:101960000362036A8A401A43026210BD10B504463E
:1019700001220068FFF7EEFF2368084A934203D074
:1019800002F58062934203D15A6C42F400425A64D9
:101990001A6842F001021A60002010BD00000140E8
:1019A00090F83830012B10B54FF0020318D080F8B2
:1019B000393003680C685A68496822F070025A602E
:1019C0005A6822435A609A6822F080029A609A68A4
:1019D0000A439A60012380F83930002380F83830B8
:1019E000184610BD704770472DE9F0470668C26879
:1019F0003369C16923F44053134333610446836858
:101A00000069F2680343606922F41642034322F03E
:101A10000C020B431343F3607369A26923F4407310
:101A20001343B1F5004F73617A4B7CD19E4203D0D2
:101A300003F580639E4244D1FFF7B8FB192505FBEF
:101A400000F360684FF064094000B3FBF0F3B3FBB0
:101A5000F9F34FEA0318FFF7A9FB636868435B00DB
:101A6000B0FBF3F7FFF7A2FB636868435B00B0FBD2
:101A7000F3F3B3FBF9F309FB1373DB003233B3FB6E
:101A8000F9F35B0003F4F877FFF790FB62686843B3
:101A90005200B0FBF2FAFFF789FB636868435B0012
:101AA000B0FBF3F3B3FBF9F309FB13A3DB00323311
:101AB000B3FBF9F303F0070343443B44B360BDE8D1
:101AC000F087FFF763FB192505FB00F360684FF013
:101AD00064094000B3FBF0F3B3FBF9F34FEA0318DA
:101AE000FFF754FB636868435B00B0FBF3F7FFF755
:101AF0004DFB636868435B00B0FBF3F3B3FBF9F3A2
:101B000009FB1373DB003233B3FBF9F35B0003F41F
:101B1000F877FFF73BFB626868435200B0FBF2FACC
:101B2000FFF734FBB9E79E4202D03B4B9E4240D1C7
:101B3000FFF73CFB676819254FF0640905FB00F3CC
:101B4000BF00B3FBF7F3B3FBF9F31F01FFF72EFB65
:101B5000636868439B00B0FBF3F8FFF727FB6368FB
:101B600068439B00B0FBF3F3B3FBF9F309FB13836A
:101B70001B013233B3FBF9F303F0F008FFF716FB58
:101B8000626868439200B0FBF2FAFFF70FFB6368EC
:101B900068439B00B0FBF3F3B3FBF9F309FB13A31A
:101BA0001B013233B3FBF9F303F00F0343EA0803DD
:101BB00083E7FFF7EBFA676819254FF0640905FB27
:101BC00000F3BF00B3FBF7F3B3FBF9F31F01FFF71B
:101BD000DDFA636868439B00B0FBF3F8FFF7D6FAC1
:101BE000636868439B00B0FBF3F3B3FBF9F309FBB5
:101BF00013831B013233B3FBF9F303F0F008FFF753
:101C0000C5FA626868439200B0FBF2FAFFF7BEFAC9
:101C1000BDE700BF0010014000140140F8B50446C4
:101C20000E4617461D4621680B6836EA030301D1AC
:101C30000020F8BD6B1CF7D095B92368DA6822F450
:101C4000D072DA605A6922F001025A61202384F8C6
:101C5000393084F83A30002384F838300320F8BD56
:101C6000FEF7D8FCC01B8542DDD2E6E710B504467E
:101C700040B390F8393003F0FF021BB980F83820E8
:101C800000F0B6FF2268242384F83930D36823F4A7
:101C90000053D3602046FFF7A7FE23681A6922F499
:101CA00090421A615A6922F02A025A61DA6842F4B3
:101CB0000052DA6000202023E06384F8393084F891
:101CC0003A3010BD012010BD2DE9F0411F4690F8BB
:101CD0003930202B04460D4690464FD100294AD07A
:101CE000002A48D090F83830012B47D0012380F8E3
:101CF00038300023C363212380F83930FEF78AFC93
:101D0000A4F824800646A4F82680E38C9BB26BB925
:101D10003B46324640212046FFF780FFB0B92023E2
:101D200084F8393084F83800BDE8F081E38C013B59
:101D30009BB2E384A368B3F5805F32463B464FF025
:101D4000800120460ED1FFF769FF10B10320BDE8E6
:101D5000F0812B882268C3F308035360236943B9D9
:101D60000235D2E7FFF75AFF0028EFD123682A781F
:101D70005A600135C9E70120BDE8F0810220BDE8C5
:101D8000F08190F83A30202B1CD1C9B1C2B190F843
:101D90003830012B16D0C285828500232222C363EE
:101DA00080F83A2002688162516980F8383041F049
:101DB00001015161D16841F49071D16018467047BA
:101DC000012070470220704730B585B010220021F5
:101DD000684600F0C1FF1148114A00244FF48033D7
:101DE000012580E81C000F4B046184610462C46219
:101DF0008362C460C56104634561FEF711FC08B1EC
:101E000000F066FA6946054802948DE83000FEF756
:101E1000D9FC08B100F05CFA05B030BDBC00002070
:101E2000002001400100000F30B514228BB00446A1
:101E300000210DEB020000F08FFF2268234B9A4235
:101E400041D103F58C33002401945A6C204842F4AC
:101E500080725A645A6C02F480720192019A029460
:101E60001A6B42F004021A631A6B02F00402029227
:101E7000029A03941A6B42F001021A631A6B02F081
:101E800001020392039A04941A6B42F002021A634D
:101E90001B6B03F0020304930325049B06953F2369
:101EA00005A90593FEF7D0FDFF2305A90948059371
:101EB00006950794FEF7C8FD05A907480595069500
:101EC0000794FEF7C1FD0BB030BD00BF00200140FC
:101ED0000008024000000240000402402DE9F047E3
:101EE0008CB01422002107A800F036FF00244D4BCF
:101EF00001941A6B4C4FDFF834A1DFF83491DFF80E
:101F0000348142F080021A631A6B02F0800201925F
:101F1000019A02941A6B42F004021A631A6B02F0DF
:101F200004020292029A03941A6B42F001021A63AD
:101F30001A6B02F001020392039A04941A6B42F0A6
:101F400002021A631A6B02F002020492049A0594C8
:101F50001A6B42F010021A631A6B02F0100205921B
:101F6000059A06941A6B42F008021A631B6B03F081
:101F700008030693224638464FF6FE71069BFEF78D
:101F800043FE224650464FF4C051FEF73DFE01226B
:101F900011463846FEF738FE224648460821FEF72D
:101FA00033FE012240460321FEF72EFE4FF470431C
:101FB00007A9404601250326079308940994FEF7D4
:101FC00043FD4FF6FE7307A9384607930895099419
:101FD0000A96FEF739FD4FF4C05307A95046079300
:101FE000089509940A94FEF72FFD07A9384607952E
:101FF000089509940A96FEF727FD082307A9484685
:102000000793089509940A94FEF71EFD07A9404618
:102010000796089509940A96FEF716FD0CB0BDE8E0
:10202000F08700BF00380240000C02400000024070
:10203000000402400010024008B50C480C4BDFF8C9
:1020400034E04FF4804280E8084000238360C3609E
:10205000026143618361C3610362FEF7DFFD18B172
:10206000BDE8084000F034B908BD00BF04010020FD
:1020700000540040A086010008B50C480C4BDFF866
:1020800034E04FF4804280E8084000238360C3605E
:10209000026143618361C3610362FEF7BFFD18B152
:1020A000BDE8084000F014B908BD00BF5801002089
:1020B00000580040A086010030B514228BB00446C1
:1020C00000210DEB020000F047FE2368284A9342EE
:1020D00025D1284C284800250195236B43F00203A5
:1020E0002363236B03F002030193019BC023059339
:1020F00012230693012307930323089305A90423BE
:102100000993FEF7A1FC0295236C43F400132364AA
:10211000236C03F400130293029B0BB030BD174AEB
:102120009342FAD1134C144800250395236B43F0D6
:1021300002032363236B03F002030393039B4FF417
:102140004063059312230693012307930323089307
:1021500005A904230993FEF777FC0495236C43F447
:1021600080032364236C03F480030493049BD4E76B
:102170000054004000380240000402400058004073
:1021800010B50A231446034892B2FFF79DFD20467E
:1021900010BD00BF6C09002030B595B03022002181
:1021A00008A800F0D9FD0021142203A800F0D4FDF6
:1021B00000241C4B01941A6C42F080521A641B6C70
:1021C00003F080530193019B174B02941A6842F469
:1021D00080421A601B6803F480430293029B012330
:1021E00008934FF4803309934FF480030225A8220B
:1021F0000F9308A804231093119213930E95129530
:10220000FEF77AFD0F2303934FF4A05306930521A5
:102210004FF4805303A8049505940793FEF71CFF21
:1022200015B030BD003802400070004008B5FEF720
:10223000CBF9FFF7B1FFFFF751FE00F045FCFFF7C8
:10224000C3FD00F09DFCFFF7F7FE00F01FFB00F060
:10225000FDFA00F03DFB00F0AFFC00F01BFAFFF7C9
:102260000BFF00F0C7FA012211491248104E114D20
:10227000FFF787FD0024104B10481C602146FFF734
:1022800075FB04210D48FFF771FB21460C480D4CEE
:10229000FFF76AF80C48FFF75BF831460122284641
:1022A000FFF76FFD2188094889B200F05DFDF4E772
:1022B000AC0100206C090020D40500207C0800201F
:1022C00040080020D805002030090020DC3B000831
:1022D00070470000F8B50268C34B9A42064640F0CA
:1022E0006E810221C148C24CC24DFEF792FCC24829
:1022F000FEF73AFA4FF07E53C4F8F831C5F8F831DA
:10230000BE4B9FEDBF7A5B6A9BB2238023889BB252
:10231000B3F5806F238884BF6FF400629B181BB2F3
:10232000A380A3881BB207EE903AF8EEE77A67EE37
:10233000877AC4ED027AD4ED027A94ED037A77EECF
:10234000877AC4ED037AD4ED077A94ED037A77EEB9
:10235000C77A9FEDAC7AC4ED087AA3881BB207EE6A
:10236000903AF8EEE77A67EE877AC4ED097A94ED51
:102370000D7AD4ED0C7AB4EEE77AF1EE10FA15DDB1
:10238000D4ED7F6A9FEDA07AD4ED0C7AE6EE877AE1
:10239000C4ED0C7A94ED0D7AD4ED0C7AB4EEE77AB4
:1023A000F1EE10FA1ED5636B23631BE094ED0D7AFA
:1023B000D4ED0C7AB4EEE77AF1EE10FA12D5D4ED42
:1023C0007F6A9FED917AD4ED0C7AE6EEC77AC4ED80
:1023D0000C7A94ED0D7AD4ED0C7AB4EEE77AF1EE46
:1023E00010FAE0DC636A636694ED7C6ADFED877A5D
:1023F00094ED7D7AC6EE276A632337EE667A84ED24
:102400007D7A03F1170204EB8202516803F118028E
:1024100004EB8202013B5160F3D194ED196AD4EDD3
:102420007D6A86EE277A77EE267AC4ED7D7AE0889B
:1024300002B2012A764A5FD1D4ED097AF5EE407AEC
:10244000F1EE10FA58D11188013189B2118011884A
:1024500089B2032902D96F490880138094ED117A5B
:10246000D4ED127A77EEC77AC4ED127A236C6364E6
:10247000E36B2364A36BE363D4ED0C7A94ED097AE8
:1024800077EEC77AC4ED0E7AD4ED0E7A94ED127A17
:1024900077EE877AC4ED127AD4ED047A94ED0E7A51
:1024A00067EE877AC4ED137AD4ED066AD4ED0E7A1E
:1024B000D4ED115A94ED0F7A94ED106A77EEE57A27
:1024C00037EE467A77EE877A67EEA67AC4ED147A0D
:1024D000D4ED057A94ED127A67EE877AC4ED157A19
:1024E00094ED157AF1EE047AB4EEE77AF1EE10FA93
:1024F00006DDC4ED157A0CE000231380454AACE7F5
:1025000094ED157AF9EE047AB4EEE77AF1EE10FA6A
:10251000EFD4D4ED137A94ED146AD4ED156A94EDEA
:10252000167A3D4B3D4F77EE867A77EEA67A77EEB8
:10253000877AC4ED167A1B889BB2012B40F0A180EC
:10254000D4ED167A94ED167AF5EEC07AF1EE10FA23
:102550007CDBDFED337A3348B4EEE77AF1EE10FA44
:102560004FF001024FF48051C8BFC4ED167AFEF758
:102570004BFB002201212C48FEF746FBA36DE365CF
:10258000D4ED177A3B68FCEEE77AC3ED0D7A274A63
:102590002748138801339BB213806388254A01338F
:1025A0009BB263806B8801339BB26B8013680133ED
:1025B0001360214A136801331360FEF7C9FE3268C5
:1025C0001E4B9A420ED11E4B1E4A196852F821101A
:1025D000154A91611A6801321A601A68082AC4BF44
:1025E00000221A60F8BD00BF001400400010024035
:1025F000D8050020D0030020BC00002000040140CA
:10260000FCD3B73F0585B3446F12033A0000C842BC
:10261000BA030020BE030020BC0300207C08002079
:10262000003C034600080240000C0240B8030020B2
:10263000B8080020C4030020D80700200010004084
:10264000D405002008000020003C03C65FED027A9C
:102650000E48B4EEE77A0122F1EE10FA114648BFB7
:10266000C4ED167AFEF7D0FA00224FF480510848E4
:10267000FEF7CAFAD4ED167AF1EE677AC4ED177A4E
:102680007EE73B6800225A6381E700BF000C0240EE
:102690000008024008B50E480E4B4FF4827E80E8D9
:1026A000084000238360C360036143614FF48022CC
:1026B000C3610362436283620A238261C362FEF7DD
:1026C00085FD18B1BDE80840FFF702BE08BD00BF98
:1026D000E80700200038004010B5044688B01422F6
:1026E000002103A800F038FB2268144B9A4223D142
:1026F00003F50033002101911A6C114842F4804225
:102700001A641A6C02F480420192019A02911A6BC7
:1027100042F002021A631B6B03F002030293029B56
:102720004FF470430393022304930323069303A9F6
:1027300005230793FEF788F908B010BD0038004064
:102740000004024082B00C4B002100915A6C42F40C
:1027500080425A645A6C02F480420092009A0191BD
:102760001A6C42F080521A641B6C03F08053019380
:10277000019B02B0704700BF003802407047FEE77F
:10278000FEE7FEE7FEE7704770477047FDF736BF8C
:102790000148FEF7C8BE00BFB80800200148FEF798
:1027A000C2BE00BF300900200F49D1F8883043F481
:1027B0007003C1F888300D4B1A68002042F0010206
:1027C0001A6098601A6822F0847222F480321A60CB
:1027D000074A5A601A6822F480221A60D8604FF0C3
:1027E00000638B60704700BF00ED00E000380240DE
:1027F0001030002410B58CB00021242203A800F072
:10280000ABFA1048104B002480E8180003A90123FC
:10281000019402948460C46004614461039305934D
:102820000993FEF7BBFF08B1FFF752FD01A9054868
:1028300001940294FFF7B4F808B1FFF749FD0CB01A
:1028400010BD00BFF40800200000014013B50D4A80
:102850000D482923002480E80C00312300940194C2
:102860008460C360FEF766FF08B1FFF731FD69467B
:10287000054800940194FFF793F808B1FFF728FD8D
:1028800002B010BD00100040B808002013B50E4A79
:102890000E482923002480E80C0040F2E73300941E
:1028A00001948460C360FEF745FF08B1FFF710FD97
:1028B0006946064800940194FFF772F808B1FFF7E3
:1028C00007FD02B010BD00BF001400403009002019
:1028D00010B58CB00021242203A800F03DFA114865
:1028E000114B002480E818004FF48063C36003A9F3
:1028F000012301940294846004614461039305936D
:102900000993FEF74BFF08B1FFF7E2FC01A9054868
:1029100001940294FFF744F808B1FFF7D9FC0CB01A
:1029200010BD00BF400800200004014010B5142273
:102930008AB0044600210DEB020000F00DFA236876
:10294000234A934222D1234B2348002101915A6C00
:1029500042F001025A645A6C02F001020192019A9B
:1029600002911A6B42F010021A631B6B03F0100302
:102970000293029B4FF420630593022306930123E5
:10298000099305A9FEF760F80AB010BD134A9342F7
:10299000FAD1104B1248002103915A6C42F0020206
:1029A0005A645A6C02F002020392039A04911A6B61
:1029B00042F004021A631B6B03F004030493049BAC
:1029C000C0230593022306930323099305A9D9E79E
:1029D00000000140003802400010024000040140A5
:1029E000000802401FB503681E4A93420ED100231F
:1029F00001931D4B1A6C42F002021A641B6C03F027
:102A000002030193019B05B05DF804FB174A934252
:102A100013D10022144B0292196C41F01001196479
:102A20001B6C03F01003029336201146029BFDF746
:102A300071FF3620FDF7A2FFE5E70D4A9342E2D190
:102A40000022094B0392196C41F0200119641B6CA0
:102A500003F02003039337201146039BFDF75AFF31
:102A60003720E7E700040040003802400010004033
:102A70000014004010B5044686B01422002101A8BD
:102A800000F06AF922680D4B9A4214D1002300939A
:102A90000B4B0C481A6B42F002021A631B6B03F0DB
:102AA00002030093009B3023019301A902230293A8
:102AB0000593FDF7C9FF06B010BD00BF000400403C
:102AC000003802400004024010B58EB010220021F0
:102AD00003A800F041F900241C2221460DEB02005E
:102AE0000194029400F038F92348244B846080E874
:102AF000180042F2CF03C3600461FEF71BFE08B169
:102B0000FFF7E6FB4FF4805303A91B480393FEF73E
:102B10004DFC08B1FFF7DCFB1748FEF725FE08B1B6
:102B2000FFF7D6FB002301A9134801930293FEF798
:102B300037FF08B1FFF7CCFB60230022079307A9FA
:102B400041F267030C48089309920B92FEF7A0FE2E
:102B500008B1FFF7BDFB41F69B03042207A9064815
:102B60000893FEF795FE08B1FFF7B2FB0248FFF7A6
:102B700081FF0EB010BD00BF7C08002000040040A3
:102B800008B50B480B4B4FF4E13E80E808400C229F
:102B900000238360C360036142618361C361FFF707
:102BA00065F818B1BDE80840FFF792BB08BD00BF4B
:102BB000AC0900200010014008B50B480B4B4FF446
:102BC000E13E80E808400C2200238360C36003617B
:102BD00042618361C361FFF749F818B1BDE808405D
:102BE000FFF776BB08BD00BF6C090020004800401D
:102BF00010B514228AB0044600210DEB020000F04B
:102C0000ABF82368284A934226D1284B2848002154
:102C100001915A6C42F010025A645A6C02F0100290
:102C20000192019A02911A6B42F001021A631B6B26
:102C300003F001030293029B4FF4C0630593022348
:102C4000069301230793032308930723099305A9F8
:102C5000FDF7FAFE0AB010BD164A9342FAD1134BA3
:102C60001548002103911A6C42F480221A641A6CF0
:102C700002F480220392039A04911A6B42F0040238
:102C80001A631B6B03F004030493049B4FF440632B
:102C90000593022306930123079303230893072335
:102CA000099305A9D4E700BF001001400038024095
:102CB000000002400048004000080240DFF834D025
:102CC000002103E00C4B5B58435004310B480C4B84
:102CD00042189A42F6D30B4A02E0002342F8043B22
:102CE000094B9A42F9D3FFF75FFD00F011F8FFF7A7
:102CF0009DFA704700000220A83C00080000002058
:102D00009000002090000020F0090020FEE7000065
:102D100070B50D4E0D4CA41BA4100025A54209D181
:102D20000B4E0C4C00F04EFFA41BA4100025A54236
:102D300005D170BD56F8253098470135EEE756F8B5
:102D4000253098470135F2E7A03C0008A03C000878
:102D5000A03C0008A43C000802440346934200D172
:102D6000704703F8011BF9E70FB40A4B13B51C6851
:102D700024B1A36913B9204600F04EF805AB049ABC
:102D8000A1680193204600F059F902B0BDE8104057
:102D900004B070472C000020014900F0A9B800BF22
:102DA00011390008002310B50446036043608360B6
:102DB00081814366C28103614361836119460822B0
:102DC0005C30FFF7C9FF054B6362054BA362054BFF
:102DD000E362054B2462236310BD00BFB5350008D4
:102DE000D73500080F3600083336000870B54A1E84
:102DF000682555430E4605F1740100F097F8044626
:102E000040B1002180E842000C30A06005F168026A
:102E1000FFF7A2FF204670BD836910B5044633BB9F
:102E20008364C3640365124B124A1B688262984232
:102E300004BF0123836100F01FF86060204600F0AA
:102E40001BF8A060204600F017F80022E060042183
:102E50006068FFF7A7FF01220921A068FFF7A2FF22
:102E600002221221E068FFF79DFF0123A36110BD3C
:102E7000603C0008992D0008F8B51C4B1E68B3692A
:102E8000074613B93046FFF7C7FF4836B468736882
:102E9000013B03D5336833B13668F7E7B4F90C501A
:102EA0006DB16834F4E704213846FFF79FFF3060C6
:102EB0000028F1D10C233B6004462046F8BD4FF6B4
:102EC000FF73E3810123A38165662560A5606560CA
:102ED00025616561A5610822294604F15C00FFF7C0
:102EE0003BFF6563A563A564E564E6E7603C000815
:102EF0002DE9F8438046894600F14804002614B9BC
:102F00003046BDE8F883A5686768013F01D52468AD
:102F1000F5E7AB89012B07D9B5F90E30013303D0A2
:102F200029464046C84706436835EEE770B5CD1CD4
:102F300025F0030508350C2D38BF0C25002D06465D
:102F400001DBA94203D90C233360002070BD00F0DF
:102F50007FFD234A1468214691B9224C23681BB98E
:102F6000304600F017FB20602946304600F012FB87
:102F7000431C26D10C233360304600F06AFDE4E7A1
:102F80000B685B1B1AD40B2B0FD90B60CD50CC18E0
:102F9000304600F05EFD04F10B00231D20F0070019
:102FA000C31A1BD05A42E25070BD8C420DBF6368F9
:102FB0004B686360136018BF0C46E9E70C4649682C
:102FC000CAE7C41C24F00304A04205D0211A3046ED
:102FD00000F0E0FA0130CDD02560D9E770BD00BF28
:102FE000AC000020B00000209368013B002B10B41F
:102FF000936009DA9469A34202DBCBB20A2B03D1B6
:103000005DF8044B00F01ABB1368581C106019706F
:10301000C8B25DF8044B7047F8B506460F46144633
:10302000D518AC4201D1002007E03A4614F8011B44
:103030003046FFF7D9FF431CF3D1F8BD2DE9F04F1F
:103040009DB00C4617460393064618B183690BB929
:10305000FFF7E2FE7C4B9C4257D17468A3891807A6
:103060005DD52369002B5AD00023099320238DF8C6
:10307000293030238DF82A304FF0010BB8464546F1
:1030800015F8013B002B55D1B8EB070A0BD053467E
:103090003A4621463046FFF7BFFF013000F0C480BA
:1030A000099B5344099398F80030002B00F0BC8032
:1030B00000234FF0FF3204930793059206938DF897
:1030C00053301A93052229786048FDF781F805F1FD
:1030D0000108049B002831D1D90644BF20228DF875
:1030E00053201A0744BF2B228DF853202A782A2A0E
:1030F0002CD0079A00210A20A846013598F8003004
:10310000303B092B6DD971B326E0514B9C4201D164
:10311000B468A3E74F4B9C4208BFF4689EE7214682
:10312000304600F0EFFA00289ED04FF0FF301DB07F
:10313000BDE8F08F252BA7D0A846A0E7434A801A08
:103140000BFA00F0184304904546BBE7039A111DA3
:1031500012680391002A01DB079204E0524243F017
:1031600002030792049398F800302E2B10D198F8A0
:1031700001302A2B08F1010137D1039B1A1D1B686E
:103180000392002BB8BF4FF0FF3308F102080593FC
:10319000314D98F8001003222846FDF719F840B188
:1031A0004023401B03FA00F0049B0343049308F1FF
:1031B000010898F8001029488DF82810062208F117
:1031C0000107FDF705F8002834D0254B03BB039B0E
:1031D000073323F0070308330393099B4B440993F8
:1031E0004CE700FB0232012186E7002305931846D5
:1031F0000A258846013198F80020303A092A03D977
:10320000002BC5D00590C3E705FB00200123F0E7A4
:1032100003AB00932246134B04A93046AFF3008062
:10322000B0F1FF3F8146D8D1A3895B063FF57DAF62
:1032300009987CE703AB009322460A4B04A9304669
:1032400000F088F8ECE700BF203C0008643C000870
:10325000403C0008003C00086A3C00086E3C000846
:1032600000000000193000082DE9F04791461F4684
:103270008A680B69DDF820809342B8BF1346C9F80D
:10328000003091F8432006460C4612B10133C9F8CC
:1032900000302368990642BFD9F800300233C9F8DC
:1032A0000030256815F0060507D104F1190AE36816
:1032B000D9F800209B1A9D4229DB94F843302268FC
:1032C000003318BF012392062ED404F1430239467D
:1032D0003046C047013021D02368E568D9F8002086
:1032E00003F00603042B08BFAD1AA36822690CBFC4
:1032F00025EAE57500259342C4BF9B1AED184FF0EF
:1033000000091A344D451BD10020BDE8F087012388
:10331000524639463046C047013003D14FF0FF30A6
:10332000BDE8F0870135C2E7E1185A1C302081F86A
:103330004300224494F8451082F843100233C4E756
:103340000123224639463046C0470130E6D009F114
:103350000109D7E72DE9F04317460A7E85B06E2AAA
:10336000984606460C460C9B01F1430E00F0BC80CB
:103370001AD8632A2ED00AD8002A00F0C880582A0A
:1033800000F08A8004F1420584F842202AE0642A91
:1033900001D0692AF6D121681A6811F0800F23D074
:1033A000111D1960136827E0732A00F0B48008D853
:1033B0006F2A2AD0702AE5D10A6842F020020A60FA
:1033C00003E0752A21D0782ADCD1782284F84520C0
:1033D0006E4964E01A6801F14205111D1960136815
:1033E00084F842300123A3E011F0400F02F1040100
:1033F0001960D7D0B2F90030002B03DA2D225B42DE
:1034000084F8432062490A2217E02068196810F006
:10341000800F03D0081D18600B6806E010F0400F05
:1034200001F104001860F7D00B8859496F2A14BFC6
:103430000A220822002084F843006568A560002D58
:10344000C0F29C80206820F004002060002B3FD157
:10345000002D40F095807546082A0BD12368DA07C5
:1034600008D5236962689A42DEBF302305F8013C23
:1034700005F1FF35AEEB05032361CDF800803B4637
:1034800003AA21463046FFF7EFFE013055D14FF039
:10349000FF3005B0BDE8F08381F845203C49226843
:1034A000186812F0800F00F104051D6001D0036858
:1034B00002E05506FBD50388D00744BF42F0200246
:1034C00022601BB9226822F0200222601022B1E79C
:1034D0007546B3FBF2F002FB1033CB5C05F8013DFF
:1034E00003460028F5D1B7E708681A68496910F063
:1034F000800F04D0101D18601368196007E010F0E9
:10350000400F02F1040018601368F6D01980002300
:1035100023617546B1E71A68111D19601568626864
:1035200000212846FCF754FE08B1401B6060636828
:103530002361002384F843309FE723692A463946F4
:103540003046C0470130A2D023689B0707D500252D
:1035500004F11909E368039A9B1A9D4205DBE068B0
:10356000039B9842B8BF184693E701234A46394661
:103570003046C04701308AD00135EBE7002BA7D198
:103580000B7884F8423004F1420565E7863C000878
:10359000753C000838B5064C0023054608462360F4
:1035A00000F002FB431C02D1236803B12B6038BD3D
:1035B000EC09002010B50C46B1F90E1000F098FA95
:1035C0000028ABBF636DA3891B1823F48053ACBFE5
:1035D0006365A38110BD2DE9F0411F468B89DB0592
:1035E00005460C46164605D502230022B1F90E10F9
:1035F00000F0B8F9A389B4F90E1023F48053A38125
:1036000032463B462846BDE8F04100F069B810B5A7
:103610000C46B1F90E1000F0A5F9431CA38915BFA3
:10362000606523F4805343F48053A38118BFA381C2
:1036300010BDB1F90E1000F0D3B80000F8B50E4679
:103640001446054618B183690BB9FFF7E5FB214B1A
:103650009C422AD16C68A369A360A3891A072ED55E
:10366000236963B323692068C01A6369F6B298427C
:10367000374604DB2146284600F04AF928BBA368F8
:10368000013BA36023685A1C22601E7063690130ED
:10369000984204D0A389DB0719D50A2E17D12146F9
:1036A000284600F035F990B10FE00B4B9C4201D158
:1036B000AC68D0E7094B9C4208BFEC68CBE72146D9
:1036C000284600F01FF80028CCD04FF0FF373846CE
:1036D000F8BD00BF203C0008403C0008003C00084A
:1036E00038B5074C054608461146002222601A46A6
:1036F000FEF746FD431C02D1236803B12B6038BDA1
:10370000EC090020324B70B51D6806460C4625B109
:10371000AB6913B92846FFF77FFB2E4B9C420FD1B4
:103720006C68B4F90C309AB215072CD4D00611D4B9
:103730000922326043F04003A3814FF0FF3070BD97
:10374000254B9C4201D1AC68EBE7244B9C4208BF5F
:10375000EC68E6E7510712D5616B41B104F144030F
:10376000994202D0304600F075F900236363A389C3
:1037700023F02403A3810023636023692360A389CA
:1037800043F00803A38123694BB9A38903F4207391
:10379000B3F5007F03D02146304600F019F9A28925
:1037A00012F001030CD00023A36063695B42A361A4
:1037B000236953B9B4F90C3013F08000BAD170BD4D
:1037C000920758BF6369A360F2E70020F7E700BFE4
:1037D0002C000020203C0008403C0008003C000871
:1037E00038B5064C002305460846236000F0B4F9BE
:1037F000431C02D1236803B12B6038BDEC090020C3
:103800008A892DE9F041054610070C465AD44B68C9
:10381000002B05DC0B6C002B02DC0020BDE8F081E6
:10382000E66A002EF9D0002312F480522F682B6034
:1038300033D0606DA3895A0705D56368C01A636BDE
:103840000BB1236CC01A00230246E66A216A28469F
:10385000B047431CA38906D129681D294BD82B4AA0
:10386000CA40D60747D500226260D9042269226087
:1038700004D5421C01D12B6803B96065616B2F60D0
:103880000029CAD004F14403994202D0284600F02E
:10389000E1F800206063BDE8F081216A0123284639
:1038A000B047411CC6D12B68002BC3D01D2B01D0C3
:1038B000162B01D12F60B0E7A38943F04003A38109
:1038C000BDE8F0810F69002FA7D093070E6808BFED
:1038D0004B690F6018BF0023A6EB07088B60B8F197
:1038E000000F9ADD43463A46216AA66A2846B04749
:1038F000002807DCA38943F04003A3814FF0FF3089
:10390000BDE8F0810744A8EB0008E8E7010040208B
:1039100038B50B6905460C46DBB118B183690BB9A4
:10392000FFF77AFA0C4B9C4209D16C68B4F90C3061
:103930007BB121462846BDE83840FFF761BF074B01
:103940009C4201D1AC68F1E7054B9C4208BFEC6892
:10395000ECE7002038BD00BF203C0008403C0008D8
:10396000003C000838B5074C0546084611460022C1
:1039700022601A4600F008F9431C02D1236803B103
:103980002B6038BDEC09002070B50E46B1F90E1061
:10399000002990B014461D4607DA00232B60B38936
:1039A0001A0610D44FF480630EE001AA00F0B2F8BA
:1039B0000028F2DB029A02F47042A2F500535A4248
:1039C0005A412A60EEE740230020236010B070BD0A
:1039D0008B8973B59D0706460C4607D504F147034E
:1039E000236023610123636102B070BD01AB6A46AD
:1039F000FFF7CAFF009905463046FFF797FA48B926
:103A0000B4F90C309A05EFD423F0030343F002031A
:103A1000A381E3E70D4BB362A389206043F08003E9
:103A2000A381009B6361019B20615BB1B4F90E101F
:103A3000304600F081F828B1A38923F0030343F056
:103A40000103A381A3891D43A581CDE7992D00081A
:103A50007047704738B50546002945D051F8043CF9
:103A60000C1F002BB8BFE418FFF7F2FF1F4A1368C2
:103A7000104633B9636014602846BDE83840FFF74C
:103A8000E8BFA3420CD921686218934204BF1A68A8
:103A90005B68636004BF521822600460ECE7134661
:103AA0005A680AB1A242FAD919685818A0420BD133
:103AB00020680144581882421960DDD110685268AC
:103AC0005A6001441960D7E702D90C232B60D3E771
:103AD000206821188A4204BF11685268626004BFDE
:103AE000091821605C60C7E738BD00BFAC0000204A
:103AF00038B5074C054608461146002222601A4692
:103B000000F04AF8431C02D1236803B12B6038BD92
:103B1000EC09002038B5074C00230546084611463D
:103B2000236000F021F8431C02D1236803B12B600D
:103B300038BD00BFEC09002038B5064C002305460F
:103B40000846236000F018F8431C02D1236803B133
:103B50002B6038BDEC090020024B58221A604FF050
:103B6000FF307047EC090020024B58221A604FF0DA
:103B7000FF307047EC090020024B58221A600020E9
:103B8000704700BFEC090020024B58221A604FF02A
:103B9000FF307047EC090020024B58221A604FF0AA
:103BA000FF307047EC090020044B1968024609B940
:103BB00003491960186802441A607047B400002075
:103BC000F0090020F8B500BFF8BC08BC9E4670475D
:0C3BD000F8B500BFF8BC08BC9E4670476A
:103BDC00656E63203A202534640A0D000000000055
:103BEC0000000000010203040607080900000000A1
:103BFC0001020304000000000000000000000000AF
:103C0C0000000000000000000000000000000000A8
:103C1C000000000000000000000000000000000098
:103C2C000000000000000000000000000000000088
:103C3C000000000000000000000000000000000078
:103C4C000000000000000000000000000000000068
:103C5C000000000030000020232D302B2000686C69
:103C6C004C00656667454647003031323334353693
:103C7C0037383941424344454600303132333435CC
:0C3C8C00363738396162636465660000F9
:083C980008C6FF7F01000000D7
:043CA000B501000862
:043CA4009101000882
:103CA8000100000010000000000100FE000200FDFD
:103CB800000400FB000800F7001000EF002000DF00
:103CC800004000BF0080007F0024F4003000002086
:103CD80000000000203C0008403C0008003C0008B0
:103CE80000000000000000000000000000000000CC
:103CF80000000000000000000000000000000000BC
:103D080000000000000000000000000000000000AB
:103D1800000000000000000000000000000000009B
:103D2800000000000000000000000000000000008B
:0400000508002CBD06
:00000001FF
