:020000040800F2
:1000000000000220CD4600089D3F00089F3F0008E9
:10001000A13F0008A33F0008A53F00080000000022
:10002000000000000000000000000000A73F0008E2
:10003000A93F000800000000AB3F0008AD3F0008EA
:100040001D4700081D4700081D4700081D47000800
:100050001D4700081D4700081D4700081D470008F0
:100060001D4700081D4700081D4700081D470008E0
:100070001D4700081D4700081D4700081D470008D0
:100080001D4700081D4700081D4700081D470008C0
:100090001D4700081D4700081D4700081D470008B0
:1000A0001D4700081D4700081D4700081D470008A0
:1000B0001D4700081D4700081D4700081D47000890
:1000C0001D4700081D4700081D4700081D47000880
:1000D0001D4700081D470008B13F0008BD3F00084C
:1000E0001D4700081D4700081D4700081D47000860
:1000F0001D4700081D4700081D4700081D47000850
:100100001D4700081D4700081D4700081D4700083F
:10011000C93F00081D4700081D470008D53F0008DB
:10012000E13F00081D4700081D4700081D47000863
:100130001D4700081D4700081D4700081D4700080F
:100140001D4700081D4700081D4700081D470008FF
:100150001D4700081D4700081D4700081D470008EF
:100160001D4700081D4700081D4700081D470008DF
:100170001D4700081D4700081D470008000000003B
:080180001D4700081D4700089F
:1001900010B5054C237833B9044B13B10448AFF3C1
:1001A00000800123237010BDDC010020000000004E
:1001B0008083000808B5034B1BB103490348AFF324
:1001C000008008BD00000000E001002080830008DE
:1001D000034613F8012B002AFBD1181A0138704787
:1001E00001F0FF01102A2BDB10F0070F08D010F8E8
:1001F000013B013A8B422DD010F0070F42B3F6D1EC
:10020000F0B441EA012141EA014122F007047FF004
:1002100000070023F0E80256083C85EA010586EA5B
:10022000010685FA47F5A3FA87F586FA47F6A5FA97
:1002300087F68EB9EED1F0BC01F0FF0102F00702A3
:1002400032B110F8013B013A83EA010313B1F8D14E
:100250000020704701387047002D06BF354603382F
:10026000073815F0010F07D1013015F4807F02BF68
:10027000013015F4C03F0130F0BC0138704700BFB9
:1002800081F0004102E000BF83F0004330B54FEA47
:1002900041044FEA430594EA050F08BF90EA020FB4
:1002A0001FBF54EA000C55EA020C7FEA645C7FEA47
:1002B000655C00F0E2804FEA5454D4EB5555B8BF6A
:1002C0006D420CDD2C4480EA020281EA030382EADB
:1002D000000083EA010180EA020281EA0303362D6D
:1002E00088BF30BD11F0004F4FEA01314FF4801C40
:1002F0004CEA113102D0404261EB410113F0004F52
:100300004FEA03334CEA133302D0524263EB430308
:1003100094EA050F00F0A780A4F10104D5F1200EA6
:100320000DDB02FA0EFC22FA05F2801841F1000101
:1003300003FA0EF2801843FA05F359410EE0A5F1D5
:1003400020050EF1200E012A03FA0EFC28BF4CF006
:10035000020C43FA05F3C01851EBE37101F00045BC
:1003600007D54FF0000EDCF1000C7EEB00006EEBC9
:100370000101B1F5801F1BD3B1F5001F0CD3490853
:100380005FEA30004FEA3C0C04F101044FEA4452AA
:1003900012F5800F80F09A80BCF1004F08BF5FEA31
:1003A000500C50F1000041EB045141EA050130BD11
:1003B0005FEA4C0C404141EB010111F4801FA4F1B4
:1003C0000104E9D191F0000F04BF01460020B1FA09
:1003D00081F308BF2033A3F10B03B3F120020CDA41
:1003E0000C3208DD02F1140CC2F10C0201FA0CF01F
:1003F00021FA02F10CE002F11402D8BFC2F1200C84
:1004000001FA02F120FA0CFCDCBF41EA0C01904039
:10041000E41AA2BF01EB0451294330BD6FEA040482
:100420001F3C1CDA0C340EDC04F11404C4F120026D
:1004300020FA04F001FA02F340EA030021FA04F37F
:1004400045EA030130BDC4F10C04C4F1200220FAD6
:1004500002F001FA04F340EA0300294630BD21FA14
:1004600004F0294630BD94F0000F83F4801306BFDA
:1004700081F480110134013D4EE77FEA645C18BFCE
:100480007FEA655C29D094EA050F08BF90EA020F65
:1004900005D054EA000C04BF1946104630BD91EA5D
:1004A000030F1EBF0021002030BD5FEA545C05D160
:1004B0004000494128BF41F0004130BD14F580049F
:1004C0003CBF01F5801130BD01F0004545F0FE4113
:1004D00041F470014FF0000030BD7FEA645C1ABF48
:1004E000194610467FEA655C1CBF0B46024650EA7F
:1004F000013406BF52EA033591EA030F41F40021AB
:1005000030BD00BF90F0000F04BF0021704730B530
:100510004FF4806404F132044FF000054FF0000105
:1005200050E700BF90F0000F04BF0021704730B5C6
:100530004FF4806404F1320410F0004548BF40429B
:100540004FF000013EE700BF42004FEAE2014FEAF0
:1005500031014FEA02701FBF12F07F4393F07F4FCB
:1005600081F06051704792F0000F14BF93F07F4FFD
:10057000704730B54FF4607401F0004521F0004140
:1005800020E700BF50EA010208BF704730B54FF0C6
:1005900000050AE050EA010208BF704730B511F0CB
:1005A000004502D5404261EB41014FF4806404F103
:1005B00032045FEA915C3FF4DCAE4FF003025FEA85
:1005C000DC0C18BF03325FEADC0C18BF033202EB0D
:1005D000DC02C2F1200300FA03FC20FA02F001FA67
:1005E00003FE40EA0E0021FA02F11444C1E600BF06
:1005F00070B54FF0FF0C4CF4E06C1CEA11541DBFB9
:100600001CEA135594EA0C0F95EA0C0F00F0DEF883
:100610002C4481EA030621EA4C5123EA4C5350EA68
:10062000013518BF52EA033541F4801143F48013B9
:1006300038D0A0FB02CE4FF00005E1FB02E506F04A
:100640000042E0FB03E54FF00006E1FB03569CF09F
:10065000000F18BF4EF0010EA4F1FF04B6F5007FA5
:1006600064F5407404D25FEA4E0E6D4146EB060617
:1006700042EAC62141EA55514FEAC52040EA5E50A0
:100680004FEACE2EB4F1FD0C88BFBCF5E06F1ED84A
:10069000BEF1004F08BF5FEA500E50F1000041EB81
:1006A000045170BD06F0004646EA010140EA02002E
:1006B00081EA0301B4EB5C04C2BFD4EB0C0541EA50
:1006C000045170BD41F480114FF0000E013C00F365
:1006D000AB8014F1360FDEBF002001F0004170BD89
:1006E000C4F10004203C35DA0C341BDC04F11404A2
:1006F000C4F1200500FA05F320FA04F001FA05F22E
:1007000040EA020001F0004221F0004110EBD370FA
:1007100021FA04F642EB06015EEA430E08BF20EA26
:10072000D37070BDC4F10C04C4F1200500FA04F3C9
:1007300020FA05F001FA04F240EA020001F000415B
:1007400010EBD37041F100015EEA430E08BF20EACE
:10075000D37070BDC4F1200500FA05F24EEA020E16
:1007600020FA04F301FA05F243EA020321FA04F045
:1007700001F0004121FA04F220EA020000EBD370FC
:100780005EEA430E08BF20EAD37070BD94F0000FFC
:100790000FD101F00046400041EB010111F4801F30
:1007A00008BF013CF7D041EA060195F0000F18BFE1
:1007B000704703F00046520043EB030313F4801F1D
:1007C00008BF013DF7D043EA0603704794EA0C0FD7
:1007D0000CEA135518BF95EA0C0F0CD050EA4106ED
:1007E00018BF52EA4306D1D181EA030101F000416A
:1007F0004FF0000070BD50EA410606BF1046194692
:1008000052EA430619D094EA0C0F02D150EA01369D
:1008100013D195EA0C0F05D152EA03361CBF1046DE
:1008200019460AD181EA030101F0004141F0FE417D
:1008300041F470014FF0000070BD41F0FE4141F401
:10084000780170BD70B54FF0FF0C4CF4E06C1CEA01
:1008500011541DBF1CEA135594EA0C0F95EA0C0FB6
:1008600000F0A7F8A4EB050481EA030E52EA033571
:100870004FEA013100F088804FEA03334FF0805592
:1008800045EA131343EA12634FEA022245EA1115BF
:1008900045EA10654FEA00260EF000419D4208BF70
:1008A000964244F1FD0404F5407402D25B084FEA1D
:1008B0003202B61A65EB03055B084FEA32024FF4C9
:1008C00080104FF4002CB6EB020E75EB030E22BF26
:1008D000B61A754640EA0C005B084FEA3202B6EBE6
:1008E000020E75EB030E22BFB61A754640EA5C0095
:1008F0005B084FEA3202B6EB020E75EB030E22BF25
:10090000B61A754640EA9C005B084FEA3202B6EB25
:10091000020E75EB030E22BFB61A754640EADC00E4
:1009200055EA060E18D04FEA051545EA16754FEA46
:1009300006164FEAC30343EA52734FEAC2025FEA64
:100940001C1CC0D111F4801F0BD141EA00014FF0F3
:1009500000004FF0004CB6E711F4801F04BF0143C4
:100960000020B4F1FD0C88BFBCF5E06F3FF6AFAEE0
:10097000B5EB030C04BFB6EB020C5FEA500C50F170
:10098000000041EB045170BD0EF0004E4EEA1131F3
:1009900014EB5C04C2BFD4EB0C0541EA045170BDFA
:1009A00041F480114FF0000E013C90E645EA060E3E
:1009B0008DE60CEA135594EA0C0F08BF95EA0C0F6C
:1009C0003FF43BAF94EA0C0F0AD150EA01347FF4B4
:1009D00034AF95EA0C0F7FF425AF104619462CE78B
:1009E00095EA0C0F06D152EA03353FF4FDAE1046EE
:1009F000194622E750EA410618BF52EA43067FF43F
:100A0000C5AE50EA41047FF40DAF52EA43057FF4CE
:100A1000EBAE12E74FF0FF3C06E000BF4FF0010CD9
:100A200002E000BF4FF0010C4DF804CD4FEA410C3D
:100A30007FEA6C5C4FEA430C18BF7FEA6C5C1BD00A
:100A400001B050EA410C0CBF52EA430C91EA030F8B
:100A500002BF90EA020F0020704710F1000F91EAE8
:100A6000030F58BF994208BF90422CBFD8176FEAB6
:100A7000E37040F0010070474FEA410C7FEA6C5C84
:100A800002D150EA013C07D14FEA430C7FEA6C5C8B
:100A9000D6D152EA033CD3D05DF8040B704700BFB7
:100AA0008446104662468C461946634600E000BF05
:100AB00001B5FFF7B7FF002848BF10F1000F01BDD7
:100AC0004DF808EDFFF7F4FF0CBF012000205DF8A2
:100AD00008FB00BF4DF808EDFFF7EAFF34BF012027
:100AE00000205DF808FB00BF4DF808EDFFF7E0FFC0
:100AF00094BF012000205DF808FB00BF4DF808ED11
:100B0000FFF7CEFF94BF012000205DF808FB00BF77
:100B10004DF808EDFFF7C4FF34BF012000205DF859
:100B200008FB00BF4FEA410C7FEA6C5C02D150EA3F
:100B3000013C0AD14FEA430C7FEA6C5C02D152EAD5
:100B4000033C02D14FF0000070474FF001007047A6
:100B50004FEA410212F5001215D211D56FF47873E5
:100B6000B3EB625212D94FEAC12343F0004343EA88
:100B7000505311F0004F23FA02F018BF4042704763
:100B80004FF00000704750EA013005D111F00040ED
:100B900008BF6FF0004070474FF00000704700BF83
:100BA0004A0011D212F5001211D20DD56FF47873EC
:100BB000B3EB62520ED44FEAC12343F0004343EA41
:100BC000505323FA02F070474FF00000704750EA8C
:100BD000013002D14FF0FF3070474FF000007047F6
:100BE0004FEA4102B2F1E04324BFB3F5001CDCF14F
:100BF000FE5C0DD901F0004C4FEAC0024CEA507087
:100C0000B2F1004F40EB830008BF20F001007047B5
:100C100011F0804F21D113F13872BCBF01F00040B8
:100C2000704741F480114FEA5252C2F11802C2F1EA
:100C3000200C10FA0CF320FA02F018BF40F001006B
:100C40004FEAC1234FEAD32303FA0CFC40EA0C001D
:100C500023FA02F34FEA4303CCE77FEA625307D15A
:100C600050EA01331EBF4FF0FE4040F44000704791
:100C700001F0004040F0FE4040F40000704700BF2B
:100C800053B94AB9002908BF00281CBF4FF0FF31F3
:100C90004FF0FF3000F07AB9ADF1080C6DE904CEE9
:100CA00000F006F8DDF804E0DDE9022304B0704747
:100CB0002DE9F0478C460D460446089E002B51D185
:100CC0008A4217466DD9B2FA82FEBEF1000F0BD0F0
:100CD000CEF1200C01FA0EF520FA0CFC02FA0EF708
:100CE0004CEA050C00FA0EF44FEA174A250CBCFB3F
:100CF000FAF81FFA87F90AFB18CC45EA0C4508FBFD
:100D000009F3AB420AD9ED1908F1FF3280F02381D3
:100D1000AB4240F22081A8F102083D44ED1AA4B292
:100D2000B5FBFAF00AFB105544EA054400FB09F94B
:100D3000A14509D9E41900F1FF3380F00A81A145EA
:100D400040F2078102383C44A4EB090440EA084021
:100D50000021002E61D024FA0EF400233460736069
:100D6000BDE8F0878B4207D9002E54D0002186E8D9
:100D700021000846BDE8F087B3FA83F1002940F06E
:100D80008E80AB4202D3824200F2FA80841A65EB75
:100D900003050120AC46002E3FD086E81010BDE8C8
:100DA000F08712B90127B7FBF2F7B7FA87FEBEF159
:100DB000000F34D1EB1B3A0C1FFA87FC0121B3FB67
:100DC000F2F8250C02FB183345EA03450CFB08F347
:100DD000AB4207D9ED1908F1FF3002D2AB4200F265
:100DE000D1808046ED1AA3B2B5FBF2F002FB10559C
:100DF00043EA05440CFB00FCA44507D9E41900F1C3
:100E0000FF3302D2A44500F2B8801846A4EB0C04CC
:100E100040EA08409DE731463046BDE8F087CEF114
:100E2000200405FA0EF307FA0EF720FA04F83A0C3C
:100E300025FA04F448EA0308B4FBF2F14FEA184536
:100E400002FB11441FFA87FC45EA044501FB0CF341
:100E5000AB4200FA0EF409D9ED1901F1FF3080F030
:100E60008A80AB4240F2878002393D44EB1A1FFA78
:100E700088F5B3FBF2F002FB103345EA034500FBB3
:100E80000CF3AB4207D9ED1900F1FF386FD2AB423A
:100E90006DD902383D44EB1A40EA01418FE7C1F1B8
:100EA000200722FA07F88B4005FA01F448EA030309
:100EB00020FA07FE4FEA134CFD404EEA040EB5FB44
:100EC000FCF94FEA1E440CFB19551FFA83F844EA5B
:100ED000054509FB08F4AC4202FA01F200FA01FAF6
:100EE00008D9ED1809F1FF3043D2AC4241D9A9F13C
:100EF00002091D442D1B1FFA8EFEB5FBFCF00CFBF6
:100F000010554EEA054400FB08F8A04507D9E4183F
:100F100000F1FF3529D2A04527D902381C4440EA08
:100F20000940A4EB0804A0FB02894C45C6464D4687
:100F300015D312D056B1BAEB0E0364EB050404FAD4
:100F400007F7CB401F43CC40376074600021BDE8F9
:100F5000F0871846F8E69046E0E6C245EAD2B8EBDC
:100F6000020E69EB03050138E4E72846D7E740465F
:100F700091E78146BEE7014678E702383C4445E701
:100F8000084608E7A8F102083D442BE7704700BF78
:100F900038B50E4A0E4B054618784FF47A73B3FBFA
:100FA000F0F31068B0FBF3F000F0D2FA044658B941
:100FB0000F2D09D8024629464FF0FF3000F088FA7D
:100FC000044B20461D6038BD012038BD08000020BC
:100FD000000000200400002008B50B4B1A6842F402
:100FE00000721A601A6842F480621A601A6842F449
:100FF00080721A60032000F059FA0020FFF7C8FF42
:1010000002F0B0FF002008BD003C0240034A044B40
:1010100011681B780B441360704700BF0402002066
:1010200000000020014B1868704700BF0402002038
:1010300038B50446FFF7F6FF631C1CBF054B1B7851
:10104000054618BFE418FFF7EDFF401B8442FAD8AD
:1010500038BD00BF0000002010B50446002800F095
:101060009980036C23B9436480F83C3001F0B8FEEA
:10107000236CDB0600F18C80236C23F4885323F06F
:10108000020343F002032364434B5A6822F44032C4
:101090005A605A6861680A435A60236821695A682D
:1010A00022F480725A605A6842EA01225A605A68F1
:1010B000A16822F040725A605A680A435A609A68DE
:1010C000E16822F400629A609A680A439A603349A0
:1010D000A26A8A4250D0996821F07061996099683B
:1010E0000A439A609A68E16A22F040529A609A68CC
:1010F0000A439A609A68A16922F002029A609A688B
:1011000042EA41029A60226A002A3DD05A68616A26
:1011100042F400625A605A6822F460425A605A6887
:10112000013942EA41325A60DA6AE16922F4700216
:10113000DA62DA6A013942EA0152DA629A68216BAC
:1011400022F400729A609A6842EA41229A609A6890
:10115000616922F480629A609A68002042EA8122E2
:101160009A606064236C23F0030343F0010323645B
:10117000002384F83C3010BD9A6822F070629A60B7
:101180009A6822F04052B4E75A6822F40062CAE733
:101190000120EDE7012010BD002301400100000FF8
:1011A00037B513460022019290F83C20012A0446EC
:1011B00065D00568012280F83C20AA68D20705D5D1
:1011C000AA68D00715D4002003B030BDAA6842F049
:1011D0000102AA602B4A10682B4AB0FBF2F000EB28
:1011E00040000190019A002AEAD0019A013A019246
:1011F000F8E7206C20F4E06020F0010040F48070FB
:1012000020646A68520541BF206C20F4405040F4CD
:1012100080502064226CA06B12F480521CBF626C60
:1012200022F006026264002284F83C20174AC2635E
:10123000174A0264174AC2646FF022022A606A6881
:1012400042F080626A60AA6842F48072AA600A462C
:1012500005F14C0100F026FA0F4B5B6813F01F0FED
:10126000236808D1986810F04050ACD19A6842F0D9
:1012700080429A60A8E7094A9342A4D1F2E702208B
:10128000A2E700BF0800002040420F00FD12000846
:101290005F1300086B130008002301400020014089
:1012A00090F83C30012B10B5044624D0012380F87F
:1012B0003C3003689A6822F001029A609A68D2076B
:1012C00017D49A68806B22F480729A6000F028FA32
:1012D0002268536823F080635360236C23F488539F
:1012E00023F0010343F001032364002384F83C301E
:1012F00010BD0020F9E7022010BD7047836B1A6C07
:1013000012F0500F10B524D11A6C42F400721A6416
:101310001A68916811F0405F17D19969A9B9D16A2B
:1013200011F4700F02D0916849050ED4516821F074
:10133000200151601A6C22F480721A641A6CD20473
:101340005EBF1A6C42F001021A641846FFF7D5FF1F
:1013500010BD9B6BBDE81040DB6C1847704708B5AB
:10136000806BFFF7FBFF08BD7047806B08B540231B
:101370000364436C43F004034364FFF7F5FF08BDC7
:10138000F7B50023019390F83C30012B00F08380E7
:101390000D6804688A680123092D80F83C30AEB2DC
:1013A0002AD906EB4603E7681E3B4FF0070E0EFAFC
:1013B00003FE27EA0E07E760E76802FA03F33B4300
:1013C000E3604A68062A4FEA820325D81344676B14
:1013D000591F1F238B4027EA03036363626B06FADE
:1013E00001F1114361632D4B9C4234D0002380F8FE
:1013F0003C30184603B0F0BD276905EB45034FF0BC
:10140000070E0EFA03FE27EA0E072761276902FA84
:1014100003F33B432361D4E70C2A0ED81344216B1A
:10142000A3F123021F23934021EA03032363236BC9
:1014300006FA02F21A432263D5E71344E16A413BFC
:101440001F229A4021EA0202E262E26A06FA03F1EE
:101450001143E162C7E7122D04D1114A536843F4E6
:1014600080035360A5F11003012BBFD80C4A5368C9
:10147000102D43F400035360B8D10A4B0A4A1B688D
:10148000B3FBF2F20A2353430193019B002BADD02F
:10149000019B013BF8E70220ACE700BF00200140C0
:1014A000002301400800002040420F00074AD36893
:1014B00023F4E0631B041B0C43F0BF63000243F4FE
:1014C000003300F4E0600343D360704700ED00E0B8
:1014D000174B30B5DC68C4F30224C4F10703251DA3
:1014E000042B28BF0423062D4FF0010505FA03F352
:1014F00003F1FF338CBF033C00241940A14005FADF
:1015000004F4013C2240002842EA01024FEA0212A0
:10151000AFBF00F1604000F00F00064BD2B2A5BF94
:1015200000F56140D2B21A5480F8002330BD00BFEC
:1015300000ED00E014ED00E04209012300F01F007F
:1015400003FA00F0014B43F82200704700E100E08D
:101550000138B0F1807F0AD2064B074A5860F0216B
:1015600082F823100020072298601A60704701203B
:10157000704700BF10E000E000ED00E00368DAB261
:1015800023F47F7323F003031821103AB2FBF1F226
:101590000449032A88BF0433895C8365C165806D73
:1015A000704700BF9883000870B50446FFF73AFD06
:1015B0000546002C71D0002384F8343022680223C1
:1015C00084F83530136823F00103136021680B6839
:1015D000D8073CD40B68324D6268A0691D40A368EF
:1015E0001343E26813432269134362691343E269B8
:1015F00003431343226A1343626A042A43EA05033E
:1016000001BF266BE56A35432B430B604B69042A07
:1016100023F0070343EA02030BD1A26AE56A1343EE
:101620003DB1F8B9012A2DD001D3022A01D1EA0136
:101630002BD44B612046FFF7A1FFE26D3F2393407F
:10164000836000200123606584F8353070BDFFF7AA
:10165000E9FC401B0528B9D920236365032084F8E1
:10166000350070BDB0F5005F13D1032AE1D801A0A9
:1016700050F822F08B1600082F1600088B16000871
:1016800085160008B5F1C07FD3D1402363650120E2
:10169000E5E7022AF9D9032AC8E7012070BD00BF97
:1016A0003F8010F070B590F83440012C36D0012402
:1016B00080F8344090F83540866D012C4FF00005DD
:1016C0004FF0020428D180F835400468456525684C
:1016D00025F48025256063608368402B0EBFA260DF
:1016E000A160E260C26D08BFE1603F239340B36038
:1016F000236843F016032360636943F0800363614A
:10170000036C1BB1236843F008032360236843F094
:1017100001032360002070BD80F83450022070BDAA
:1017200070B50446856DFFF77DFC94F83530022BCB
:10173000064606D080236365002384F834300120F8
:1017400070BD23681A6822F016021A605A6922F0E6
:1017500080025A61226C0AB9A26C1AB11A6822F08E
:1017600008021A601A6822F001021A6023681868D9
:1017700010F0010009D1E26D3F239340AB600123DB
:1017800084F8340084F8353070BDFFF74BFC801BC3
:101790000528EBD9202363650320002384F8343027
:1017A00084F8350070BD90F83530022B03D08023CB
:1017B0004365012070470268052380F835301368BF
:1017C00023F001031360002070470000F7B50023E9
:1017D00001935A4B856D1F68C36D2E6808229A408D
:1017E000164204460CD001680868400708D508680E
:1017F00020F004000860AA60626D42F00102626598
:1018000001229A40164208D021684969090641BF61
:10181000AA60626D42F00202626504229A4016429A
:1018200008D021680968880741BFAA60626D42F04C
:101830000402626510229A40164210D0236819688B
:1018400009070CD5AA601A68500335D51B6819031F
:1018500001D4236C00E0A36C0BB120469847E16DE6
:1018600020228A40164238D023681868C60634D52C
:10187000AA6094F83520052A1A6825D122F01602AC
:101880001A605A6922F080025A61226C0AB9A26C6D
:101890001AB11A6822F008021A603F238B40AB602D
:1018A000002384F83430012384F83530236D0BB1E4
:1018B0002046984703B0F0BD1A68D2055EBF1A688B
:1018C00022F008021A60C4E7500328D51B681903E8
:1018D00032D4636C0BB120469847636D002BE9D07E
:1018E000636DDA0719D50523226884F8353013684B
:1018F00023F0010313604FF41653B7FBF3F7019B7A
:1019000001339F42019302D31368DB07F7D400230E
:1019100084F83430012384F83530E36CC7E71A6863
:1019200012F4807208D1196821F0100119600123A6
:1019300084F8342084F83530E36BCBE708000020CE
:101940002DE9F04F85B00B68DFF8AC81684ADFF80D
:10195000AC91019300234FF0010E019C0EFA03FE9F
:101960000EEA0406B64540F0AE804C6824F010073D
:10197000022F16D14FEAD30A00EB8A0A03F0070BB5
:10198000DAF820504FEA8B0B4FF00F0C0CFA0BFCDF
:1019900025EA0C0C0D6905FA0BF545EA0C05CAF8A9
:1019A00020504FEA430A0325D0F800B005FA0AF5A3
:1019B000ED4304F0030C0BEA050B0CFA0AFC013FA3
:1019C0004CEA0B0C012FC0F800C011D8876807EA59
:1019D000050BCF6807FA0AFC4CEA0B0787604768DB
:1019E00027EA0E0EC4F300179F4047EA0E07476030
:1019F000C7683D408F6807FA0AF73D43C560E500B8
:101A000061D54FF0000BCDF80CB0D8F84470394DCB
:101A100047F48047C8F84470D8F8447007F480470A
:101A20000397039F23F0030707F1804707F59C37CF
:101A300003F0030CD7F808A04FEA8C0C4FF00F0E00
:101A40000EFA0CFEA8422AEA0E0E43D005F5806578
:101A5000A84241D005F58065A8423FD005F58065D4
:101A6000A8423DD005F58065A8423BD048453BD013
:101A700005F50065A84239D005F58065A84214BF78
:101A80000825072505FA0CF545EA0E05BD60156821
:101A9000F74314F4803F0CBF3D4035431560556853
:101AA00014F4003F0CBF3D4035435560956814F475
:101AB000801F0CBF3D4035439560D568A40254BFDC
:101AC0003D403543D5600133102B7FF444AF05B062
:101AD000BDE8F08F5D46D5E70125D3E70225D1E7C4
:101AE0000325CFE70425CDE70525CBE70625C9E784
:101AF000003C014000000240003802400014024057
:101B00000AB1816170470904FBE7436959404161AB
:101B1000704700002DE9F341044618B9012002B0D6
:101B2000BDE8F0810368DD0710D42368980758D416
:101B300023681A0700F19A8023685B0700F1B880D8
:101B4000A269002A40F019810020E8E7A64B9A68B4
:101B500002F00C02042A07D09A6802F00C02082A4C
:101B60000AD15B68590207D59F4B1B689A03DCD5E5
:101B70006368002BD9D1D1E763689B4DB3F5803FF3
:101B800011D12B6843F480332B60FFF74BFA964D4D
:101B900006462B689B03C8D4FFF744FA801B6428D1
:101BA000F7D90320BBE7B3F5A02F04D12B6843F48A
:101BB00080232B60E5E72A6822F480322A602A68B5
:101BC00022F480222A60002BDFD1FFF72BFA064691
:101BD0002B689F03A9D5FFF725FA801B6428F7D946
:101BE000DFE7814B9A6812F00C0F07D09A6802F079
:101BF0000C02082A11D15B685E020ED47A4B1A6877
:101C0000950702D5E268012A88D11A68216922F075
:101C1000F80242EAC1021A608AE7E268734BB2B185
:101C200001221A60FFF7FEF96F4D06462B689807F0
:101C300007D52B68226923F0F80343EAC2032B601F
:101C400076E7FFF7EFF9801B0228EFD9A9E71A60C2
:101C5000FFF7E8F9644D06462B6899077FF568AFF2
:101C6000FFF7E0F9801B0228F6D99AE76269604B1A
:101C70007AB101221A60FFF7D5F95B4D06466B6F0A
:101C80009F073FF559AFFFF7CDF9801B0228F6D922
:101C900087E71A60FFF7C6F9534D06466B6F980742
:101CA0007FF54AAFFFF7BEF9801B0228F6D978E727
:101CB0004D4B1A6C12F0805228D101921A6C42F0EE
:101CC00080521A641B6C03F080530193019B012620
:101CD000484D2B68D9051BD5A368434D012B27D14F
:101CE0002B6F43F001032B67FFF79CF93E4D07462E
:101CF00041F288382B6F9B0739D5002E3FF420AF77
:101D0000394A136C23F08053136419E70026DFE788
:101D10002B6843F480732B60FFF784F907462B6828
:101D2000DA05D9D4FFF77EF9C01B0228F7D938E7C6
:101D3000052B04D12B6F43F004032B67D0E72A6FE8
:101D400022F001022A672A6F22F004022A67002B80
:101D5000CAD1FFF767F941F2883807462B6F980719
:101D6000CBD5FFF75FF9C01B4045F7D919E7FFF75F
:101D700059F9C01B4045BDD913E71B4DAB6803F0B3
:101D80000C03082B3FF4CAAE1B4E0023022A33601B
:101D900034D1FFF747F907462B6899011ED4226A10
:101DA000E3691343626A43EA8213E26A43EA026325
:101DB000A26A0D4C5208013A43EA02436B600123C8
:101DC0003360FFF72FF9054623689A013FF5BCAE53
:101DD000FFF728F9401B0228F6D9E2E6FFF722F9BF
:101DE000C01B0228D8D9DCE6003802400000474278
:101DF000800E47420070004060004742FFF712F932
:101E000004462B689B017FF59FAEFFF70BF9001B83
:101E10000228F6D9C5E600BF134908B58B6803F060
:101E20000C03042B03D0082B03D0104808BD104826
:101E300008BD4A684B68496813F4800314BF0C4816
:101E40000A48C1F3881118BF002302F03F02A1FB2A
:101E50000001FEF715FF044B5B68C3F30143013338
:101E60005B00B0FBF3F008BD003802400024F40032
:101E700000127A002DE9F0410D46044610B9012008
:101E8000BDE8F081444B1A6802F00F028A4228D361
:101E900021688F072DD4C80740D43F4B1A6802F041
:101EA0000F02954266D3226851076CD4130707D5F9
:101EB0003A4A2169936823F4604343EAC10393607B
:101EC000FFF7AAFF354B364A9B68C3F30313D35C75
:101ED000D840344B18600020FFF75AF80020BDE8C6
:101EE000F081CAB21A701B6803F00F039942C6D181
:101EF000CEE72A4B11F0040F1EBF9A6842F4E0525D
:101F00009A600E0742BF9A6842F460429A609A68EB
:101F1000A06822F0F00202439A60BCE762681F4B9F
:101F2000012A1DD11B6813F4003FA8D01B4EB368D3
:101F300023F003031343B360FFF774F841F28838CA
:101F40000746B368626803F00C03B3EB820FA4D0BA
:101F5000FFF768F8C01B4045F3D90320BDE8F081C6
:101F6000911E01291B6802D813F0007FDDE713F0F2
:101F7000020FDAE7EAB21A701B6803F00F039D4202
:101F80007FF47DAF8FE70549E0688B6823F4E05369
:101F900003438B608AE700BF003C024000380240E8
:101FA000B683000808000020044B054A9B68C3F371
:101FB0008223D35C034A1068D8407047003802403F
:101FC000C683000808000020044B054A9B68C3F341
:101FD0004233D35C034A1068D8407047003802404F
:101FE000C683000808000020036A23F0010303628F
:101FF000036A426870B584690D6824F07304254350
:102000008C6823F0020323430C4CA04209D004F552
:102010008064A04205D042604A68856142630362E1
:1020200070BDCC688E6923F0080323434C6922F409
:102030004072344323F004032243ECE700000140E4
:10204000036A23F480730362036A426870B5C4694B
:102050000D6824F0730425438C6823F4007343EA6D
:1020600004230E4CA04209D004F58064A04205D0A0
:1020700042604A68C561C263036270BDCC688E6904
:1020800023F4006343EA04234C6922F440523443AE
:1020900023F4806342EA0412EAE700BF0000014033
:1020A000036A23F48053036230B5046A4368C2694B
:1020B0000D6822F4E64242EA05228D6824F40054B9
:1020C00044EA0534094DA84209D005F58065A842C7
:1020D00005D043604B68C2610364046230BD4D6942
:1020E00023F4804343EA8513F3E700BF0000014077
:1020F0000368DA6842F00102DA601A6842F001020D
:102100001A60002070477047036889B1042907D01E
:102110001A6A22F001021A621A6A42F001021A6275
:102120001A6A22F010021A621A6A42F0100206E0DD
:102130001A6A22F001021A621A6A42F001021A6255
:102140001A6842F001021A600020704790F8383097
:10215000012B70B54FF002031CD080F839300368B2
:10216000012280F838209A6822F47F4222F0770218
:102170009A600A68402A79D019D8102A00F0938012
:102180000AD8002A00F08980012380F83930002322
:1021900080F83830184670BD202A00F08A80302A36
:1021A000F2D19A6822F0700242F0370236E0702ACB
:1021B00036D01BD8502A42D0602AE5D11C6A4D681F
:1021C000CE6824F010041C6299691A6A21F47041E7
:1021D00022F0A00242EA051241EA063199611A6230
:1021E0009A6822F0700242F0670217E0B2F5805F51
:1021F00011D0B2F5005FC7D18A684D689C68C96884
:102200002A4324F47F4442EA012222439A609A68D6
:1022100042F4804202E09A6822F007029A60B3E733
:102220008A684D689C68C9682A4324F47F4442EA5E
:10223000012222439A609A6842F07702EEE74C68E6
:10224000CE68196A1D6A25F001051D629A6921F0A0
:102250000A0122F0F00242EA061221439A61196251
:102260009A6822F0700242F05702D7E74C68CE68B5
:10227000196A1D6A25F001051D629A6921F00A019B
:1022800022F0F00242EA061221439A6119629A682A
:1022900022F0700242F04702C0E79A6822F0700212
:1022A00042F00702BAE79A6822F0700242F0170281
:1022B000B4E79A6822F0700242F02702AEE7704756
:1022C00070477047704703681A69910710B5044654
:1022D0000ED5DA6892070BD56FF002021A619B697E
:1022E00001229B07027677D0FFF7EAFF00232376CF
:1022F00023681A69500710D5DA6851070DD56FF0B9
:1023000004021A619B69022213F4407F2276204660
:1023100068D0FFF7D5FF0023237623681A691207D8
:102320000FD5DA6810070CD56FF008021A61DB6967
:1023300004229907227620465AD0FFF7C1FF0023D6
:10234000237623681A69D20610D5DA68D0060DD52F
:102350006FF010021A61DB69082213F4407F2276C5
:1023600020464BD0FFF7ACFF0023237623681A6981
:10237000D10708D5DA68D20705D56FF001021A61D6
:10238000204601F0EFF923681A69100608D5DA68CB
:10239000110605D56FF080021A61204600F0F3F9AE
:1023A00023681A69520608D5DA68500605D56FF019
:1023B00040021A612046FFF785FF23681A699106DB
:1023C00022D5DA6892061FD56FF0200220461A61E6
:1023D000BDE8104000F0D6B9FFF771FF2046FFF7C7
:1023E00070FF83E7FFF76BFF2046FFF76AFF92E776
:1023F000FFF765FF2046FFF764FFA0E7FFF75FFFE9
:102400002046FFF75EFFAFE710BD00002E4A0368CD
:10241000904212D0B0F1804F0FD0A2F57C42904292
:102420000BD002F58062904207D002F580629042A4
:1024300003D002F5784290421DD14A6823F0700320
:102440001343214A904204D1CA6823F440731343D2
:1024500028E0B0F1804FF7D01C4A9042F4D002F54A
:1024600080629042F0D002F580629042ECD002F59A
:1024700078429042E8D0164A9042E5D002F5806258
:102480009042E1D002F580629042DDD0A2F5983210
:102490009042D9D002F580629042D5D002F5806298
:1024A0009042D1D003608B68C3620B688362064B95
:1024B000984206D003F58063984202D0012343611D
:1024C00070470B690363F9E7000001400004004016
:1024D0000040014010B50446A0B190F8393003F037
:1024E000FF021BB980F8382001F096FE022384F821
:1024F00039302068211DFFF789FF012384F8393026
:10250000002010BD012010BD10B50446A0B190F808
:10251000393003F0FF021BB980F83820FFF7F3FDD4
:10252000022384F839302068211DFFF76FFF012353
:1025300084F83930002010BD012010BDF8B50C46DC
:102540000546002841D090F8393003F0FF021BB94E
:1025500080F8382001F0ECFD2946022351F8040BE5
:1025600085F83930836823F007038360FFF74EFF57
:102570002868236886688269A168076A1E43A36980
:1025800022F4407222F0030241EA0323134323F4AE
:102590007C422369E1691B0143EA0123E1680B43A3
:1025A000216A22F0FC0243EA01331343616927F0F8
:1025B000AA026768866047EA01178361174301230F
:1025C000076285F839300020F8BD0120F8BD000011
:1025D000036A23F010030362036A426870B58469DA
:1025E0000D6824F4E64444EA05258C6823F02003B2
:1025F00043EA04130D4CA04209D004F58064A042C4
:1026000005D042604A6885618263036270BDCC6810
:102610008E6923F0800343EA04134C6922F440627C
:10262000344323F0400342EA8402EAE70000014019
:1026300038B590F83830012B04464FF0020025D011
:10264000012384F8383084F839000C2A18D8DFE8E0
:1026500002F0071717171E1717172F171717400025
:102660002068FFF7C1FC236809699A6942F00802F3
:102670009A619A6922F004029A619A690A439A61FE
:102680000123002084F8393084F8380038BD2068F0
:10269000FFF79EFF236809699A6942F400629A6114
:1026A0009A6922F480629A619A6942EA0122E6E715
:1026B0002068FFF7C5FC23680969DA6942F008025F
:1026C000DA61DA6922F00402DA61DA690A43DA616E
:1026D000D6E72068FFF7E4FC23680969DA6942F469
:1026E0000062DA61DA6922F48062DA61DA6942EA68
:1026F0000122ECE7036A10B501248C4023EA0403AD
:102700000362036A8A401A43026210BD10B5044690
:1027100001220068FFF7EEFF2368084A934203D0C6
:1027200002F58062934203D15A6C42F400425A642B
:102730001A6842F001021A60002010BD000001403A
:1027400090F83830012B10B54FF0020318D080F804
:10275000393003680C685A68496822F070025A6080
:102760005A6822435A609A6822F080029A609A68F6
:102770000A439A60012380F83930002380F838300A
:10278000184610BD704770470368DA6822F49072EB
:10279000DA605A6922F001025A61202380F83A3047
:1027A000704700002DE9F0470668C2683369C169C7
:1027B00023F4405313433361044683680069F2688D
:1027C0000343606922F41642034322F00C020B43D8
:1027D0001343F3607369A26923F440731343B1F5A3
:1027E000004F73617A4B7CD19E4203D003F5806326
:1027F0009E4244D1FFF7E8FB192505FB00F3606812
:102800004FF064094000B3FBF0F3B3FBF9F34FEA78
:102810000318FFF7D9FB636868435B00B0FBF3F76D
:10282000FFF7D2FB636868435B00B0FBF3F3B3FBD5
:10283000F9F309FB1373DB003233B3FBF9F35B00ED
:1028400003F4F877FFF7C0FB626868435200B0FBFF
:10285000F2FAFFF7B9FB636868435B00B0FBF3F380
:10286000B3FBF9F309FB13A3DB003233B3FBF9F33A
:1028700003F0070343443B44B360BDE8F087FFF730
:1028800093FB192505FB00F360684FF064094000D5
:10289000B3FBF0F3B3FBF9F34FEA0318FFF784FB44
:1028A000636868435B00B0FBF3F7FFF77DFB636889
:1028B00068435B00B0FBF3F3B3FBF9F309FB13735D
:1028C000DB003233B3FBF9F35B0003F4F877FFF777
:1028D0006BFB626868435200B0FBF2FAFFF764FBDF
:1028E000B9E79E4202D03B4B9E4240D1FFF76CFBC2
:1028F000676819254FF0640905FB00F3BF00B3FBBF
:10290000F7F3B3FBF9F31F01FFF75EFB636868435E
:102910009B00B0FBF3F8FFF757FB636868439B002D
:10292000B0FBF3F3B3FBF9F309FB13831B01323361
:10293000B3FBF9F303F0F008FFF746FB6268684366
:102940009200B0FBF2FAFFF73FFB636868439B001D
:10295000B0FBF3F3B3FBF9F309FB13A31B01323311
:10296000B3FBF9F303F00F0343EA080383E7FFF730
:102970001BFB676819254FF0640905FB00F3BF00D6
:10298000B3FBF7F3B3FBF9F31F01FFF70DFB63682C
:1029900068439B00B0FBF3F8FFF706FB63686843EE
:1029A0009B00B0FBF3F3B3FBF9F309FB13831B01AB
:1029B0003233B3FBF9F303F0F008FFF7F5FA62687E
:1029C00068439200B0FBF2FAFFF7EEFABDE700BFF2
:1029D0000010014000140140F8B504460E461746A9
:1029E0001D4621680B6836EA030301D10020F8BDBB
:1029F0006B1CF7D095B92368DA6822F4D072DA60DC
:102A00005A6922F001025A61202384F8393084F88F
:102A10003A30002384F838300320F8BDFEF702FB7B
:102A2000C01B8542DDD2E6E710B5044640B390F8FE
:102A3000393003F0FF021BB980F8382001F0A8FDFF
:102A40002268242384F83930D36823F40053D360F8
:102A50002046FFF7A7FE23681A6922F490421A6104
:102A60005A6922F02A025A61DA6842F40052DA60A6
:102A700000202023E06384F8393084F83A3010BD18
:102A8000012010BD2DE9F0411F4690F83930202B70
:102A900004460D4690464FD100294AD0002A48D01E
:102AA00090F83830012B47D0012380F838300023CC
:102AB000C363212380F83930FEF7B4FAA4F82480E8
:102AC0000646A4F82680E38C9BB26BB93B4632469F
:102AD00040212046FFF780FFB0B9202384F8393029
:102AE00084F83800BDE8F081E38C013B9BB2E384BD
:102AF000A368B3F5805F32463B464FF08001204625
:102B00000ED1FFF769FF10B10320BDE8F0812B88DB
:102B10002268C3F308035360236943B90235D2E73F
:102B2000FFF75AFF0028EFD123682A785A60013551
:102B3000C9E70120BDE8F0810220BDE8F08190F8EE
:102B40003A30202B1CD1C9B1C2B190F83830012BDA
:102B500016D0C285828500232222C36380F83A20E2
:102B600002688162516980F8383041F00101516199
:102B7000D16841F49071D1601846704701207047C8
:102B800002207047704790F83A30222B10B532D1AE
:102B9000836801690268B3F5805F836A1FD1526858
:102BA000C9B9C2F3080223F8022B8362C48D013C29
:102BB000A4B2C4856CB90368DA6822F49072DA6052
:102BC0005A6922F001025A61202380F83A3000F05D
:102BD0003FFB002010BDD2B223F8012BE5E721B95D
:102BE000591C526881621A70E0E75268591C816270
:102BF00002F07F02F7E7022010BD704703681A68F1
:102C0000D96870B5160704465D6907D196065AD58E
:102C10008D0658D5BDE87040FFF7B5BF15F001052A
:102C200002D111F4907F4ED0D30705D5CE0542BF17
:102C3000E36B43F00103E363500704D51DB1E36B7D
:102C400043F00203E363930704D51DB1E36B43F044
:102C50000403E363160704D51DB1E36B43F00803D7
:102C6000E363E36B002B66D0950604D5880602D596
:102C70002046FFF788FF23685D69E26B1107204655
:102C800002D415F040051AD0FFF77EFD23685A697B
:102C9000520610D55A69606B22F040025A6150B159
:102CA000254B0365FEF77FFD002844D0606BBDE82F
:102CB0007040036D18472046FFF79FFF70BDFFF778
:102CC0009CFFE56370BD160627D50D0625D594F843
:102CD0003920212A2FD1A268B2F5805F226A17D14C
:102CE0001188C1F308015960216979B90232226261
:102CF000E28C013A92B2E284EAB9DA6822F0800208
:102D0000DA60DA6842F04002DA6070BD0132EEE764
:102D1000511C216212785A60EAE750060BD54A0628
:102D200009D5DA6822F04002DA60202384F83930CD
:102D30002046FFF727FF70BD3D2D000808B5806BCA
:102D40000023C385C384FFF758FF08BD1FB51022B9
:102D50000021684601F00EFD1E481F4B1F4A82628B
:102D60004FF4803C80E80810002301248360036254
:102D7000C362C360032304618461C361046344616B
:102D8000FEF76AF908B100F0B3FC09238DE81800DA
:102D9000694606230F480293FEF7F2FA08B100F0E5
:102DA000A7FC0C2102238DE80A000A486946FEF7B9
:102DB000E7FA08B100F09CFC0D22032369460548A0
:102DC0008DE80C00FEF7DCFA08B100F091FC04B0CD
:102DD00010BD00BF08020020002001400100000FCC
:102DE00070B5064688B01422002103A801F0C2FC89
:102DF0003268294B9A424DD1002503F58C3300955A
:102E00005A6C264842F480725A645A6C02F48072FA
:102E10000092009A01951A6B42F004021A631A6B31
:102E200002F004020192019A02951A6B42F002022A
:102E30001A631B6B03F002030293029B0C2303240F
:102E40000DEB030103930494FEF77AFD022314486B
:102E5000039303A904940595124CFEF771FD124BE0
:102E6000A56084E828004FF4806323614FF4006379
:102E700063614FF40053A36120464FF48073E56013
:102E8000E36125626562FEF78FFB08B100F030FC5C
:102E9000B463A66308B070BD002001400008024082
:102EA00000040240500200201064024007B50B4BA2
:102EB00000220192196B41F4800119631B6B03F42A
:102EC0008003019311463820019BFEF701FB382057
:102ED000FEF732FB03B05DF804FB00BF0038024090
:102EE0002DE9F0418CB01422002107A801F042FC2A
:102EF0000024454B01941A6B444F454EDFF818816E
:102F000042F010021A631A6B02F010020192019A49
:102F100002941A6B42F004021A631A6B02F0040264
:102F20000292029A03941A6B42F080021A631A6B9F
:102F300002F080020392039A04941A6B42F0020298
:102F40001A631A6B02F002020492049A05941A6B37
:102F500042F008021A631A6B02F008020592059A01
:102F600006941A6B42F001021A631B6B03F0010313
:102F70000693224638464FF48451069BFEF7C0FD67
:102F8000224630460F21FEF7BBFD22464046102167
:102F9000FEF7B6FD082307A91E4807930894099475
:102FA000FEF7CEFC4FF4004307A938460793089478
:102FB0000994FEF7C5FC4FF4826307A9304601254A
:102FC000079308940994FEF7BBFC4FF4845307A9B8
:102FD00038460793089509940A94FEF7B1FC0F232D
:102FE00007A930460793089509940A94FEF7A8FCB0
:102FF000102307A940460793089509940A94FEF701
:103000009FFC0CB0BDE8F08100380240000802408F
:10301000000C0240001002400004024010B50A23D8
:103020001446034892B2FFF72DFD204610BD00BFA5
:103030002C0A002030B595B03022002108A801F0FC
:1030400099FB0021142203A801F094FB00241C4BDF
:1030500001941A6C42F080521A641B6C03F0805386
:103060000193019B174B02941A6842F480421A6044
:103070001B6803F480430293029B012308934FF4DF
:10308000803309934FF480030225A8220F9308A8E8
:1030900004231093119213930E951295FEF73AFDA7
:1030A0000F2303934FF4A053069305214FF480534D
:1030B00003A8049505940793FEF7DCFE15B030BD18
:1030C00000380240007000402DE9FF41FDF784FF09
:1030D000FFF7B0FFFFF704FFFFF7E8FE01F03CFA4F
:1030E00001F004F801F030F901F096F9FFF72EFE37
:1030F00000F0D0FF01F014FA00F09EFF01F0F4F9A7
:10310000002211462720FEF7E3F92720FEF714FAE4
:10311000002211463720FEF7DBF93720FEF70CFAC4
:10312000012237493748384CDFF8E480374FFFF742
:1031300006FD012236493548FFF701FD01223549D8
:103140003548FFF7FCFC3548FEF7D2FF0021344834
:10315000FFF7DCFA04213248FFF7D8FA082130489B
:10316000FFF7D4FA00212F48FFF7D0FA04212D48A9
:10317000FFF7CCFA08212B48FFF7C8FA00212A48AC
:10318000FEF7C2FF00212948FEF7BEFF284800F0E5
:10319000B1FA204600F0D6FA264B00221A80264BC0
:1031A0006363264B4FF448621A8041460122384639
:1031B000FFF7C5FC012217491748FFF7C0FC0122A1
:1031C0000F491048FFF7BBFC1420FDF731FF1C4BE3
:1031D000986A5E6AFDF7B8F91A4B044618680D46FE
:1031E000FDF7B2F9CDE902013046FDF7ADF922460F
:1031F000CDE900012B46144801F030FFD5E700BFB0
:10320000CB0200206C0A0020EC0400202C0A0020D5
:10321000C9020020CA020020AC0A0020F0090020E8
:103220003C09002000090020B40900207809002092
:10323000F0060020D8040020000048C3DC04002071
:10324000CC020020D0040020A08300080000000071
:103250002DE9FF4700238DF803300268BA4B9A42EC
:1032600006465AD1B94FBA4D3B78BA4C5B3B1C2B42
:1032700026D8DFE813F024012500340125002500BD
:103280002500DC0025002500E10025004401400167
:1032900025000001E400F6000801250025001801C2
:1032A000250025002500D5002500EE0025001D0085
:1032B000D5ED0D7A9FEDA87A77EE877AC5ED0D7A78
:1032C00095ED0D7ADFEDA57AA049A548B4EEE77A31
:1032D000F1EE10FAC8BFC5ED0D7A95ED0D7ADFED70
:1032E000A17AB4EEE77AF1EE10FA48BFC5ED0D7A97
:1032F000238840F6F5121BB29342DCBF40F6F6136A
:103300002380238840F60A721BB29342C8BF2280F2
:10331000002301223B70FFF712FC3268924B9A4265
:103320003BD1924B1B788DF803300A2B40F0F18093
:103330008F4C002502270120A84604F1FF3923788D
:103340002C2B02D00D2B40F0DD80484484F8008007
:1033500001F0E9F904AB51EC100B05F1010A03EBA4
:103360008505FDF73DFC237845F80C0C0D2B384600
:1033700040F0C7807F4B019A1A607F4B029A1A6017
:103380007E4B039A1A60002119227D4801F0F2F960
:10339000012276497B48FFF7D2FB32687A4B9A428A
:1033A0003BD17A4B6A4D1B786A4C662B00F07F81CB
:1033B00000F20D81352B00F0858100F2ED80322B7B
:1033C00000F07A8100F2AC80312B00F0728195ED33
:1033D0000D7ADFED627AB4EEE77AF1EE10FAC8BF4B
:1033E000C5ED0D7A95ED0D7ADFED5E7AB4EEE77AF4
:1033F000F1EE10FA48BFC5ED0D7A238840F6F512BC
:103400001BB29342DCBF40F6F6132380238840F6BC
:103410000A721BB29342C8BF228004B0BDE8F08795
:10342000D5ED0D7A9FED4C7A77EEC77A46E7238883
:10343000323B1BB2238043E723883233F9E7544BF6
:10344000D3ED167AB7EE007A77EEC77AC3ED167A27
:1034500036E74F4BD3ED167AB7EE007A77EE877AE0
:10346000F4E74B4BD3ED187AB2EE047A77EEC77AD5
:10347000C3ED187A24E7464BD3ED187AB2EE047AFE
:1034800077EE877AF4E7DFF80881D8F85C00FDF77B
:103490005BF829A3D3E90023FCF7F6FEFDF7A0FBB8
:1034A000C8F85C000CE7DFF8E880D8F85C00FDF7AE
:1034B0004BF821A3D3E90023FCF7E8FEEEE7DFF8A1
:1034C000D080D8F82800FDF73FF81DA3D3E90023EA
:1034D000FCF7DAFEFDF784FBC8F82800F0E6DFF819
:1034E000B080D8F82800FDF72FF815A3D3E9002302
:1034F000FCF7CCFEEEE70122264B1A80E0E6002224
:10350000FAE7554601371A2F04F101047FF417AF8B
:1035100030E701220DF10301194801F0B7FD37E74B
:10352000332B00F0CC80342B7FF451AF40F6AC53FA
:1035300080E000BFAFF300807B14AE47E17A843FA8
:103540009A9999999999B93F00480040C902002079
:10355000F0060020DC0400200000C84200007A458C
:103560002C0A002000007AC500440040CA02002056
:10357000B1020020D0040020F4080020E404002060
:10358000B0020020AC0A0020004C0040CB0200201A
:10359000CC020020D80400205D2B7ED00FD85B2BFE
:1035A0007FF415AF4E4EB06AFCF7CEFF48A3D3E9C7
:1035B0000023FCF769FEFDF713FBB06207E7612B00
:1035C00035D0642B7FF403AF2388323331E06C2B8A
:1035D0004CD018D8692B41D006D8672B7FF4F7AEB2
:1035E0000122404B1A80F2E66A2B25D06B2B7FF428
:1035F000EEAE3B4BD3ED187AB2EE047A77EEC77A93
:10360000C3ED187AE3E6752B20D006D86F2B3AD09D
:10361000732B7FF4DCAE344B05E0772B05D0782B91
:103620007FF4D5AE00236B63D1E6304BFBE72388F4
:10363000323B1BB22380CAE6294BD3ED167AB7EE94
:10364000007A77EEC77AC3ED167AC0E6244BD3ED45
:10365000167AB7EE007A77EE877AF4E7204BD3ED4F
:10366000187AB2EE047A77EE877AC9E71C4EF06DCD
:10367000FCF76AFF18A3D3E90023FCF705FEFDF76A
:10368000AFFAF065A3E6164EF06DFCF75DFF12A3EE
:10369000D3E90023FCF7FAFDF1E7114EB06AFCF71D
:1036A00053FF0BA3D3E90023FCF7F0FD83E70022CF
:1036B00097E740F62823BDE740F65433BAE74FF4C6
:1036C0004863B7E740F6D863B4E700BFAFF30080C4
:1036D0009A9999999999B93F7B14AE47E17A843FB9
:1036E000CC020020D80400200000C842000048435B
:1036F0007047000000220D4B0361426183610C4B57
:10370000C0F8FC310B4B0C494263C2608260996582
:103710000A49D9650A4919664FF07E51596699667A
:10372000C3F800224FF080429A6270479A99593F3D
:103730000000FA44CC0200200000C843CDCCCC3DB0
:1037400000803B460023054A026143618261044ACE
:10375000C0F8FC214363C360836070479A99593F66
:103760000000FA4570B50268754B9A422DED028B48
:1037700040F0DE8380217348734C744DFEF7C5F929
:103780007348FDF78DFDB7EE008A4FF0804384ED5E
:103790007E8A85ED7E8A5B6A9FED6E7A9BB223807E
:1037A0006D4B5B6A9BB22B8023889BB2B3F5806F15
:1037B000238884BF6FF400615B181BB2A3802B8841
:1037C0009BB2B3F5806F2B8884BF6FF400629B18A7
:1037D0001BB24FF08042AB800023536202F580326F
:1037E0005362A3881BB207EE903AF8EEE77A67EED1
:1037F000877A9FED5A7AC4ED027AAB881BB207EE46
:10380000903AF8EEE77A67EE877AC5ED027AD4ED62
:10381000027A94ED037A77EE877AC4ED037AD5EDD8
:10382000027A95ED037A77EE877AC5ED037AD4EDC7
:10383000077A94ED037A77EEC77AC4ED087AD5ED6E
:10384000077A95ED037A77EEC77A9FED457AC5ED55
:10385000087AA3881BB207EE903AF8EEE77A67EE93
:10386000877A9FED407AC4ED097AAB881BB207EEE8
:10387000903AF8EEE77A67EE877AC5ED097A206A22
:10388000FCF762FE41EC100B00F049FF07EE100A56
:10389000D4ED0A7AB8EEC77AB4EEE77AF1EE10FA10
:1038A0000ED8E3881BB25BB9E36A6363D4ED0B7A8D
:1038B000F5EE407AF1EE10FA0CBF01230223E3800B
:1038C000286AFCF741FE41EC100B00F028FF07EEE0
:1038D000100AD5ED0A7AB8EEC77AB4EEE77AF1EEBF
:1038E00010FA0ED8EB881BB25BB9EB6A6B63D5EDAF
:1038F0000B7AF5EE407AF1EE10FA0CBF01230223A9
:10390000EB8094ED0D7AD4ED0C7AB4EEE77AF1EE1B
:1039100010FA2DDDD4ED7F6A9FED137AD4ED0C7A89
:10392000E6EE877AC4ED0C7A94ED0D7AD4ED0C7A3C
:10393000B4EEE77AF1EE10FA36D5636B236333E029
:103940000014004000080240F0060020EC040020B3
:1039500008020020FCD3B73F000001403F011A409D
:103960000585B344F3A170446F12833A0000C84246
:1039700094ED0D7AD4ED0C7AB4EEE77AF1EE10FA0C
:1039800012D5D4ED7F6A1FED087AD4ED0C7AE6EEFD
:10399000C77AC4ED0C7A94ED0D7AD4ED0C7AB4EEBE
:1039A000E77AF1EE10FAC8DC636A63666B6A6B66ED
:1039B00094ED7C6A5FED137A94ED7D7AC6EE276A0A
:1039C000632337EE667A84ED7D7A95ED7C6A95ED1A
:1039D0007D7AC6EE276A37EE667A85ED7D7A03F149
:1039E0001701890062182944566803F118029200F1
:1039F000A0182A44466049685160013BEFD194ED1C
:103A0000196AD4ED7D6A86EE277A37EE267A84ED40
:103A10007D7A95ED196AD5ED7D6A86EE277A77EE87
:103A2000267AC5ED7D7AE28812B2012ADD4A40F09D
:103A30002782E88801B2012940F02282D4ED097A78
:103A4000F5EE407AF1EE10FA40F01A82D5ED097ADF
:103A5000F5EE407AF1EE10FA40F012821188013151
:103A600089B21180118889B2032902D9CE49088010
:103A70001380CE4BCE4AD3ED007ACE4B126837EE90
:103A8000C88A83ED098A1A6593ED037AD3ED047A27
:103A900077EEC77AC3ED047A9A68DA605A689A605A
:103AA0001A685A60D3ED0A7A93ED097A77EEC77AED
:103AB0000022C3ED007AD3ED007A93ED047A77EE1D
:103AC000877AC3ED047AD3ED167A93ED007A67EE28
:103AD000877AC3ED057AD3ED186AD3ED007AD3ED7A
:103AE000035A93ED017A93ED026A77EEE57A37EEA9
:103AF000467A77EEC77A67EEA67AC3ED067AD3EDFB
:103B0000176A93ED007AD3ED077AE6EE877AC3ED74
:103B1000077AD3ED057AD3ED066A93ED077A77EE4F
:103B2000A67A77EE877AC3ED087AD3ED037A93ED20
:103B3000007A67EE877AF5EEC07AF1EE10FA0BD5CF
:103B4000C5F8FC215A619A61DA611A621A61DA6079
:103B50009A605A601A601A611A6AC5F8FC21D5ED9C
:103B60007F6A9FED957AD5ED0C7AE6EEC77ADFEDA8
:103B7000936AC5ED0C7A95ED0C7ADFED917AB4EE8F
:103B8000E77AF1EE10FAC8BFC5ED0C7A95ED0C7A24
:103B9000DFED8C7AB4EEE77AF1EE10FA48BFC5EDAE
:103BA0000C7AD5ED7D7AF1EE677A87EEA67AF2EEA1
:103BB000047A83ED0A7A93ED0A7AB4EEE77AF1EEAD
:103BC00010FAC8BFC3ED0A7A93ED0A7AFAEE047AC6
:103BD000B4EEE77AF1EE10FA48BFC3ED0A7A94ED3D
:103BE000117AD4ED127A77EEC77AC4ED127A236C8B
:103BF0006364E36B2364A36BE363D4ED0C7A94ED0D
:103C0000097A77EEC77AC4ED0E7AD4ED0E7A94ED88
:103C1000127A77EE877AC4ED127AD4ED047A94EDB5
:103C20000E7A67EE877AC4ED137AD4ED066AD4ED86
:103C30000E7AD4ED115A94ED0F7A94ED106A77EE66
:103C4000E57A37EE467A77EE877A67EEA67AC4EDA4
:103C5000147AD4ED057A94ED127A67EE877AB1EE94
:103C6000047AC4ED157AD4ED157AF4EEC77AF1EE44
:103C700010FA40F3098184ED157AD4ED137AD4ED6E
:103C8000145A94ED156AD4ED166A77EEA57A77EE9C
:103C9000867A77EEA67AC4ED167AD5ED116AD5ED5F
:103CA000127A77EEE67AC5ED127A2B6C6B64EB6BC9
:103CB0002B64AB6BEB63D5ED0C7AD5ED096A77EE2F
:103CC000E67AC5ED0E7AD5ED0E7AD5ED126A77EE6D
:103CD000A67AC5ED127AD5ED047AD5ED0E6A67EEB7
:103CE000A67AC5ED137A95ED066AD5ED0E7A95EDB7
:103CF000115AD5ED0F6AD5ED105A77EEC57A76EEEA
:103D0000E56A77EEA67A67EE867AC5ED147AD5ED88
:103D1000057AD5ED126A67EEA67AC5ED157AD5ED6E
:103D2000157AF4EEC77AF1EE10FA40F3B98085ED1A
:103D3000157AD5ED137A95ED146AD5ED156A95EDE2
:103D4000167A214B214E77EE867A77EEA67A77EEB9
:103D5000877AC5ED167A1B889BB2012B40F0E38071
:103D6000D4ED167A94ED167AF5EEC07AF1EE10FAEB
:103D7000C0F2A280DFED187A1548B4EEE77AF1EED2
:103D800010FA4FF001024FF48051C8BFC4ED167A0B
:103D9000FDF7B6FE002201210E48FDF7B1FEA36D2E
:103DA000E3651BE0D6040020DA040020D0040020E4
:103DB000E4040020CC0200206F12833A0000E143AB
:103DC00000401C4500401CC5D80400203C090020D0
:103DD00000080240000C0240003C0346D4ED177A74
:103DE0003368FCEEE77AC3ED0D7AD5ED167A95EDE2
:103DF000167AF5EEC07AF1EE10FA78DB5FED0A7A0A
:103E00004D48B4EEE77AF1EE10FA4FF001024FF0B0
:103E10000401C8BFC5ED167AFDF772FE0022082125
:103E20004548FDF76DFEAB6DEB65D5ED177A336850
:103E3000FCEEE77AC3ED0E7A404B41491A68414BDC
:103E400041481B881BB25363404A138801339BB21D
:103E5000138063883E4A01339BB263806B880133D1
:103E60009BB26B80136801331360BDEC028B394A3F
:103E7000136801331360BDE870400322FDF790B969
:103E800000231380344AF3E5D4ED156AF9EE047A81
:103E9000F4EEE76AF1EE10FA48BFC4ED157AECE6ED
:103EA00095ED157AF9EE047AB4EEE77AF1EE10FAB0
:103EB00048BFC5ED157A3CE7DFED287A1E48B4EE21
:103EC000E77A0122F1EE10FA114648BFC4ED167AE6
:103ED000FDF716FE00224FF480512148FDF710FE39
:103EE000D4ED167AF1EE677AC4ED177A76E7DFED56
:103EF0001B7A1148B4EEE77AF1EE10FA4FF00102A6
:103F00004FF0080148BFC5ED167AFDF7F9FD002214
:103F100004210948FDF7F4FDD5ED167AF1EE677A34
:103F2000C5ED177A81E7336800229A635A6383E705
:103F3000BDEC028B70BD00BF000C024000090020E8
:103F4000F8080020DC04002008020020D40400202F
:103F5000E0040020F0080020DA040020003C03C642
:103F60000008024082B00C4B002100915A6C42F4D0
:103F700080425A645A6C02F480420092009A019185
:103F80001A6C42F080521A641B6C03F08053019348
:103F9000019B02B0704700BF003802407047FEE747
:103FA000FEE7FEE7FEE7704770477047FDF72EB863
:103FB0000148FEF723BE00BFAC0A00200148FEF70F
:103FC0001DBE00BF2C0A00200148FEF717BE00BF2F
:103FD0006C0A00200148FEF776B900BFF009002006
:103FE0000148FDF7F3BB00BF500200200F49D1F894
:103FF000883043F47003C1F888300D4B1A680020F4
:1040000042F001021A6098601A6822F0847222F469
:1040100080321A60074A5A601A6822F480221A60B5
:10402000D8604FF000638B60704700BF00ED00E088
:10403000003802401030002410B58CB0002124223A
:1040400003A800F097FB1148114B002480E81800EA
:104050004FF40063C36003A90123019402948460B8
:1040600004614461039305930993FEF767FA08B16D
:10407000FFF73EFB01A9054801940294FEF760FB9F
:1040800008B1FFF735FB0CB010BD00BF7809002068
:104090000000014010B58CB00021242203A800F0DC
:1040A00069FB114800244FF0804380E818004FF46A
:1040B0000063C36003A90123019402948460046136
:1040C000039305930993FEF739FA08B1FFF710FB44
:1040D00001A9054801940294FEF732FB08B1FFF7ED
:1040E00007FB0CB010BD00BFB409002013B50E4A89
:1040F0000E4840F2E733002480E80C00532300947C
:1041000001948460C360FEF7E5F908B1FFF7F0FAA7
:104110006946064800940194FEF712FB08B1FFF7C8
:10412000E7FA02B010BD00BF00140040F009002003
:1041300070B514228AB0044600210DEB020000F095
:1041400019FB23682F4A934223D12F4B2F4800217C
:1041500000915A6C42F001025A645A6C02F001025A
:104160000092009A01911A6B42F010021A631B6BC5
:1041700003F010030193019B4FF420630593022386
:10418000069301230793099305A9FDF7D9FB0AB00C
:1041900070BDB3F1804FFAD103F50E3300250295BF
:1041A0001A6C1B4842F001021A641A6C02F00102F8
:1041B0000292029A03951A6B42F001021A631A6B7B
:1041C00002F001020392039A04951A6B42F0020274
:1041D0001A631B6B03F0020304930124049B0794EE
:1041E0004FF40043022605A9059306960994FDF7AE
:1041F000A7FB08230593069607940895099405A93B
:104200000448C2E7000001400038024000100240AC
:1042100000000240000402400368194A934284B03F
:104220000DD100230193174B1A6C42F002021A645D
:104230001B6C03F002030193019B04B07047124A08
:1042400093420CD1002302930E4B1A6C42F00402ED
:104250001A641B6C03F004030293029BEDE70B4A04
:104260009342EAD100230393064B1A6C42F02002DA
:104270001A641B6C03F020030393039BDDE700BF6C
:1042800000040040003802400008004000140040D4
:1042900030B5044689B01422002103A800F06AFA60
:1042A0002368234A93422AD1224B234800250095B4
:1042B0001A6B42F002021A631A6B02F002020092B9
:1042C000009A01951A6B42F004021A631B6B03F00B
:1042D000040301930224019B0494212303A9039363
:1042E0000794FDF72DFB4023144803930494059590
:1042F0000695079403A9FDF723FB09B030BD104ACA
:104300009342FAD1002302930A4B0E481A6B42F0F3
:1043100008021A631B6B03F008030293029B4FF41D
:10432000E043039302230493079303A9E3E700BF49
:10433000000400400038024000040240000802402F
:1043400000080040000C024010B58EB01022002181
:1043500003A800F00FFA00241C220DEB02002146F6
:104360000194029400F006FA29482A4A846009233D
:1043700080E80C0042F2CF03C3600461FEF7AAF8A4
:1043800008B1FFF7B5F94FF4805303A92048039310
:10439000FDF7DCFE08B1FFF7ABF91D48FEF7B4F8F6
:1043A00008B1FFF7A5F9002301A919480193029369
:1043B000FEF7C6F908B1FFF79BF9602300220793C7
:1043C00007A941F267031248089309920B92FEF77E
:1043D0002FF908B1FFF78CF940F63303042207A93F
:1043E0000B480893FEF724F908B1FFF781F940F272
:1043F0001943082207A906480893FEF719F908B1DE
:10440000FFF776F90248FFF743FF0EB010BD00BF7B
:104410003C0900200004004010B58EB0102200219D
:1044200003A800F0A7F900241C220DEB020021468E
:104430000194029400F09EF929482A4A84602723B7
:1044400080E80C004AF20F43C3600461FEF742F8B3
:1044500008B1FFF74DF94FF4805303A920480393A7
:10446000FDF774FE08B1FFF743F91D48FEF74CF85D
:1044700008B1FFF73DF9002301A919480193029300
:10448000FEF75EF908B1FFF733F9602300220793C6
:1044900007A945F207231248089309920B92FEF7E9
:1044A000C7F808B1FFF724F942F60313042207A95D
:1044B0000B480893FEF7BCF808B1FFF719F941F271
:1044C0008143082207A906480893FEF7B1F808B10E
:1044D000FFF70EF90248FFF7DBFE0EB010BD00BF7C
:1044E000000900200008004008B50B480B4B4FF4B2
:1044F000E13E80E808400C2200238360C360036132
:1045000042618361C361FEF78FFA18B1BDE80840CC
:10451000FFF7EEB808BD00BF6C0A0020004C004059
:1045200008B50B480B4B4FF4E13E80E808400C22E5
:1045300000238360C360036142618361C361FEF74E
:1045400073FA18B1BDE80840FFF7D2B808BD00BF44
:10455000AC0A00200044004008B50B480B4B4FF458
:10456000E13E80E808400C2200238360C3600361C1
:1045700042618361C361FEF757FA18B1BDE8084094
:10458000FFF7B6B808BD00BF2C0A00200048004065
:1045900010B504468CB01422002107A800F0EAF8F8
:1045A0002368444A93422ED1434B4448002401944B
:1045B0001A6C42F400221A641A6C02F4002201926E
:1045C000019A02941A6B42F004021A631B6B03F007
:1045D00004030293029B4FF4406307930223089362
:1045E0000123099303230A9307A908230B93FDF7DB
:1045F000A7F9342022462146FCF76AFF3420FCF755
:104600009BFF0CB010BD2E4A93422AD12A4B2D4855
:10461000002403941A6C42F400321A641A6C02F4F7
:1046200000320392039A04941A6B42F008021A6350
:104630001B6B03F008030493049B6023079302237E
:1046400008930123099303230A9307A907230B93D4
:10465000FDF776F9262022462146FCF739FF262071
:10466000CDE7194A9342CCD1134B1648002105914E
:104670001A6C42F480221A641A6C02F480220592A9
:10468000059A06911A6B42F008021A631B6B03F03D
:1046900008030693069B4FF4407307930223089385
:1046A0000123099303230A9307A907230B93FDF71B
:1046B00047F9A6E7004C00400038024000080240DD
:1046C00000440040000C024000480040DFF834D0B5
:1046D000002103E00C4B5B58435004310B480C4B5A
:1046E00042189A42F6D30B4A02E0002342F8043BF8
:1046F000094B9A42F9D3FFF779FC00F017F8FEF75F
:10470000E3FC704700000220F8860008000000204B
:10471000DC010020DC010020F00A0020FEE7002878
:10472000B8BF40427047002101F0CEBA70B50D4EBF
:104730000D4CA41BA4100025A54209D10B4E0C4C16
:1047400003F01EFEA41BA4100025A54205D170BDD8
:1047500056F8253098470135EEE756F8253098474A
:104760000135F2E7F0860008F0860008F0860008C0
:10477000F486000802440346934200D1704703F8D0
:10478000011BF9E72DE9FF4755EC104B0D9FDDF8B4
:1047900030A0002D0E4691461946B8BF22462B4642
:1047A00027F02007BBBF05F100431D4600232D2342
:1047B000B8BF1446462F0B7004D0452F00D10136E8
:1047C000022100E0032103AB019302AB00933246C8
:1047D000534645EC104B01F017FB472F804602D1A2
:1047E00019F0010F26D0462F08EB060911D198F8D1
:1047F0000030302B0AD10022002320462946FCF746
:104800005FF918B9C6F10106CAF80060DAF800309D
:1048100099440022002320462946FCF751F938B973
:104820003022039B994505D9591C03911A70F8E76A
:10483000CDF80C90039B0E9AA3EB0803404613603F
:1048400004B0BDE8F087F7B503460029B8BF494278
:1048500003F8022BB4BF2D222B220929427020DD40
:104860000DF1070217460A2691FBF6F506FB151116
:104870003031092D02F8011C02F1FF34294609DC10
:104880003031023A04F8011CBA421C4604D3201A03
:1048900003B0F0BD2246E7E712F8011B03F8011B45
:1048A000F2E730221C46114404F8022B5970EEE75F
:1048B0002DE9F04F8DB00C46DDF8588016461F46A6
:1048C000054602F059FC036804931846FBF780FC88
:1048D00000230A93D8F800300590073323F007032C
:1048E00003F1080294F818A0D4F800B0C8F800202A
:1048F000D3E90023C4E91223D4E9128929F0004343
:104900000793CDF818804FF0FF32A54BDDE9060183
:10491000FCF708F9002840F0FB814FF0FF32A04B74
:10492000DDE90601FCF7E0F8002840F0F181002203
:10493000002340464946FCF7CDF810B12D2384F8FA
:104940004330984B984ABAF1470F8CBF904698462F
:1049500003232BF00402236122604FF0000900972B
:1049600033460BAA2146284600F0E2F9013040F018
:1049700093804FF0FF300DB0BDE8F08F61684B1CA5
:104980004BF480623FD106236360002303930AAB9C
:10499000029309AB009349EC108B0DF123032260C5
:1049A000CDF804A061682846FFF7ECFE0AF0DF03AB
:1049B000472B804609D1099BD81C02DB62689342D1
:1049C00057DDAAF1020A5FFA8AFABAF1650F09996E
:1049D00034D80139524604F150000991FFF733FFF2
:1049E0000A9A8318012A8146236102DC2268D107D2
:1049F00001D5013323619DF82330002BAFD02D2347
:104A000084F84330ABE7BAF1670F02D0BAF1470F31
:104A1000BBD189B1002303930AAB029309AB009386
:104A200049EC108B2260CDF804A00DF12303284639
:104A3000FFF7A8FE8046BEE70123A5E7BAF1660F9F
:104A400019D1002963680CDD216113B92268D207EE
:104A500002D501330B442361099BA3654FF0000984
:104A6000C9E713B92268D00701D50233F3E7012360
:104A7000F1E74FF0670A099B0A9A934205DB226827
:104A80002361D107E8D50133E5E7002BD4BFC3F19B
:104A9000020301231344DEE723685A0507D4236980
:104AA000424631462846B84701302BD161E7BAF17A
:104AB000650F40F2E28000220023D4E91201FBF7E7
:104AC000FFFF00283CD00123384A31462846B8472A
:104AD00001303FF44EAF0A9B099A9A4202DB2368E9
:104AE000D8070FD5059B049A31462846B8470130B0
:104AF0003FF43FAF4FF0000804F11A090A9B013B55
:104B0000984512DB23689B0709D54FF0000804F194
:104B10001909E3680B9A9B1A9845C0F2EE80E06889
:104B20000B9B9842B8BF184625E701234A463146F9
:104B30002846B84701303FF41CAF08F10108DDE713
:104B4000099B002B34DC0123184A31462846B8471C
:104B500001303FF40EAF099B23B90A9B13B92368B8
:104B6000D907CFD5059B049A31462846B84701306E
:104B70003FF4FFAE4FF0000904F11A0A099B5B42B3
:104B8000994501DB0A9B8BE70123524631462846B3
:104B9000B84701303FF4EDAE09F10109EEE700BF7F
:104BA000FFFFEF7FCE830008D2830008DE8300087A
:104BB0000A9AA36D9A42A8BF1A46002A914638DC89
:104BC00004F11A034FF0000B29EAE9790693D4F8AF
:104BD00058A0AAEB09039B4533DB0A9B099A9A422A
:104BE0003ADB2368DA0737D40A9B0999A3EB0A0258
:104BF000A3EB01099145A8BF9146B9F1000F33DC41
:104C00004FF0000829EAE97904F11A0A099A0A9B87
:104C10009B1AA3EB09039845BFF674AF01235246D4
:104C200031462846B84701303FF4A3AE08F10108E9
:104C3000ECE71346314642462846B8470130BFD11B
:104C400097E60123069A31462846B84701303FF4DB
:104C500090AE0BF1010BBAE7059B049A314628464A
:104C6000B8470130C0D184E64B4608EB0A02314612
:104C70002846B8470130C3D17BE60A9A012A01DCF5
:104C8000DB0737D50123424631462846B847013075
:104C90003FF46FAE059B049A31462846B847013071
:104CA0003FF467AE00220023D4E91201FBF708FFAE
:104CB00058B14FF0000804F11A0A0A9B013B9845CD
:104CC0000DDB4B4604F15002EBE60A9B08F10102B2
:104CD000013B31462846B8470130F2D149E601236D
:104CE000524631462846B84701303FF442AE08F1FB
:104CF0000108E2E701234246EBE701234A46314639
:104D00002846B84701303FF434AE08F1010800E707
:104D100042464B4640464946FBF704FF00283FF415
:104D20002DAE014B014A0EE6D6830008DA83000857
:104D30002DE9F04791461F468A680B69DDF820800F
:104D40009342B8BF1346C9F8003091F84320064695
:104D50000C4612B10133C9F800302368990642BFEE
:104D6000D9F800300233C9F80030256815F006057F
:104D700007D104F1190AE368D9F800209B1A9D4273
:104D800029DB94F843302268003318BF01239206D0
:104D90002ED404F1430239463046C047013021D0B9
:104DA0002368E568D9F8002003F00603042B08BF48
:104DB000AD1AA36822690CBF25EAE5750025934268
:104DC000C4BF9B1AED184FF000091A344D451BD192
:104DD0000020BDE8F0870123524639463046C047DF
:104DE000013003D14FF0FF30BDE8F0870135C2E755
:104DF000E1185A1C302081F84300224494F84510F1
:104E000082F843100233C4E7012322463946304674
:104E1000C0470130E6D009F10109D7E72DE9F04399
:104E200017460A7E85B06E2A984606460C460C9BAD
:104E300001F1430E00F0BC801AD8632A2ED00AD8A4
:104E4000002A00F0C880582A00F08A8004F1420548
:104E500084F842202AE0642A01D0692AF6D1216828
:104E60001A6811F0800F23D0111D1960136827E014
:104E7000732A00F0B48008D86F2A2AD0702AE5D1AE
:104E80000A6842F020020A6003E0752A21D0782ADD
:104E9000DCD1782284F845206E4964E01A6801F17B
:104EA0004205111D1960136884F842300123A3E004
:104EB00011F0400F02F104011960D7D0B2F90030AF
:104EC000002B03DA2D225B4284F8432062490A2238
:104ED00017E02068196810F0800F03D0081D1860D3
:104EE0000B6806E010F0400F01F104001860F7D0E5
:104EF0000B8859496F2A14BF0A220822002084F81F
:104F000043006568A560002DC0F29C80206820F0F9
:104F100004002060002B3FD1002D40F095807546A5
:104F2000082A0BD12368DA0708D5236962689A42F8
:104F3000DEBF302305F8013C05F1FF35AEEB05037C
:104F40002361CDF800803B4603AA21463046FFF797
:104F5000EFFE013055D14FF0FF3005B0BDE8F083D2
:104F600081F845203C492268186812F0800F00F152
:104F700004051D6001D0036802E05506FBD50388D7
:104F8000D00744BF42F0200222601BB9226822F001
:104F9000200222601022B1E77546B3FBF2F002FB5B
:104FA0001033CB5C05F8013D03460028F5D1B7E787
:104FB00008681A68496910F0800F04D0101D186045
:104FC0001368196007E010F0400F02F10400186048
:104FD0001368F6D01980002323617546B1E71A687B
:104FE000111D19601568626800212846FBF7F8F862
:104FF00008B1401B606063682361002384F843307C
:105000009FE723692A4639463046C0470130A2D07F
:1050100023689B0707D5002504F11909E368039A63
:105020009B1A9D4205DBE068039B9842B8BF184677
:1050300093E701234A4639463046C04701308AD0BB
:105040000135EBE7002BA7D10B7884F8423004F14F
:10505000420565E7F1830008E08300080FB40A4BBE
:1050600013B51C6824B1A36913B9204601F0DAFC1A
:1050700005AB049AA1680193204602F081FD02B0BD
:10508000BDE8104004B070470C00002030B5034666
:105090001C785D1C44B912F1FF3204D311F8014BA6
:1050A00003F8014B14B930BD2B46F1E7002AF2D1C9
:1050B0001A70F0E770B504460D4645EC104B1646E5
:1050C00002F04EFB51EC100B7EB1C5F30A53C3F155
:1050D0006B03002B09DD1B0503F17F55002405F54B
:1050E000401522462B46FBF783FA70BD00000000F6
:1050F0002DE9F04F9FB098460490002340460C469F
:1051000015921A9302F035F807460068FBF760F82D
:105110004FF0000A05464FF0000B1994199B1A78BE
:105120000D2A33D8092A37D2002A3FD00023099309
:10513000199E3378302B40F003817378582B01D0BF
:10514000782B6BD1099B01931AAB0093CDF80880A3
:105150001BABAD4A049819A901F038FD10F0070403
:10516000054605D0062C2BD101360023199609934C
:10517000159B002B40F09085099BE3B152460BF143
:10518000004343EC102B1FB0BDE8F08F2B2A06D054
:105190002D2A13D0202AC9D101331993BEE700224A
:1051A00009925A1C19925B78002BC1D1159B199456
:1051B000002B40F06F8552465B46E2E70122EFE7A5
:1051C0001A9A3AB135211CA802F0BBFB1A9904982F
:1051D00002F039F8013C042C08D8DFE804F00C0395
:1051E000171A0C00DDF870A0DDF874B02907BFD5E0
:1051F0004BF0004BBCE71D9B1B9ADDF870A023F41D
:10520000801302F2334243EA025BEFE7DFF804B2B5
:10521000ECE76FF0004B4FF0FF3AE7E7199B5A1CA1
:1052200019925B78302BF9D0002BA1D001234FF0DD
:1052300000090893199B0A93CDF81C90CDF818909B
:105240000A2219980678A6F13003D9B2092979D92A
:105250002A46396802F0FDFD002800F08280002017
:10526000069D334602460146652B02D0452B40F091
:10527000E88025B910B9089B002B97D00025199C10
:10528000631C199363782B2B00F0C8802D2B00F042
:10529000CB8000260596A3F13006092E00F2D080BF
:1052A000302B00F0C380A3F13106082E00F2C98034
:1052B000A3F1300E199B4FF00A0C1F46199B5E1C80
:1052C00019965B78A3F13008B8F1090F40F2B3806A
:1052D000F61B082E44F61F6802DCF045A8BFF04616
:1052E000059E0EB1C8F10008002D40F0D0800028C6
:1052F0007FF43EAF089A002A7FF43AAF00297FF48A
:1053000055AF4E2B00F0A68000F39E80492B7FF412
:105310004DAF3E4919A801F089FE00283FF446AF81
:10532000199B3B49013B19A8199301F07FFE10B965
:10533000199B01331993DFF8DCB04FF0000A17E72F
:10534000002374E706990829DDBF079902FB0133A2
:10535000079302FB0939069B01300133069319902C
:105360006FE7199B5A191992069A5B5D002A48D17A
:105370001046302B2AD0A3F13102082A00F2918482
:10538000199A0A92024600200546303B00F10101BD
:1053900011D00A4400EB050C29460A2661451BD1B1
:1053A0002844082800F1010525DC07980A2101FBA3
:1053B000003307930021199B581C19905B7808460D
:1053C000A3F130010929E0D901214DE7199B5A1CAD
:1053D000199201305B78CCE7013101F1FF3EBEF15B
:1053E000080F03DC079F77430797D7E71029D8BF3B
:1053F00006FB09F9D2E7102DDCBF0A2101FB0939B0
:10540000D8E70246069DDBE704840008D383000842
:105410005B8400080000F07F01212BE70023059347
:10542000A31C1993A37836E70123F8E7199B5E1CA8
:1054300019965B7834E70CFB0E3EAEF1300E3DE77B
:1054400019944FF000084FE7692B3FF462AF6E2BC1
:105450007FF4ACAE884919A801F0E8FD00283FF4BC
:10546000A5AE199B1B78282B0ED11CAA834919A81D
:1054700001F0EFFD052807D11D9BDDF870A043F07A
:10548000FF4B4BF4E00B73E6DFF800B255E7069BE9
:105490000798002B08BF2B46102D2C46A8EB0208BE
:1054A000A8BF10240693FBF72DF8092C82468B46E3
:1054B00013DD734B03EBC40353E91223FBF798F896
:1054C000064648460F46FBF71DF802460B46304697
:1054D0003946FAF7DBFE82468B460F2D36DCB8F1F3
:1054E000000F3FF445AE24DDB8F1160F0BDC644D20
:1054F00005EBC808D8E9000152465B46FBF778F88F
:1055000082468B4634E6C5F1250398451EDC5C4C8B
:10551000C5F10F0504EBC501A8EB050552465B4636
:10552000D1E9000104EBC504FBF762F8D4E90023DC
:10553000E4E718F1160F09DB514DA5EBC808D8E9CF
:10554000002350465946FBF77DF9D9E72C1B44440C
:10555000002C70DD14F00F030AD0494901EBC301A0
:1055600052465B46D1E90001FBF742F882468B4682
:1055700034F00F0450D0B4F59A7F23DD0024254683
:1055800007940694049ADFF808B1222313604FF0C1
:10559000000A079B002B3FF4EBAD1A99049801F029
:1055A00052FE0699049801F04EFE2946049801F037
:1055B0004AFE0799049801F046FE2146049801F03E
:1055C00042FED5E52F4E00232411504659469946F8
:1055D0003746012C23DC0BB182468B46ABF1547B62
:1055E00007EBC90752465B46D7E90001FBF700F815
:1055F00021F000438B460A461B0D23491B058B42B5
:105600008246BBD8A1F580118B4286BFDFF884B0FB
:105610004FF0FF3A02F1547B002305936DE0E2075F
:1056200004D5D6E90023FAF7E3FF012309F10109C4
:1056300064100836CDE7EFD0644214F00F020AD0B0
:105640000F4B03EBC20350465946D3E90023FBF747
:10565000F9F882468B462411DED01F2C1CDD002475
:10566000254607940694049A22234FF0000A4FF02F
:10567000000B13608DE700BFDB830008188400086F
:1056800000850008D88400080000A07C0000F8FF16
:105690000000F07FFFFFEF7F14F0100318BF6A23B4
:1056A000A04E0593504659460023002C00F3068176
:1056B0000BB182468B46059BBBB1CBF30A53C3F1BA
:1056C0006B03002B594610DD1F2B40F30181342B57
:1056D000DEBF203B4FF0FF3202FA03F34FF0000A27
:1056E000CCBF4FF05C7B03EA010B00220023504645
:1056F0005946FBF7E5F90028B1D1079B0093069ABC
:105700000A9904982B4601F0F0FD079000283FF419
:1057100035AFB8F1000FC8F10003A8BF00230E9306
:10572000002428EAE8730F932546079B04985968DC
:1057300001F055FD069000283FF424AF079B1A693D
:10574000023203F10C0192000C3001F03DFD1CAA65
:105750001BA94BEC10AB0498CDE90AAB02F076F82C
:105760001A9000283FF40EAF0121049801F049FE81
:10577000054600283FF406AF1B9E1C9A002EABBFC7
:105780000E9B0F9B0F9FDDF83880ACBF03EB060824
:105790009F1B059BF61A1644634B013E9E42C2F1C5
:1057A000360280F2A8809B1B1F2BA2EB03024FF056
:1057B000010900F3948009FA03F31493002608EB1F
:1057C0000209059BC84517441F444346A8BF4B46E2
:1057D000BB42A8BF3B46002BC2BFA9EB0309FF1A7F
:1057E000A8EB03080E9BBBB129461A46049801F0AA
:1057F0009FFE054600283FF4C5AE01461A9A04985C
:1058000001F008FE089000283FF4BCAE1A990498F5
:1058100001F019FD089B1A93B9F1000F6FDC0F9B83
:10582000002B75D1002F08DD3A460699049801F047
:10583000CDFE069000283FF4A5AEB8F1000F08DDBC
:1058400029464246049801F0C1FE054600283FF46F
:1058500099AE069A1A99049801F023FF044600288D
:105860003FF490AEC36808930023C360294601F05B
:10587000FEFE00285ADA089BE3B9BAF1000F19D1ED
:10588000CBF31303B3B92BF000431B0D1B05B3F18E
:10589000D66F0FD9636913B92369012B0ADD21463D
:1058A0000122049801F092FE2946044601F0DFFE31
:1058B00000286CDC059B002B76D16EE6E20704D550
:1058C000D6E90023FAF794FE012364100836ECE6CB
:1058D0004FF0FF3202FA03F303EA0A0A05E7C6F1C2
:1058E0007F4606F57F0606F57B46E23609FA06F6A0
:1058F000CDF8509063E70123002614935FE74A46F2
:105900001A99049801F062FE1A90002887D139E6AE
:105910000F9A0699049801F00BFE0690002881D199
:1059200030E600BF3084000802FCFFFF40F08680B4
:10593000089ACBF3130332B3AD4A9342594652D17E
:10594000059B5046D3B1AB4A0A40B2F1D46F4FF039
:10595000FF3716D8120DC2F16B0307FA03F3834227
:1059600041D1A54A914202D101333FF40BAEA14B84
:105970000B4003F5801B4FF0000A9BE74FF0FF330D
:10598000EDE73B46EBE773BBBAF1000F2BD12BF0F1
:105990000043059A1B0D1B05E2B1B3F1D66F19DC6C
:1059A000B3F15C7F7FF75FAE944B0D9300230C93B4
:1059B00050465946DDE90C23FAF71AFE82468B461B
:1059C00000297FF4EAAD00287FF4E7AD049A222392
:1059D0001360E2E5A3F580136FEA135B6FEA0B5BDC
:1059E0004FF0FF3A66E79EB116EA0B0F3FF462AF45
:1059F000089B059A5046594673B1FFF75BFB024678
:105A00000B46DDE90A01FAF741FC82468B4651E775
:105A1000149B13EA0A0FE9E7FFF74CFB02460B461B
:105A2000DDE90A01FAF730FC0022002382468B46AA
:105A3000FBF746F800287FF416AE3BE729462046E0
:105A400001F053FF57EC106B00224FF0804310EE33
:105A5000100A3946FBF748F8002874D0089B002B41
:105A600046D0DFF89C914FF00008654F0026614B4F
:105A70000BEA03031493149A624B9A4240F0CA80D3
:105A8000DDE90A23ABF1547B4BEC10ABCDE90C23E1
:105A900001F066FE404653EC102B4946FAF7A8FD8C
:105AA00052465B46FAF7F2FB524A574B0A409A427B
:105AB00082465CD90D9A03F154739A4203D10C9B30
:105AC00001333FF45FADDFF830B14FF0FF3A1A9980
:105AD000049801F0B8FB0699049801F0B4FB29463C
